{
  "_format": "hh-sol-artifact-1",
  "contractName": "SilverbackFactoryV0",
  "sourceName": "contracts/SilverbackFactoryV0.sol",
  "abi": [
    {
      "inputs": [
        {
          "internalType": "address",
          "name": "_feeToSetter",
          "type": "address"
        }
      ],
      "stateMutability": "nonpayable",
      "type": "constructor"
    },
    {
      "anonymous": false,
      "inputs": [
        {
          "indexed": true,
          "internalType": "address",
          "name": "feeTo",
          "type": "address"
        }
      ],
      "name": "FeeToSet",
      "type": "event"
    },
    {
      "anonymous": false,
      "inputs": [
        {
          "indexed": true,
          "internalType": "address",
          "name": "feeToSetter",
          "type": "address"
        }
      ],
      "name": "FeeToSetterSet",
      "type": "event"
    },
    {
      "anonymous": false,
      "inputs": [
        {
          "indexed": true,
          "internalType": "address",
          "name": "token0",
          "type": "address"
        },
        {
          "indexed": true,
          "internalType": "address",
          "name": "token1",
          "type": "address"
        },
        {
          "indexed": false,
          "internalType": "address",
          "name": "pair",
          "type": "address"
        },
        {
          "indexed": false,
          "internalType": "uint256",
          "name": "",
          "type": "uint256"
        }
      ],
      "name": "PairCreated",
      "type": "event"
    },
    {
      "inputs": [
        {
          "internalType": "uint256",
          "name": "",
          "type": "uint256"
        }
      ],
      "name": "allPairs",
      "outputs": [
        {
          "internalType": "address",
          "name": "",
          "type": "address"
        }
      ],
      "stateMutability": "view",
      "type": "function"
    },
    {
      "inputs": [],
      "name": "allPairsLength",
      "outputs": [
        {
          "internalType": "uint256",
          "name": "",
          "type": "uint256"
        }
      ],
      "stateMutability": "view",
      "type": "function"
    },
    {
      "inputs": [
        {
          "internalType": "address",
          "name": "tokenA",
          "type": "address"
        },
        {
          "internalType": "address",
          "name": "tokenB",
          "type": "address"
        }
      ],
      "name": "computePairAddress",
      "outputs": [
        {
          "internalType": "address",
          "name": "computed",
          "type": "address"
        }
      ],
      "stateMutability": "view",
      "type": "function"
    },
    {
      "inputs": [
        {
          "internalType": "address",
          "name": "tokenA",
          "type": "address"
        },
        {
          "internalType": "address",
          "name": "tokenB",
          "type": "address"
        }
      ],
      "name": "createPair",
      "outputs": [
        {
          "internalType": "address",
          "name": "pair",
          "type": "address"
        }
      ],
      "stateMutability": "nonpayable",
      "type": "function"
    },
    {
      "inputs": [],
      "name": "feeTo",
      "outputs": [
        {
          "internalType": "address",
          "name": "",
          "type": "address"
        }
      ],
      "stateMutability": "view",
      "type": "function"
    },
    {
      "inputs": [],
      "name": "feeToSetter",
      "outputs": [
        {
          "internalType": "address",
          "name": "",
          "type": "address"
        }
      ],
      "stateMutability": "view",
      "type": "function"
    },
    {
      "inputs": [
        {
          "internalType": "address",
          "name": "",
          "type": "address"
        },
        {
          "internalType": "address",
          "name": "",
          "type": "address"
        }
      ],
      "name": "getPair",
      "outputs": [
        {
          "internalType": "address",
          "name": "",
          "type": "address"
        }
      ],
      "stateMutability": "view",
      "type": "function"
    },
    {
      "inputs": [
        {
          "internalType": "address",
          "name": "tokenA",
          "type": "address"
        },
        {
          "internalType": "address",
          "name": "tokenB",
          "type": "address"
        }
      ],
      "name": "getPairAddress",
      "outputs": [
        {
          "internalType": "address",
          "name": "",
          "type": "address"
        }
      ],
      "stateMutability": "view",
      "type": "function"
    },
    {
      "inputs": [
        {
          "internalType": "address",
          "name": "tokenA",
          "type": "address"
        },
        {
          "internalType": "address",
          "name": "tokenB",
          "type": "address"
        }
      ],
      "name": "pairExists",
      "outputs": [
        {
          "internalType": "bool",
          "name": "",
          "type": "bool"
        }
      ],
      "stateMutability": "view",
      "type": "function"
    },
    {
      "inputs": [
        {
          "internalType": "address",
          "name": "_feeTo",
          "type": "address"
        }
      ],
      "name": "setFeeTo",
      "outputs": [],
      "stateMutability": "nonpayable",
      "type": "function"
    },
    {
      "inputs": [
        {
          "internalType": "address",
          "name": "_feeToSetter",
          "type": "address"
        }
      ],
      "name": "setFeeToSetter",
      "outputs": [],
      "stateMutability": "nonpayable",
      "type": "function"
    }
  ],
  "bytecode": "0x608060405234801561001057600080fd5b506040516128e83803806128e883398101604081905261002f916100aa565b6001600160a01b0381166100785760405162461bcd60e51b815260206004820152600c60248201526b5a45524f5f4144445245535360a01b604482015260640160405180910390fd5b600180546001600160a01b039092166001600160a01b03199283168117909155600080549092161781556004556100da565b6000602082840312156100bc57600080fd5b81516001600160a01b03811681146100d357600080fd5b9392505050565b6127ff806100e96000396000f3fe608060405234801561001057600080fd5b50600436106100a95760003560e01c80639809e034116100715780639809e03414610138578063a2e74af61461014b578063b4f69a2f14610160578063c9c6539614610173578063e6a4390514610186578063f46901ed146101ba57600080fd5b8063017e7e58146100ae578063094b7415146100de5780631e3dd18b146100f1578063574f2ba31461010457806366a7bc4b14610115575b600080fd5b6000546100c1906001600160a01b031681565b6040516001600160a01b0390911681526020015b60405180910390f35b6001546100c1906001600160a01b031681565b6100c16100ff366004610811565b6101cd565b6004546040519081526020016100d5565b610128610123366004610846565b6101f7565b60405190151581526020016100d5565b6100c1610146366004610846565b610252565b61015e610159366004610879565b610341565b005b6100c161016e366004610846565b61041b565b6100c1610181366004610846565b610473565b6100c1610194366004610846565b60036020908152600092835260408084209091529082529020546001600160a01b031681565b61015e6101c8366004610879565b610731565b600281815481106101dd57600080fd5b6000918252602090912001546001600160a01b0316905081565b600080826001600160a01b0316846001600160a01b03161061021a57828461021d565b83835b506001600160a01b03908116600090815260036020908152604080832087851684529091529020541615159150505b92915050565b6000806000836001600160a01b0316856001600160a01b03161061027757838561027a565b84845b6040516001600160601b0319606084811b8216602084015283901b16603482015291935091506000906048016040516020818303038152906040528051906020012090506000604051806020016102d090610804565b601f1982820381018352601f90910116604081815282516020938401206001600160f81b0319848401526001600160601b03193060601b1660218401526035830195909552605580830195909552805180830390950185526075909101905282519201919091209695505050505050565b6001546001600160a01b0316331461038c5760405162461bcd60e51b81526020600482015260096024820152682327a92124a22222a760b91b60448201526064015b60405180910390fd5b6001600160a01b0381166103d15760405162461bcd60e51b815260206004820152600c60248201526b5a45524f5f4144445245535360a01b6044820152606401610383565b600180546001600160a01b0319166001600160a01b0383169081179091556040517f8008d425488ae0d33c41ff5a8b69005015ef67d5d450003935eb06ab91e0679c90600090a250565b6000806000836001600160a01b0316856001600160a01b031610610440578385610443565b84845b6001600160a01b039182166000908152600360209081526040808320938516835292905220541695945050505050565b6000816001600160a01b0316836001600160a01b0316036104cc5760405162461bcd60e51b81526020600482015260136024820152724944454e544943414c5f41444452455353455360681b6044820152606401610383565b600080836001600160a01b0316856001600160a01b0316106104ef5783856104f2565b84845b6001600160a01b0380831660009081526003602090815260408083208486168452909152902054929450909250161561055b5760405162461bcd60e51b815260206004820152600b60248201526a504149525f45584953545360a81b6044820152606401610383565b6040516001600160601b0319606084811b8216602084015283901b1660348201526000906048016040516020818303038152906040528051906020012090506000604051806020016105ac90610804565b6020820181038252601f19601f820116604052509050818151602083016000f560405163485cc95560e01b81526001600160a01b03868116600483015285811660248301529196509086169063485cc95590604401600060405180830381600087803b15801561061b57600080fd5b505af115801561062f573d6000803e3d6000fd5b5050506001600160a01b0380861660008181526003602081815260408084208a8716855282528084208054968d166001600160a01b03199788168117909155928252808420948452939052918120805484168317905560028054600181810183559183527f405787fa12a823e0f2b7631cc41b3ba8828b3321ca811111fa75cd3aa3bb5ace0180549094169092179092556004805491935091906106d490849061089b565b9091555050600454604080516001600160a01b0388811682526020820193909352828616928716917f0d3648bd0f6ba80134a33ba9275ac585d9d315f0ad8355cddefde31afa28d0e9910160405180910390a35050505092915050565b6001546001600160a01b031633146107775760405162461bcd60e51b81526020600482015260096024820152682327a92124a22222a760b91b6044820152606401610383565b6001600160a01b0381166107bc5760405162461bcd60e51b815260206004820152600c60248201526b5a45524f5f4144445245535360a01b6044820152606401610383565b600080546001600160a01b0319166001600160a01b038316908117825560405190917fe7ba424f407983edfb652af33e51f926d1d41a22bb4850c65eb21c02e378957c91a250565b611f0d806108bd83390190565b60006020828403121561082357600080fd5b5035919050565b80356001600160a01b038116811461084157600080fd5b919050565b6000806040838503121561085957600080fd5b6108628361082a565b91506108706020840161082a565b90509250929050565b60006020828403121561088b57600080fd5b6108948261082a565b9392505050565b8082018082111561024c57634e487b7160e01b600052601160045260246000fdfe60806040526001600a5534801561001557600080fd5b50600080546001600160a01b03191633178155604080518082018252600d81526c053696c7665726261636b2d4c5609c1b6020918201528151808301835260018152603160f81b9082015281517f8b73c3c69bb8fe3d512ecc4cf759cc79239f7b179b0ffacaa9a75d522b39400f818301527f85de88e7213dc87891b4afe9ad494c76604bd5eb364a5d052edb61182afa6b5f818401527fc89efdaa54c0f20c7adf612882df0950f5a951637e0307cdcb4c672f298b8bc660608201524660808201523060a0808301919091528351808303909101815260c09091019092528151910120600855611e0190819061010c90396000f3fe608060405234801561001057600080fd5b50600436106101585760003560e01c806370a08231116100c3578063bc25cf771161007c578063bc25cf771461036a578063c45a01551461037d578063d21220a714610390578063d505accf146103a3578063dd62ed3e146103b6578063fff6cae9146103e157600080fd5b806370a08231146102c55780637464fc3d146102e55780637ecebe00146102ee57806389afcb441461030e57806395d89b4114610336578063a9059cbb1461035757600080fd5b806323b872dd1161011557806323b872dd1461024d57806330adf81f14610260578063313ce567146102875780633644e51514610296578063485cc9551461029f5780636a627842146102b257600080fd5b8063022c0d9f1461015d57806306fdde03146101725780630902f1ac146101ad578063095ea7b3146101e85780630dfe16811461020b57806318160ddd14610236575b600080fd5b61017061016b366004611a1a565b6103e9565b005b60408051808201909152600d81526c053696c7665726261636b2d4c5609c1b60208201525b6040516101a49190611ad4565b60405180910390f35b600354604080516001600160701b038084168252600160701b8404166020820152600160e01b90920463ffffffff16908201526060016101a4565b6101fb6101f6366004611b07565b61085d565b60405190151581526020016101a4565b60015461021e906001600160a01b031681565b6040516001600160a01b0390911681526020016101a4565b61023f60055481565b6040519081526020016101a4565b6101fb61025b366004611b33565b6108ca565b61023f7f6e71edae12b1b97f4d1f60370fef10105fa2faae0126114a169c64845d6126c981565b604051601281526020016101a4565b61023f60085481565b6101706102ad366004611b74565b61093c565b61023f6102c0366004611bad565b6109b0565b61023f6102d3366004611bad565b60066020526000908152604090205481565b61023f60045481565b61023f6102fc366004611bad565b60096020526000908152604090205481565b61032161031c366004611bad565b610c74565b604080519283526020830191909152016101a4565b604080518082019091526005815264053422d4c560dc1b6020820152610197565b6101fb610365366004611b07565b610ffe565b610170610378366004611bad565b611014565b60005461021e906001600160a01b031681565b60025461021e906001600160a01b031681565b6101706103b1366004611bca565b6110f3565b61023f6103c4366004611b74565b600760209081526000928352604080842090915290825290205481565b610170611341565b6001600a54146104145760405162461bcd60e51b815260040161040b90611c41565b60405180910390fd5b6002600a55841515806104275750600084115b6104695760405162461bcd60e51b8152602060048201526013602482015272125394d551919250d251539517d3d555141555606a1b604482015260640161040b565b6001546001600160a01b0384811691161480159061049557506002546001600160a01b03848116911614155b6104ce5760405162461bcd60e51b815260206004820152600a602482015269494e56414c49445f544f60b01b604482015260640161040b565b6003546001600160701b0380821691600160701b900416861561050257600154610502906001600160a01b03168689611439565b851561051f5760025461051f906001600160a01b03168688611439565b821561058c57604051637062a49960e11b81526001600160a01b0386169063e0c54932906105599033908b908b908a908a90600401611c61565b600060405180830381600087803b15801561057357600080fd5b505af1158015610587573d6000803e3d6000fd5b505050505b6001546040516370a0823160e01b81523060048201526000916001600160a01b0316906370a0823190602401602060405180830381865afa1580156105d5573d6000803e3d6000fd5b505050506040513d601f19601f820116820180604052508101906105f99190611cad565b6002546040516370a0823160e01b81523060048201529192506000916001600160a01b03909116906370a0823190602401602060405180830381865afa158015610647573d6000803e3d6000fd5b505050506040513d601f19601f8201168201806040525081019061066b9190611cad565b905060006106828a6001600160701b038716611cdc565b831161068f5760006106ac565b6106a28a6001600160701b038716611cdc565b6106ac9084611cdc565b905060006106c38a6001600160701b038716611cdc565b83116106d05760006106ed565b6106e38a6001600160701b038716611cdc565b6106ed9084611cdc565b905060008211806106fe5750600081115b61073f5760405162461bcd60e51b8152602060048201526012602482015271125394d551919250d251539517d25394155560721b604482015260640161040b565b600061074c836003611cef565b610758866103e8611cef565b6107629190611cdc565b90506000610771836003611cef565b61077d866103e8611cef565b6107879190611cdc565b905061079f6001600160701b03808916908a16611cef565b6107ac90620f4240611cef565b6107b68284611cef565b10156107e85760405162461bcd60e51b81526020600482015260016024820152604b60f81b604482015260640161040b565b50506107f684848888611546565b60408051838152602081018390529081018c9052606081018b90526001600160a01b038a169033907fd78ad95fa46c994b6551d0da85fc275fe613ce37657fb8d5e3d130840159d8229060800160405180910390a350506001600a55505050505050505050565b3360008181526007602090815260408083206001600160a01b038716808552925280832085905551919290917f8c5be1e5ebec7d5bd14f71427d1e84f3dd0314c0f7b2291e5b200ac8c7c3b925906108b89086815260200190565b60405180910390a35060015b92915050565b6001600160a01b03831660009081526007602090815260408083203384529091528120546000198114610926576109018382611cdc565b6001600160a01b03861660009081526007602090815260408083203384529091529020555b610931858585611646565b506001949350505050565b6000546001600160a01b031633146109825760405162461bcd60e51b81526020600482015260096024820152682327a92124a22222a760b91b604482015260640161040b565b600180546001600160a01b039384166001600160a01b03199182161790915560028054929093169116179055565b60006001600a54146109d45760405162461bcd60e51b815260040161040b90611c41565b6002600a556003546001546040516370a0823160e01b81523060048201526001600160701b0380841693600160701b900416916000916001600160a01b03909116906370a0823190602401602060405180830381865afa158015610a3c573d6000803e3d6000fd5b505050506040513d601f19601f82011682018060405250810190610a609190611cad565b6002546040516370a0823160e01b81523060048201529192506000916001600160a01b03909116906370a0823190602401602060405180830381865afa158015610aae573d6000803e3d6000fd5b505050506040513d601f19601f82011682018060405250810190610ad29190611cad565b90506000610ae96001600160701b03861684611cdc565b90506000610b006001600160701b03861684611cdc565b90506000610b0e878761173d565b6005549091506000819003610b50576103e8610b32610b2d8587611cef565b61186f565b610b3c9190611cdc565b9850610b4b60006103e86118df565b610b97565b610b946001600160701b038916610b678387611cef565b610b719190611d1c565b6001600160701b038916610b858487611cef565b610b8f9190611d1c565b611969565b98505b60008911610be75760405162461bcd60e51b815260206004820152601d60248201527f494e53554646494349454e545f4c49515549444954595f4d494e544544000000604482015260640161040b565b610bf18a8a6118df565b610bfd86868a8a611546565b8115610c2657600354610c22906001600160701b03600160701b820481169116611cef565b6004555b604080518581526020810185905233917f4c209b5fc8ad50758f13e2e1088ba56a560dff690a1c6fef26394f4c03821c4f910160405180910390a250506001600a5550949695505050505050565b6000806001600a5414610c995760405162461bcd60e51b815260040161040b90611c41565b6002600a556001600160a01b038316610ce35760405162461bcd60e51b815260206004820152600c60248201526b5a45524f5f4144445245535360a01b604482015260640161040b565b6003546001546002546040516370a0823160e01b81523060048201526001600160701b0380851694600160701b900416926001600160a01b0390811692169060009083906370a0823190602401602060405180830381865afa158015610d4d573d6000803e3d6000fd5b505050506040513d601f19601f82011682018060405250810190610d719190611cad565b6040516370a0823160e01b81523060048201529091506000906001600160a01b038416906370a0823190602401602060405180830381865afa158015610dbb573d6000803e3d6000fd5b505050506040513d601f19601f82011682018060405250810190610ddf9190611cad565b3060009081526006602052604090205490915080610e385760405162461bcd60e51b8152602060048201526016602482015275494e53554646494349454e545f4c495155494449545960501b604482015260640161040b565b6000610e44888861173d565b60055490915080610e558685611cef565b610e5f9190611d1c565b9a5080610e6c8585611cef565b610e769190611d1c565b9950610e823084611981565b610e8d878d8d611439565b610e98868d8c611439565b6040516370a0823160e01b81523060048201526001600160a01b038816906370a0823190602401602060405180830381865afa158015610edc573d6000803e3d6000fd5b505050506040513d601f19601f82011682018060405250810190610f009190611cad565b6040516370a0823160e01b81523060048201529095506001600160a01b038716906370a0823190602401602060405180830381865afa158015610f47573d6000803e3d6000fd5b505050506040513d601f19601f82011682018060405250810190610f6b9190611cad565b9350610f7985858b8b611546565b8115610fa257600354610f9e906001600160701b03600160701b820481169116611cef565b6004555b604080518c8152602081018c90526001600160a01b038e169133917fdccd412f0b1252819cb1fd330b93224ca42612892bb3f4f789976e6d81936496910160405180910390a35050505050505050506001600a81905550915091565b600061100b338484611646565b50600192915050565b6001546003546040516370a0823160e01b81523060048201526110a5926001600160a01b03169184916001600160701b039091169083906370a08231906024015b602060405180830381865afa158015611072573d6000803e3d6000fd5b505050506040513d601f19601f820116820180604052508101906110969190611cad565b6110a09190611cdc565b611439565b6002546003546040516370a0823160e01b81523060048201526110f0926001600160a01b0316918491600160701b9091046001600160701b03169083906370a0823190602401611055565b50565b4284101561112d5760405162461bcd60e51b81526020600482015260076024820152661156141254915160ca1b604482015260640161040b565b6008546001600160a01b038816600090815260096020526040812080549192917f6e71edae12b1b97f4d1f60370fef10105fa2faae0126114a169c64845d6126c9918b918b918b91908761118083611d30565b909155506040805160208101969096526001600160a01b0394851690860152929091166060840152608083015260a082015260c0810187905260e001604051602081830303815290604052805190602001206040516020016111f992919061190160f01b81526002810192909252602282015260420190565b60408051601f198184030181528282528051602091820120600080855291840180845281905260ff88169284019290925260608301869052608083018590529092509060019060a0016020604051602081039080840390855afa158015611264573d6000803e3d6000fd5b5050604051601f1901519150506001600160a01b0381161580159061129a5750886001600160a01b0316816001600160a01b0316145b6112da5760405162461bcd60e51b8152602060048201526011602482015270494e56414c49445f5349474e415455524560781b604482015260640161040b565b6001600160a01b038981166000818152600760209081526040808320948d16808452948252918290208b905590518a81527f8c5be1e5ebec7d5bd14f71427d1e84f3dd0314c0f7b2291e5b200ac8c7c3b925910160405180910390a3505050505050505050565b6001546040516370a0823160e01b8152306004820152611437916001600160a01b0316906370a0823190602401602060405180830381865afa15801561138b573d6000803e3d6000fd5b505050506040513d601f19601f820116820180604052508101906113af9190611cad565b6002546040516370a0823160e01b81523060048201526001600160a01b03909116906370a0823190602401602060405180830381865afa1580156113f7573d6000803e3d6000fd5b505050506040513d601f19601f8201168201806040525081019061141b9190611cad565b6003546001600160701b0380821691600160701b900416611546565b565b604080516001600160a01b038481166024830152604480830185905283518084039091018152606490920183526020820180516001600160e01b031663a9059cbb60e01b17905291516000928392908716916114959190611d49565b6000604051808303816000865af19150503d80600081146114d2576040519150601f19603f3d011682016040523d82523d6000602084013e6114d7565b606091505b50915091508180156115015750805115806115015750808060200190518101906115019190611d65565b61153f5760405162461bcd60e51b815260206004820152600f60248201526e1514905394d1915497d19052531151608a1b604482015260640161040b565b5050505050565b6001600160701b03841180159061156457506001600160701b038311155b61159b5760405162461bcd60e51b81526020600482015260086024820152674f564552464c4f5760c01b604482015260640161040b565b60006115ac64010000000042611d87565b6003805463ffffffff8316600160e01b026001600160e01b036001600160701b03898116600160701b9081026001600160e01b03199095168c83161794909417918216831794859055604080519382169282169290921783529290930490911660208201529192507f1c411e9a96e071241c2f21f7726b17ae89e3cab4c78be50e062b03a9fffbbad1910160405180910390a15050505050565b6001600160a01b03821661168f5760405162461bcd60e51b815260206004820152601060248201526f5452414e534645525f544f5f5a45524f60801b604482015260640161040b565b6001600160a01b038316600090815260066020526040812080548392906116b7908490611cdc565b90915550506001600160a01b038216600090815260066020526040812080548392906116e4908490611d9b565b92505081905550816001600160a01b0316836001600160a01b03167fddf252ad1be2c89b69c2b068fc378daa952ba7f163c4a11628f55a4df523b3ef8360405161173091815260200190565b60405180910390a3505050565b6000805460408051622fcfcb60e31b8152905183926001600160a01b03169163017e7e589160048083019260209291908290030181865afa158015611786573d6000803e3d6000fd5b505050506040513d601f19601f820116820180604052508101906117aa9190611dae565b6004546001600160a01b03821615801594509192509061185b5780156118565760006117e5610b2d6001600160701b03808816908916611cef565b905060006117f28361186f565b9050808211156118535760006118088284611cdc565b6005546118159190611cef565b9050600082611825856005611cef565b61182f9190611d9b565b9050600061183d8284611d1c565b9050801561184f5761184f87826118df565b5050505b50505b611867565b80156118675760006004555b505092915050565b600060038211156118d05750806000611889600283611d1c565b611894906001611d9b565b90505b818110156118ca579050806002816118af8186611d1c565b6118b99190611d9b565b6118c39190611d1c565b9050611897565b50919050565b81156118da575060015b919050565b80600560008282546118f19190611d9b565b90915550506001600160a01b0382166000908152600660205260408120805483929061191e908490611d9b565b90915550506040518181526001600160a01b038316906000907fddf252ad1be2c89b69c2b068fc378daa952ba7f163c4a11628f55a4df523b3ef906020015b60405180910390a35050565b6000818310611978578161197a565b825b9392505050565b6001600160a01b038216600090815260066020526040812080548392906119a9908490611cdc565b9250508190555080600560008282546119c29190611cdc565b90915550506040518181526000906001600160a01b038416907fddf252ad1be2c89b69c2b068fc378daa952ba7f163c4a11628f55a4df523b3ef9060200161195d565b6001600160a01b03811681146110f057600080fd5b600080600080600060808688031215611a3257600080fd5b85359450602086013593506040860135611a4b81611a05565b9250606086013567ffffffffffffffff80821115611a6857600080fd5b818801915088601f830112611a7c57600080fd5b813581811115611a8b57600080fd5b896020828501011115611a9d57600080fd5b9699959850939650602001949392505050565b60005b83811015611acb578181015183820152602001611ab3565b50506000910152565b6020815260008251806020840152611af3816040850160208701611ab0565b601f01601f19169190910160400192915050565b60008060408385031215611b1a57600080fd5b8235611b2581611a05565b946020939093013593505050565b600080600060608486031215611b4857600080fd5b8335611b5381611a05565b92506020840135611b6381611a05565b929592945050506040919091013590565b60008060408385031215611b8757600080fd5b8235611b9281611a05565b91506020830135611ba281611a05565b809150509250929050565b600060208284031215611bbf57600080fd5b813561197a81611a05565b600080600080600080600060e0888a031215611be557600080fd5b8735611bf081611a05565b96506020880135611c0081611a05565b95506040880135945060608801359350608088013560ff81168114611c2457600080fd5b9699959850939692959460a0840135945060c09093013592915050565b6020808252600690820152651313d0d2d15160d21b604082015260600190565b60018060a01b038616815284602082015283604082015260806060820152816080820152818360a0830137600081830160a090810191909152601f909201601f19160101949350505050565b600060208284031215611cbf57600080fd5b5051919050565b634e487b7160e01b600052601160045260246000fd5b818103818111156108c4576108c4611cc6565b80820281158282048414176108c4576108c4611cc6565b634e487b7160e01b600052601260045260246000fd5b600082611d2b57611d2b611d06565b500490565b600060018201611d4257611d42611cc6565b5060010190565b60008251611d5b818460208701611ab0565b9190910192915050565b600060208284031215611d7757600080fd5b8151801515811461197a57600080fd5b600082611d9657611d96611d06565b500690565b808201808211156108c4576108c4611cc6565b600060208284031215611dc057600080fd5b815161197a81611a0556fea26469706673582212204d54c9866b08ee40fb2422a7859f68af6c81a74f7b586cae4886f839b18211d164736f6c63430008140033a26469706673582212206320bd1cec1532ad84228d41f37848f7d72ee25311b0330c9c5ccda0f21d184e64736f6c63430008140033",
  "linkReferences": {},
  "deployedLinkReferences": {}
}