{
  "_format": "hh-sol-artifact-1",
  "contractName": "MaliciousERC20",
  "sourceName": "contracts/mocks/MaliciousERC20.sol",
  "abi": [
    {
      "inputs": [
        {
          "internalType": "string",
          "name": "_name",
          "type": "string"
        },
        {
          "internalType": "string",
          "name": "_symbol",
          "type": "string"
        },
        {
          "internalType": "uint256",
          "name": "_initialSupply",
          "type": "uint256"
        }
      ],
      "stateMutability": "nonpayable",
      "type": "constructor"
    },
    {
      "anonymous": false,
      "inputs": [
        {
          "indexed": true,
          "internalType": "address",
          "name": "owner",
          "type": "address"
        },
        {
          "indexed": true,
          "internalType": "address",
          "name": "spender",
          "type": "address"
        },
        {
          "indexed": false,
          "internalType": "uint256",
          "name": "value",
          "type": "uint256"
        }
      ],
      "name": "Approval",
      "type": "event"
    },
    {
      "anonymous": false,
      "inputs": [
        {
          "indexed": true,
          "internalType": "address",
          "name": "from",
          "type": "address"
        },
        {
          "indexed": true,
          "internalType": "address",
          "name": "to",
          "type": "address"
        },
        {
          "indexed": false,
          "internalType": "uint256",
          "name": "value",
          "type": "uint256"
        }
      ],
      "name": "Transfer",
      "type": "event"
    },
    {
      "inputs": [
        {
          "internalType": "address",
          "name": "",
          "type": "address"
        },
        {
          "internalType": "address",
          "name": "",
          "type": "address"
        }
      ],
      "name": "allowance",
      "outputs": [
        {
          "internalType": "uint256",
          "name": "",
          "type": "uint256"
        }
      ],
      "stateMutability": "view",
      "type": "function"
    },
    {
      "inputs": [
        {
          "internalType": "address",
          "name": "spender",
          "type": "address"
        },
        {
          "internalType": "uint256",
          "name": "amount",
          "type": "uint256"
        }
      ],
      "name": "approve",
      "outputs": [
        {
          "internalType": "bool",
          "name": "",
          "type": "bool"
        }
      ],
      "stateMutability": "nonpayable",
      "type": "function"
    },
    {
      "inputs": [
        {
          "internalType": "address",
          "name": "",
          "type": "address"
        }
      ],
      "name": "balanceOf",
      "outputs": [
        {
          "internalType": "uint256",
          "name": "",
          "type": "uint256"
        }
      ],
      "stateMutability": "view",
      "type": "function"
    },
    {
      "inputs": [],
      "name": "decimals",
      "outputs": [
        {
          "internalType": "uint8",
          "name": "",
          "type": "uint8"
        }
      ],
      "stateMutability": "view",
      "type": "function"
    },
    {
      "inputs": [
        {
          "internalType": "bool",
          "name": "_enabled",
          "type": "bool"
        }
      ],
      "name": "enableReentrancy",
      "outputs": [],
      "stateMutability": "nonpayable",
      "type": "function"
    },
    {
      "inputs": [
        {
          "internalType": "address",
          "name": "to",
          "type": "address"
        },
        {
          "internalType": "uint256",
          "name": "amount",
          "type": "uint256"
        }
      ],
      "name": "mint",
      "outputs": [],
      "stateMutability": "nonpayable",
      "type": "function"
    },
    {
      "inputs": [],
      "name": "name",
      "outputs": [
        {
          "internalType": "string",
          "name": "",
          "type": "string"
        }
      ],
      "stateMutability": "view",
      "type": "function"
    },
    {
      "inputs": [],
      "name": "reentrancyEnabled",
      "outputs": [
        {
          "internalType": "bool",
          "name": "",
          "type": "bool"
        }
      ],
      "stateMutability": "view",
      "type": "function"
    },
    {
      "inputs": [],
      "name": "reentrancyFunction",
      "outputs": [
        {
          "internalType": "string",
          "name": "",
          "type": "string"
        }
      ],
      "stateMutability": "view",
      "type": "function"
    },
    {
      "inputs": [],
      "name": "reentrancyTarget",
      "outputs": [
        {
          "internalType": "address",
          "name": "",
          "type": "address"
        }
      ],
      "stateMutability": "view",
      "type": "function"
    },
    {
      "inputs": [
        {
          "internalType": "string",
          "name": "_function",
          "type": "string"
        }
      ],
      "name": "setReentrancyFunction",
      "outputs": [],
      "stateMutability": "nonpayable",
      "type": "function"
    },
    {
      "inputs": [
        {
          "internalType": "address",
          "name": "_target",
          "type": "address"
        }
      ],
      "name": "setReentrancyTarget",
      "outputs": [],
      "stateMutability": "nonpayable",
      "type": "function"
    },
    {
      "inputs": [],
      "name": "symbol",
      "outputs": [
        {
          "internalType": "string",
          "name": "",
          "type": "string"
        }
      ],
      "stateMutability": "view",
      "type": "function"
    },
    {
      "inputs": [],
      "name": "totalSupply",
      "outputs": [
        {
          "internalType": "uint256",
          "name": "",
          "type": "uint256"
        }
      ],
      "stateMutability": "view",
      "type": "function"
    },
    {
      "inputs": [
        {
          "internalType": "address",
          "name": "to",
          "type": "address"
        },
        {
          "internalType": "uint256",
          "name": "amount",
          "type": "uint256"
        }
      ],
      "name": "transfer",
      "outputs": [
        {
          "internalType": "bool",
          "name": "",
          "type": "bool"
        }
      ],
      "stateMutability": "nonpayable",
      "type": "function"
    },
    {
      "inputs": [
        {
          "internalType": "address",
          "name": "from",
          "type": "address"
        },
        {
          "internalType": "address",
          "name": "to",
          "type": "address"
        },
        {
          "internalType": "uint256",
          "name": "amount",
          "type": "uint256"
        }
      ],
      "name": "transferFrom",
      "outputs": [
        {
          "internalType": "bool",
          "name": "",
          "type": "bool"
        }
      ],
      "stateMutability": "nonpayable",
      "type": "function"
    }
  ],
  "bytecode": "0x60c060405260046080908152630737761760e41b60a052600690620000259082620001bb565b503480156200003357600080fd5b5060405162000e8538038062000e85833981016040819052620000569162000336565b6000620000648482620001bb565b506001620000738382620001bb565b5062000080338262000089565b505050620003d1565b80600260008282546200009d9190620003a9565b90915550506001600160a01b03821660009081526003602052604081208054839290620000cc908490620003a9565b90915550506040518181526001600160a01b038316906000907fddf252ad1be2c89b69c2b068fc378daa952ba7f163c4a11628f55a4df523b3ef9060200160405180910390a35050565b634e487b7160e01b600052604160045260246000fd5b600181811c908216806200014157607f821691505b6020821081036200016257634e487b7160e01b600052602260045260246000fd5b50919050565b601f821115620001b657600081815260208120601f850160051c81016020861015620001915750805b601f850160051c820191505b81811015620001b2578281556001016200019d565b5050505b505050565b81516001600160401b03811115620001d757620001d762000116565b620001ef81620001e884546200012c565b8462000168565b602080601f8311600181146200022757600084156200020e5750858301515b600019600386901b1c1916600185901b178555620001b2565b600085815260208120601f198616915b82811015620002585788860151825594840194600190910190840162000237565b5085821015620002775787850151600019600388901b60f8161c191681555b5050505050600190811b01905550565b600082601f8301126200029957600080fd5b81516001600160401b0380821115620002b657620002b662000116565b604051601f8301601f19908116603f01168101908282118183101715620002e157620002e162000116565b81604052838152602092508683858801011115620002fe57600080fd5b600091505b8382101562000322578582018301518183018401529082019062000303565b600093810190920192909252949350505050565b6000806000606084860312156200034c57600080fd5b83516001600160401b03808211156200036457600080fd5b620003728783880162000287565b945060208601519150808211156200038957600080fd5b50620003988682870162000287565b925050604084015190509250925092565b80820180821115620003cb57634e487b7160e01b600052601160045260246000fd5b92915050565b610aa480620003e16000396000f3fe608060405234801561001057600080fd5b50600436106101005760003560e01c80637fc3f73611610097578063b90c821411610066578063b90c821414610233578063cf22dff71461025e578063dd62ed3e1461026b578063eae382921461029657600080fd5b80637fc3f736146101c757806395d89b41146101f7578063981faa13146101ff578063a9059cbb1461022057600080fd5b8063313ce567116100d3578063313ce5671461017057806339ec4c0f1461018a57806340c10f191461019257806370a08231146101a757600080fd5b806306fdde0314610105578063095ea7b31461012357806318160ddd1461014657806323b872dd1461015d575b600080fd5b61010d6102a9565b60405161011a91906106db565b60405180910390f35b610136610131366004610745565b610337565b604051901515815260200161011a565b61014f60025481565b60405190815260200161011a565b61013661016b36600461076f565b6103a4565b610178601281565b60405160ff909116815260200161011a565b61010d6104e5565b6101a56101a0366004610745565b6104f2565b005b61014f6101b53660046107ab565b60036020526000908152604090205481565b6101a56101d53660046107ab565b600580546001600160a01b0319166001600160a01b0392909216919091179055565b61010d610500565b6101a561020d3660046107cd565b6007805460ff1916911515919091179055565b61013661022e366004610745565b61050d565b600554610246906001600160a01b031681565b6040516001600160a01b03909116815260200161011a565b6007546101369060ff1681565b61014f6102793660046107ef565b600460209081526000928352604080842090915290825290205481565b6101a56102a4366004610838565b6105d2565b600080546102b6906108e9565b80601f01602080910402602001604051908101604052809291908181526020018280546102e2906108e9565b801561032f5780601f106103045761010080835404028352916020019161032f565b820191906000526020600020905b81548152906001019060200180831161031257829003601f168201915b505050505081565b3360008181526004602090815260408083206001600160a01b038716808552925280832085905551919290917f8c5be1e5ebec7d5bd14f71427d1e84f3dd0314c0f7b2291e5b200ac8c7c3b925906103929086815260200190565b60405180910390a35060015b92915050565b6001600160a01b038316600090815260046020908152604080832033845290915281205460001914610409576001600160a01b038416600090815260046020908152604080832033845290915281208054849290610403908490610939565b90915550505b6001600160a01b03841660009081526003602052604081208054849290610431908490610939565b90915550506001600160a01b0383166000908152600360205260408120805484929061045e90849061094c565b92505081905550826001600160a01b0316846001600160a01b03167fddf252ad1be2c89b69c2b068fc378daa952ba7f163c4a11628f55a4df523b3ef846040516104aa91815260200190565b60405180910390a360075460ff1680156104ce57506005546001600160a01b031615155b156104db576104db6105de565b5060019392505050565b600680546102b6906108e9565b6104fc8282610652565b5050565b600180546102b6906108e9565b3360009081526003602052604081208054839190839061052e908490610939565b90915550506001600160a01b0383166000908152600360205260408120805484929061055b90849061094c565b90915550506040518281526001600160a01b0384169033907fddf252ad1be2c89b69c2b068fc378daa952ba7f163c4a11628f55a4df523b3ef9060200160405180910390a360075460ff1680156105bc57506005546001600160a01b031615155b156105c9576105c96105de565b50600192915050565b60066104fc82826109ae565b60055460405163022c0d9f60e01b8152600060048201819052600160248301523060448301526080606483015260848201526001600160a01b0390911690819063022c0d9f9060a401600060405180830381600087803b15801561064157600080fd5b505af19250505080156104fc575050565b8060026000828254610664919061094c565b90915550506001600160a01b0382166000908152600360205260408120805483929061069190849061094c565b90915550506040518181526001600160a01b038316906000907fddf252ad1be2c89b69c2b068fc378daa952ba7f163c4a11628f55a4df523b3ef9060200160405180910390a35050565b600060208083528351808285015260005b81811015610708578581018301518582016040015282016106ec565b506000604082860101526040601f19601f8301168501019250505092915050565b80356001600160a01b038116811461074057600080fd5b919050565b6000806040838503121561075857600080fd5b61076183610729565b946020939093013593505050565b60008060006060848603121561078457600080fd5b61078d84610729565b925061079b60208501610729565b9150604084013590509250925092565b6000602082840312156107bd57600080fd5b6107c682610729565b9392505050565b6000602082840312156107df57600080fd5b813580151581146107c657600080fd5b6000806040838503121561080257600080fd5b61080b83610729565b915061081960208401610729565b90509250929050565b634e487b7160e01b600052604160045260246000fd5b60006020828403121561084a57600080fd5b813567ffffffffffffffff8082111561086257600080fd5b818401915084601f83011261087657600080fd5b81358181111561088857610888610822565b604051601f8201601f19908116603f011681019083821181831017156108b0576108b0610822565b816040528281528760208487010111156108c957600080fd5b826020860160208301376000928101602001929092525095945050505050565b600181811c908216806108fd57607f821691505b60208210810361091d57634e487b7160e01b600052602260045260246000fd5b50919050565b634e487b7160e01b600052601160045260246000fd5b8181038181111561039e5761039e610923565b8082018082111561039e5761039e610923565b601f8211156109a957600081815260208120601f850160051c810160208610156109865750805b601f850160051c820191505b818110156109a557828155600101610992565b5050505b505050565b815167ffffffffffffffff8111156109c8576109c8610822565b6109dc816109d684546108e9565b8461095f565b602080601f831160018114610a1157600084156109f95750858301515b600019600386901b1c1916600185901b1785556109a5565b600085815260208120601f198616915b82811015610a4057888601518255948401946001909101908401610a21565b5085821015610a5e5787850151600019600388901b60f8161c191681555b5050505050600190811b0190555056fea26469706673582212207d671423fa01f9edc62fe86640edc7c0926e27f575e2fa84df0baab8dfdfad9464736f6c63430008140033",
  "linkReferences": {},
  "deployedLinkReferences": {}
}