{
  "_format": "hh-sol-artifact-1",
  "contractName": "FlashLoanAttacker",
  "sourceName": "contracts/mocks/FlashLoanAttacker.sol",
  "abi": [
    {
      "inputs": [
        {
          "internalType": "address",
          "name": "_pair",
          "type": "address"
        }
      ],
      "stateMutability": "nonpayable",
      "type": "constructor"
    },
    {
      "inputs": [
        {
          "internalType": "uint256",
          "name": "amount",
          "type": "uint256"
        }
      ],
      "name": "attack",
      "outputs": [],
      "stateMutability": "nonpayable",
      "type": "function"
    },
    {
      "inputs": [],
      "name": "attacking",
      "outputs": [
        {
          "internalType": "bool",
          "name": "",
          "type": "bool"
        }
      ],
      "stateMutability": "view",
      "type": "function"
    },
    {
      "inputs": [],
      "name": "pair",
      "outputs": [
        {
          "internalType": "address",
          "name": "",
          "type": "address"
        }
      ],
      "stateMutability": "view",
      "type": "function"
    },
    {
      "inputs": [
        {
          "internalType": "address",
          "name": "sender",
          "type": "address"
        },
        {
          "internalType": "uint256",
          "name": "amount0",
          "type": "uint256"
        },
        {
          "internalType": "uint256",
          "name": "amount1",
          "type": "uint256"
        },
        {
          "internalType": "bytes",
          "name": "data",
          "type": "bytes"
        }
      ],
      "name": "silverbackV2Call",
      "outputs": [],
      "stateMutability": "nonpayable",
      "type": "function"
    }
  ],
  "bytecode": "0x608060405234801561001057600080fd5b5060405161068c38038061068c83398101604081905261002f91610054565b600080546001600160a01b0319166001600160a01b0392909216919091179055610084565b60006020828403121561006657600080fd5b81516001600160a01b038116811461007d57600080fd5b9392505050565b6105f9806100936000396000f3fe608060405234801561001057600080fd5b506004361061004c5760003560e01c80633c0bbcd91461005157806364dd891a1461007a578063a8aa1b311461008f578063e0c54932146100ba575b600080fd5b60005461006590600160a01b900460ff1681565b60405190151581526020015b60405180910390f35b61008d6100883660046103fd565b6100cd565b005b6000546100a2906001600160a01b031681565b6040516001600160a01b039091168152602001610071565b61008d6100c836600461042e565b610162565b6000805460ff60a01b198116600160a01b178255604080516020808201869052825180830390910181528183019283905263022c0d9f60e01b9092526001600160a01b039092169263022c0d9f9261012d928692913091906044016104c4565b600060405180830381600087803b15801561014757600080fd5b505af115801561015b573d6000803e3d6000fd5b5050505050565b6000546001600160a01b031633146101b05760405162461bcd60e51b815260206004820152600c60248201526b15539055551213d49256915160a21b60448201526064015b60405180910390fd5b600054600160a01b900460ff166101f95760405162461bcd60e51b815260206004820152600d60248201526c4e4f545f41545441434b494e4760981b60448201526064016101a7565b6000546001600160a01b031663022c0d9f610215600287610530565b6040516001600160e01b031960e084901b168152600481019190915260006024820181905230604483015260806064830152608482015260a401600060405180830381600087803b15801561026957600080fd5b505af192505050801561027a575060015b156102c75760405162461bcd60e51b815260206004820152601860248201527f5245454e5452414e43595f4e4f545f50524556454e544544000000000000000060448201526064016101a7565b60008060009054906101000a90046001600160a01b03166001600160a01b0316630dfe16816040518163ffffffff1660e01b8152600401602060405180830381865afa15801561031b573d6000803e3d6000fd5b505050506040513d601f19601f8201168201806040525081019061033f9190610552565b9050600061034f838501856103fd565b905060006103e8610362836103ec610576565b61036c9190610530565b60005460405163a9059cbb60e01b81526001600160a01b0391821660048201526024810183905291925084169063a9059cbb906044016020604051808303816000875af11580156103c1573d6000803e3d6000fd5b505050506040513d601f19601f820116820180604052508101906103e591906105a1565b50506000805460ff60a01b1916905550505050505050565b60006020828403121561040f57600080fd5b5035919050565b6001600160a01b038116811461042b57600080fd5b50565b60008060008060006080868803121561044657600080fd5b853561045181610416565b94506020860135935060408601359250606086013567ffffffffffffffff8082111561047c57600080fd5b818801915088601f83011261049057600080fd5b81358181111561049f57600080fd5b8960208285010111156104b157600080fd5b9699959850939650602001949392505050565b84815260006020858184015260018060a01b038516604084015260806060840152835180608085015260005b8181101561050c5785810183015185820160a0015282016104f0565b50600060a0828601015260a0601f19601f8301168501019250505095945050505050565b60008261054d57634e487b7160e01b600052601260045260246000fd5b500490565b60006020828403121561056457600080fd5b815161056f81610416565b9392505050565b808202811582820484141761059b57634e487b7160e01b600052601160045260246000fd5b92915050565b6000602082840312156105b357600080fd5b8151801515811461056f57600080fdfea2646970667358221220b6b3c881332fe76d220776e3023fd61f8a83ecd32d32b5f088521cf71c8ba70964736f6c63430008140033",
  "linkReferences": {},
  "deployedLinkReferences": {}
}