{
  "_format": "hh-sol-artifact-1",
  "contractName": "MockTaxToken",
  "sourceName": "contracts/mocks/MockTaxToken.sol",
  "abi": [
    {
      "inputs": [
        {
          "internalType": "string",
          "name": "_name",
          "type": "string"
        },
        {
          "internalType": "string",
          "name": "_symbol",
          "type": "string"
        },
        {
          "internalType": "uint256",
          "name": "_initialSupply",
          "type": "uint256"
        },
        {
          "internalType": "uint256",
          "name": "_buyTaxBps",
          "type": "uint256"
        },
        {
          "internalType": "uint256",
          "name": "_sellTaxBps",
          "type": "uint256"
        },
        {
          "internalType": "uint256",
          "name": "_transferTaxBps",
          "type": "uint256"
        },
        {
          "internalType": "address",
          "name": "_router",
          "type": "address"
        },
        {
          "internalType": "address",
          "name": "_weth",
          "type": "address"
        }
      ],
      "stateMutability": "nonpayable",
      "type": "constructor"
    },
    {
      "anonymous": false,
      "inputs": [
        {
          "indexed": true,
          "internalType": "address",
          "name": "owner",
          "type": "address"
        },
        {
          "indexed": true,
          "internalType": "address",
          "name": "spender",
          "type": "address"
        },
        {
          "indexed": false,
          "internalType": "uint256",
          "name": "value",
          "type": "uint256"
        }
      ],
      "name": "Approval",
      "type": "event"
    },
    {
      "anonymous": false,
      "inputs": [
        {
          "indexed": false,
          "internalType": "uint256",
          "name": "tokensSwapped",
          "type": "uint256"
        },
        {
          "indexed": false,
          "internalType": "uint256",
          "name": "ethReceived",
          "type": "uint256"
        }
      ],
      "name": "SwapBack",
      "type": "event"
    },
    {
      "anonymous": false,
      "inputs": [
        {
          "indexed": true,
          "internalType": "address",
          "name": "from",
          "type": "address"
        },
        {
          "indexed": true,
          "internalType": "address",
          "name": "to",
          "type": "address"
        },
        {
          "indexed": false,
          "internalType": "uint256",
          "name": "amount",
          "type": "uint256"
        },
        {
          "indexed": false,
          "internalType": "uint256",
          "name": "tax",
          "type": "uint256"
        }
      ],
      "name": "TaxCollected",
      "type": "event"
    },
    {
      "anonymous": false,
      "inputs": [
        {
          "indexed": true,
          "internalType": "address",
          "name": "from",
          "type": "address"
        },
        {
          "indexed": true,
          "internalType": "address",
          "name": "to",
          "type": "address"
        },
        {
          "indexed": false,
          "internalType": "uint256",
          "name": "value",
          "type": "uint256"
        }
      ],
      "name": "Transfer",
      "type": "event"
    },
    {
      "inputs": [],
      "name": "WETH",
      "outputs": [
        {
          "internalType": "address",
          "name": "",
          "type": "address"
        }
      ],
      "stateMutability": "view",
      "type": "function"
    },
    {
      "inputs": [
        {
          "internalType": "address",
          "name": "",
          "type": "address"
        },
        {
          "internalType": "address",
          "name": "",
          "type": "address"
        }
      ],
      "name": "allowance",
      "outputs": [
        {
          "internalType": "uint256",
          "name": "",
          "type": "uint256"
        }
      ],
      "stateMutability": "view",
      "type": "function"
    },
    {
      "inputs": [
        {
          "internalType": "address",
          "name": "spender",
          "type": "address"
        },
        {
          "internalType": "uint256",
          "name": "amount",
          "type": "uint256"
        }
      ],
      "name": "approve",
      "outputs": [
        {
          "internalType": "bool",
          "name": "",
          "type": "bool"
        }
      ],
      "stateMutability": "nonpayable",
      "type": "function"
    },
    {
      "inputs": [
        {
          "internalType": "address",
          "name": "",
          "type": "address"
        }
      ],
      "name": "balanceOf",
      "outputs": [
        {
          "internalType": "uint256",
          "name": "",
          "type": "uint256"
        }
      ],
      "stateMutability": "view",
      "type": "function"
    },
    {
      "inputs": [],
      "name": "buyTaxBps",
      "outputs": [
        {
          "internalType": "uint256",
          "name": "",
          "type": "uint256"
        }
      ],
      "stateMutability": "view",
      "type": "function"
    },
    {
      "inputs": [],
      "name": "decimals",
      "outputs": [
        {
          "internalType": "uint8",
          "name": "",
          "type": "uint8"
        }
      ],
      "stateMutability": "view",
      "type": "function"
    },
    {
      "inputs": [
        {
          "internalType": "address",
          "name": "",
          "type": "address"
        }
      ],
      "name": "isExcludedFromTax",
      "outputs": [
        {
          "internalType": "bool",
          "name": "",
          "type": "bool"
        }
      ],
      "stateMutability": "view",
      "type": "function"
    },
    {
      "inputs": [
        {
          "internalType": "address",
          "name": "",
          "type": "address"
        }
      ],
      "name": "isPair",
      "outputs": [
        {
          "internalType": "bool",
          "name": "",
          "type": "bool"
        }
      ],
      "stateMutability": "view",
      "type": "function"
    },
    {
      "inputs": [],
      "name": "manualSwapBack",
      "outputs": [],
      "stateMutability": "nonpayable",
      "type": "function"
    },
    {
      "inputs": [
        {
          "internalType": "address",
          "name": "to",
          "type": "address"
        },
        {
          "internalType": "uint256",
          "name": "amount",
          "type": "uint256"
        }
      ],
      "name": "mint",
      "outputs": [],
      "stateMutability": "nonpayable",
      "type": "function"
    },
    {
      "inputs": [],
      "name": "name",
      "outputs": [
        {
          "internalType": "string",
          "name": "",
          "type": "string"
        }
      ],
      "stateMutability": "view",
      "type": "function"
    },
    {
      "inputs": [],
      "name": "owner",
      "outputs": [
        {
          "internalType": "address",
          "name": "",
          "type": "address"
        }
      ],
      "stateMutability": "view",
      "type": "function"
    },
    {
      "inputs": [],
      "name": "router",
      "outputs": [
        {
          "internalType": "address",
          "name": "",
          "type": "address"
        }
      ],
      "stateMutability": "view",
      "type": "function"
    },
    {
      "inputs": [],
      "name": "sellTaxBps",
      "outputs": [
        {
          "internalType": "uint256",
          "name": "",
          "type": "uint256"
        }
      ],
      "stateMutability": "view",
      "type": "function"
    },
    {
      "inputs": [
        {
          "internalType": "address",
          "name": "pair",
          "type": "address"
        },
        {
          "internalType": "bool",
          "name": "status",
          "type": "bool"
        }
      ],
      "name": "setPair",
      "outputs": [],
      "stateMutability": "nonpayable",
      "type": "function"
    },
    {
      "inputs": [
        {
          "internalType": "uint256",
          "name": "_swapThreshold",
          "type": "uint256"
        }
      ],
      "name": "setSwapThreshold",
      "outputs": [],
      "stateMutability": "nonpayable",
      "type": "function"
    },
    {
      "inputs": [
        {
          "internalType": "address",
          "name": "account",
          "type": "address"
        },
        {
          "internalType": "bool",
          "name": "excluded",
          "type": "bool"
        }
      ],
      "name": "setTaxExclusion",
      "outputs": [],
      "stateMutability": "nonpayable",
      "type": "function"
    },
    {
      "inputs": [
        {
          "internalType": "address",
          "name": "_taxRecipient",
          "type": "address"
        }
      ],
      "name": "setTaxRecipient",
      "outputs": [],
      "stateMutability": "nonpayable",
      "type": "function"
    },
    {
      "inputs": [
        {
          "internalType": "uint256",
          "name": "_buyTaxBps",
          "type": "uint256"
        },
        {
          "internalType": "uint256",
          "name": "_sellTaxBps",
          "type": "uint256"
        },
        {
          "internalType": "uint256",
          "name": "_transferTaxBps",
          "type": "uint256"
        }
      ],
      "name": "setTaxes",
      "outputs": [],
      "stateMutability": "nonpayable",
      "type": "function"
    },
    {
      "inputs": [],
      "name": "swapThreshold",
      "outputs": [
        {
          "internalType": "uint256",
          "name": "",
          "type": "uint256"
        }
      ],
      "stateMutability": "view",
      "type": "function"
    },
    {
      "inputs": [],
      "name": "symbol",
      "outputs": [
        {
          "internalType": "string",
          "name": "",
          "type": "string"
        }
      ],
      "stateMutability": "view",
      "type": "function"
    },
    {
      "inputs": [],
      "name": "taxRecipient",
      "outputs": [
        {
          "internalType": "address",
          "name": "",
          "type": "address"
        }
      ],
      "stateMutability": "view",
      "type": "function"
    },
    {
      "inputs": [],
      "name": "totalSupply",
      "outputs": [
        {
          "internalType": "uint256",
          "name": "",
          "type": "uint256"
        }
      ],
      "stateMutability": "view",
      "type": "function"
    },
    {
      "inputs": [
        {
          "internalType": "address",
          "name": "to",
          "type": "address"
        },
        {
          "internalType": "uint256",
          "name": "amount",
          "type": "uint256"
        }
      ],
      "name": "transfer",
      "outputs": [
        {
          "internalType": "bool",
          "name": "",
          "type": "bool"
        }
      ],
      "stateMutability": "nonpayable",
      "type": "function"
    },
    {
      "inputs": [
        {
          "internalType": "address",
          "name": "from",
          "type": "address"
        },
        {
          "internalType": "address",
          "name": "to",
          "type": "address"
        },
        {
          "internalType": "uint256",
          "name": "amount",
          "type": "uint256"
        }
      ],
      "name": "transferFrom",
      "outputs": [
        {
          "internalType": "bool",
          "name": "",
          "type": "bool"
        }
      ],
      "stateMutability": "nonpayable",
      "type": "function"
    },
    {
      "inputs": [],
      "name": "transferTaxBps",
      "outputs": [
        {
          "internalType": "uint256",
          "name": "",
          "type": "uint256"
        }
      ],
      "stateMutability": "view",
      "type": "function"
    },
    {
      "stateMutability": "payable",
      "type": "receive"
    }
  ],
  "bytecode": "0x60806040523480156200001157600080fd5b506040516200180938038062001809833981016040819052620000349162000271565b6000620000428982620003b6565b506001620000518882620003b6565b5060078054336001600160a01b031991821681179092556008805482169092179091556009805482166001600160a01b0385811691909117909155600a8054909216908316179055600b859055600c849055600d839055620000b560648762000482565b600e55336000818152600560205260408082208054600160ff1991821681179092553084529190922080549091169091179055620000f4908762000102565b5050505050505050620004cd565b8060026000828254620001169190620004a5565b90915550506001600160a01b0382166000908152600360205260408120805483929062000145908490620004a5565b90915550506040518181526001600160a01b038316906000907fddf252ad1be2c89b69c2b068fc378daa952ba7f163c4a11628f55a4df523b3ef9060200160405180910390a35050565b634e487b7160e01b600052604160045260246000fd5b600082601f830112620001b757600080fd5b81516001600160401b0380821115620001d457620001d46200018f565b604051601f8301601f19908116603f01168101908282118183101715620001ff57620001ff6200018f565b816040528381526020925086838588010111156200021c57600080fd5b600091505b8382101562000240578582018301518183018401529082019062000221565b600093810190920192909252949350505050565b80516001600160a01b03811681146200026c57600080fd5b919050565b600080600080600080600080610100898b0312156200028f57600080fd5b88516001600160401b0380821115620002a757600080fd5b620002b58c838d01620001a5565b995060208b0151915080821115620002cc57600080fd5b50620002db8b828c01620001a5565b97505060408901519550606089015194506080890151935060a089015192506200030860c08a0162000254565b91506200031860e08a0162000254565b90509295985092959890939650565b600181811c908216806200033c57607f821691505b6020821081036200035d57634e487b7160e01b600052602260045260246000fd5b50919050565b601f821115620003b157600081815260208120601f850160051c810160208610156200038c5750805b601f850160051c820191505b81811015620003ad5782815560010162000398565b5050505b505050565b81516001600160401b03811115620003d257620003d26200018f565b620003ea81620003e3845462000327565b8462000363565b602080601f831160018114620004225760008415620004095750858301515b600019600386901b1c1916600185901b178555620003ad565b600085815260208120601f198616915b82811015620004535788860151825594840194600190910190840162000432565b5085821015620004725787850151600019600388901b60f8161c191681555b5050505050600190811b01905550565b600082620004a057634e487b7160e01b600052601260045260246000fd5b500490565b80820180821115620004c757634e487b7160e01b600052601160045260246000fd5b92915050565b61132c80620004dd6000396000f3fe6080604052600436106101855760003560e01c80638da5cb5b116100d1578063c4e483981161008a578063dd62ed3e11610064578063dd62ed3e1461046c578063e5e31b13146104a4578063e9dae5ed146104d4578063f887ea40146104f457600080fd5b8063c4e4839814610410578063cb4ca63114610426578063cffd129c1461045657600080fd5b80638da5cb5b1461036557806395d89b41146103855780639d0014b11461039a578063a9059cbb146103ba578063ad5c4648146103da578063c473413a146103fa57600080fd5b8063313ce5671161013e57806370a082311161011857806370a08231146102c0578063737ea06e146102ed57806378e3079e1461032557806386a22eff1461034557600080fd5b8063313ce5671461026457806340c10f191461028b57806366eb3785146102ab57600080fd5b80630445b6671461019157806306fdde03146101ba578063095ea7b3146101dc57806318160ddd1461020c57806318d498611461022257806323b872dd1461024457600080fd5b3661018c57005b600080fd5b34801561019d57600080fd5b506101a7600e5481565b6040519081526020015b60405180910390f35b3480156101c657600080fd5b506101cf610514565b6040516101b19190610f01565b3480156101e857600080fd5b506101fc6101f7366004610f6b565b6105a2565b60405190151581526020016101b1565b34801561021857600080fd5b506101a760025481565b34801561022e57600080fd5b5061024261023d366004610f95565b61060f565b005b34801561025057600080fd5b506101fc61025f366004610fd1565b61066d565b34801561027057600080fd5b50610279601281565b60405160ff90911681526020016101b1565b34801561029757600080fd5b506102426102a6366004610f6b565b6106e7565b3480156102b757600080fd5b5061024261071f565b3480156102cc57600080fd5b506101a76102db36600461100d565b60036020526000908152604090205481565b3480156102f957600080fd5b5060085461030d906001600160a01b031681565b6040516001600160a01b0390911681526020016101b1565b34801561033157600080fd5b5061024261034036600461100d565b610753565b34801561035157600080fd5b50610242610360366004610f95565b61079f565b34801561037157600080fd5b5060075461030d906001600160a01b031681565b34801561039157600080fd5b506101cf6107f4565b3480156103a657600080fd5b506102426103b536600461102f565b610801565b3480156103c657600080fd5b506101fc6103d5366004610f6b565b610830565b3480156103e657600080fd5b50600a5461030d906001600160a01b031681565b34801561040657600080fd5b506101a7600b5481565b34801561041c57600080fd5b506101a7600d5481565b34801561043257600080fd5b506101fc61044136600461100d565b60056020526000908152604090205460ff1681565b34801561046257600080fd5b506101a7600c5481565b34801561047857600080fd5b506101a7610487366004611048565b600460209081526000928352604080842090915290825290205481565b3480156104b057600080fd5b506101fc6104bf36600461100d565b60066020526000908152604090205460ff1681565b3480156104e057600080fd5b506102426104ef36600461107b565b610846565b34801561050057600080fd5b5060095461030d906001600160a01b031681565b60008054610521906110a7565b80601f016020809104026020016040519081016040528092919081815260200182805461054d906110a7565b801561059a5780601f1061056f5761010080835404028352916020019161059a565b820191906000526020600020905b81548152906001019060200180831161057d57829003601f168201915b505050505081565b3360008181526004602090815260408083206001600160a01b038716808552925280832085905551919290917f8c5be1e5ebec7d5bd14f71427d1e84f3dd0314c0f7b2291e5b200ac8c7c3b925906105fd9086815260200190565b60405180910390a35060015b92915050565b6007546001600160a01b031633146106425760405162461bcd60e51b8152600401610639906110e1565b60405180910390fd5b6001600160a01b03919091166000908152600560205260409020805460ff1916911515919091179055565b6001600160a01b0383166000908152600460209081526040808320338452909152812054600019146106d2576001600160a01b0384166000908152600460209081526040808320338452909152812080548492906106cc90849061111b565b90915550505b6106dd8484846108e4565b5060019392505050565b6007546001600160a01b031633146107115760405162461bcd60e51b8152600401610639906110e1565b61071b8282610c37565b5050565b6007546001600160a01b031633146107495760405162461bcd60e51b8152600401610639906110e1565b610751610cc0565b565b6007546001600160a01b0316331461077d5760405162461bcd60e51b8152600401610639906110e1565b600880546001600160a01b0319166001600160a01b0392909216919091179055565b6007546001600160a01b031633146107c95760405162461bcd60e51b8152600401610639906110e1565b6001600160a01b03919091166000908152600660205260409020805460ff1916911515919091179055565b60018054610521906110a7565b6007546001600160a01b0316331461082b5760405162461bcd60e51b8152600401610639906110e1565b600e55565b600061083d3384846108e4565b50600192915050565b6007546001600160a01b031633146108705760405162461bcd60e51b8152600401610639906110e1565b6109c48311156108925760405162461bcd60e51b81526004016106399061112e565b6109c48211156108b45760405162461bcd60e51b81526004016106399061112e565b6109c48111156108d65760405162461bcd60e51b81526004016106399061112e565b600b92909255600c55600d55565b6001600160a01b0383166000908152600360205260409020548111156109435760405162461bcd60e51b8152602060048201526014602482015273494e53554646494349454e545f42414c414e434560601b6044820152606401610639565b600f5460009060ff1615801561097257506001600160a01b03841660009081526006602052604090205460ff16155b801561098f5750600e543060009081526003602052604090205410155b80156109a557506009546001600160a01b031615155b905080156109b5576109b5610cc0565b600f54600090839060ff161580156109e657506001600160a01b03861660009081526005602052604090205460ff16155b8015610a0b57506001600160a01b03851660009081526005602052604090205460ff16155b15610ad4576001600160a01b03861660009081526006602052604090205460ff168015610a3a57506000600b54115b15610a6157612710600b5485610a50919061114f565b610a5a9190611166565b9150610ac7565b6001600160a01b03851660009081526006602052604090205460ff168015610a8b57506000600c54115b15610aa157612710600c5485610a50919061114f565b600d5415610ac757612710600d5485610aba919061114f565b610ac49190611166565b91505b610ad1828561111b565b90505b6001600160a01b03861660009081526003602052604081208054869290610afc90849061111b565b90915550506001600160a01b03851660009081526003602052604081208054839290610b29908490611188565b90915550508115610be2573060009081526003602052604081208054849290610b53908490611188565b909155505060408051858152602081018490526001600160a01b0380881692908916917fddb30886d90db45adc1b2edcbabe12227896c25143cd155d3bf62ec8eff67856910160405180910390a360405182815230906001600160a01b038816907fddf252ad1be2c89b69c2b068fc378daa952ba7f163c4a11628f55a4df523b3ef9060200160405180910390a35b846001600160a01b0316866001600160a01b03167fddf252ad1be2c89b69c2b068fc378daa952ba7f163c4a11628f55a4df523b3ef83604051610c2791815260200190565b60405180910390a3505050505050565b8060026000828254610c499190611188565b90915550506001600160a01b03821660009081526003602052604081208054839290610c76908490611188565b90915550506040518181526001600160a01b038316906000907fddf252ad1be2c89b69c2b068fc378daa952ba7f163c4a11628f55a4df523b3ef9060200160405180910390a35050565b600f805460ff191660011790553060009081526003602052604081205490819003610ceb5750610ef5565b3060009081526004602090815260408083206009546001600160a01b031684528252808320849055805160028082526060820183529092909190830190803683370190505090503081600081518110610d4657610d466111b1565b6001600160a01b039283166020918202929092010152600a54825191169082906001908110610d7757610d776111b1565b6001600160a01b0392831660209182029290920101526009546040516318cbafe560e01b8152479291909116906318cbafe590610dc19086906000908790309042906004016111c7565b6000604051808303816000875af1925050508015610e0157506040513d6000823e601f3d908101601f19168201604052610dfe9190810190611238565b60015b15610ef157506000610e13824761111b565b90508015610eef576008546040516000916001600160a01b03169083908381818185875af1925050503d8060008114610e68576040519150601f19603f3d011682016040523d82523d6000602084013e610e6d565b606091505b5050905080610eb45760405162461bcd60e51b815260206004820152601360248201527211551217d514905394d1915497d19052531151606a1b6044820152606401610639565b60408051868152602081018490527f05ab84b321981d7d9a13402e494604c50821bcb5f2400d128fa06cd6451113d4910160405180910390a1505b505b5050505b600f805460ff19169055565b600060208083528351808285015260005b81811015610f2e57858101830151858201604001528201610f12565b506000604082860101526040601f19601f8301168501019250505092915050565b80356001600160a01b0381168114610f6657600080fd5b919050565b60008060408385031215610f7e57600080fd5b610f8783610f4f565b946020939093013593505050565b60008060408385031215610fa857600080fd5b610fb183610f4f565b915060208301358015158114610fc657600080fd5b809150509250929050565b600080600060608486031215610fe657600080fd5b610fef84610f4f565b9250610ffd60208501610f4f565b9150604084013590509250925092565b60006020828403121561101f57600080fd5b61102882610f4f565b9392505050565b60006020828403121561104157600080fd5b5035919050565b6000806040838503121561105b57600080fd5b61106483610f4f565b915061107260208401610f4f565b90509250929050565b60008060006060848603121561109057600080fd5b505081359360208301359350604090920135919050565b600181811c908216806110bb57607f821691505b6020821081036110db57634e487b7160e01b600052602260045260246000fd5b50919050565b6020808252600a908201526927a7262cafa7aba722a960b11b604082015260600190565b634e487b7160e01b600052601160045260246000fd5b8181038181111561060957610609611105565b6020808252600790820152664d41585f32352560c81b604082015260600190565b808202811582820484141761060957610609611105565b60008261118357634e487b7160e01b600052601260045260246000fd5b500490565b8082018082111561060957610609611105565b634e487b7160e01b600052604160045260246000fd5b634e487b7160e01b600052603260045260246000fd5b600060a082018783526020878185015260a0604085015281875180845260c086019150828901935060005b818110156112175784516001600160a01b0316835293830193918301916001016111f2565b50506001600160a01b03969096166060850152505050608001529392505050565b6000602080838503121561124b57600080fd5b825167ffffffffffffffff8082111561126357600080fd5b818501915085601f83011261127757600080fd5b8151818111156112895761128961119b565b8060051b604051601f19603f830116810181811085821117156112ae576112ae61119b565b6040529182528482019250838101850191888311156112cc57600080fd5b938501935b828510156112ea578451845293850193928501926112d1565b9897505050505050505056fea264697066735822122095a70fd2d756e1ca16def9ce5087dfc651e226d15ef7c79493ba6d0cbba6aa8c64736f6c63430008140033",
  "linkReferences": {},
  "deployedLinkReferences": {}
}