{
  "_format": "hh-sol-artifact-1",
  "contractName": "SilverbackRouter",
  "sourceName": "contracts/SilverbackRouter.sol",
  "abi": [
    {
      "inputs": [
        {
          "internalType": "address",
          "name": "_factory",
          "type": "address"
        },
        {
          "internalType": "address",
          "name": "_WETH",
          "type": "address"
        }
      ],
      "stateMutability": "nonpayable",
      "type": "constructor"
    },
    {
      "inputs": [],
      "name": "WETH",
      "outputs": [
        {
          "internalType": "address",
          "name": "",
          "type": "address"
        }
      ],
      "stateMutability": "view",
      "type": "function"
    },
    {
      "inputs": [
        {
          "internalType": "address",
          "name": "tokenA",
          "type": "address"
        },
        {
          "internalType": "address",
          "name": "tokenB",
          "type": "address"
        },
        {
          "internalType": "uint256",
          "name": "amountADesired",
          "type": "uint256"
        },
        {
          "internalType": "uint256",
          "name": "amountBDesired",
          "type": "uint256"
        },
        {
          "internalType": "uint256",
          "name": "amountAMin",
          "type": "uint256"
        },
        {
          "internalType": "uint256",
          "name": "amountBMin",
          "type": "uint256"
        },
        {
          "internalType": "address",
          "name": "to",
          "type": "address"
        },
        {
          "internalType": "uint256",
          "name": "deadline",
          "type": "uint256"
        }
      ],
      "name": "addLiquidity",
      "outputs": [
        {
          "internalType": "uint256",
          "name": "amountA",
          "type": "uint256"
        },
        {
          "internalType": "uint256",
          "name": "amountB",
          "type": "uint256"
        },
        {
          "internalType": "uint256",
          "name": "liquidity",
          "type": "uint256"
        }
      ],
      "stateMutability": "nonpayable",
      "type": "function"
    },
    {
      "inputs": [
        {
          "internalType": "address",
          "name": "token",
          "type": "address"
        },
        {
          "internalType": "uint256",
          "name": "amountTokenDesired",
          "type": "uint256"
        },
        {
          "internalType": "uint256",
          "name": "amountTokenMin",
          "type": "uint256"
        },
        {
          "internalType": "uint256",
          "name": "amountETHMin",
          "type": "uint256"
        },
        {
          "internalType": "address",
          "name": "to",
          "type": "address"
        },
        {
          "internalType": "uint256",
          "name": "deadline",
          "type": "uint256"
        }
      ],
      "name": "addLiquidityETH",
      "outputs": [
        {
          "internalType": "uint256",
          "name": "amountToken",
          "type": "uint256"
        },
        {
          "internalType": "uint256",
          "name": "amountETH",
          "type": "uint256"
        },
        {
          "internalType": "uint256",
          "name": "liquidity",
          "type": "uint256"
        }
      ],
      "stateMutability": "payable",
      "type": "function"
    },
    {
      "inputs": [],
      "name": "factory",
      "outputs": [
        {
          "internalType": "address",
          "name": "",
          "type": "address"
        }
      ],
      "stateMutability": "view",
      "type": "function"
    },
    {
      "inputs": [
        {
          "internalType": "address",
          "name": "tokenA",
          "type": "address"
        },
        {
          "internalType": "address",
          "name": "tokenB",
          "type": "address"
        },
        {
          "internalType": "uint256",
          "name": "liquidity",
          "type": "uint256"
        },
        {
          "internalType": "uint256",
          "name": "amountAMin",
          "type": "uint256"
        },
        {
          "internalType": "uint256",
          "name": "amountBMin",
          "type": "uint256"
        },
        {
          "internalType": "address",
          "name": "to",
          "type": "address"
        },
        {
          "internalType": "uint256",
          "name": "deadline",
          "type": "uint256"
        }
      ],
      "name": "removeLiquidity",
      "outputs": [
        {
          "internalType": "uint256",
          "name": "amountA",
          "type": "uint256"
        },
        {
          "internalType": "uint256",
          "name": "amountB",
          "type": "uint256"
        }
      ],
      "stateMutability": "nonpayable",
      "type": "function"
    },
    {
      "inputs": [
        {
          "internalType": "address",
          "name": "token",
          "type": "address"
        },
        {
          "internalType": "uint256",
          "name": "liquidity",
          "type": "uint256"
        },
        {
          "internalType": "uint256",
          "name": "amountTokenMin",
          "type": "uint256"
        },
        {
          "internalType": "uint256",
          "name": "amountETHMin",
          "type": "uint256"
        },
        {
          "internalType": "address",
          "name": "to",
          "type": "address"
        },
        {
          "internalType": "uint256",
          "name": "deadline",
          "type": "uint256"
        }
      ],
      "name": "removeLiquidityETH",
      "outputs": [
        {
          "internalType": "uint256",
          "name": "amountToken",
          "type": "uint256"
        },
        {
          "internalType": "uint256",
          "name": "amountETH",
          "type": "uint256"
        }
      ],
      "stateMutability": "nonpayable",
      "type": "function"
    },
    {
      "inputs": [
        {
          "internalType": "uint256",
          "name": "amountOutMin",
          "type": "uint256"
        },
        {
          "internalType": "address[]",
          "name": "path",
          "type": "address[]"
        },
        {
          "internalType": "address",
          "name": "to",
          "type": "address"
        },
        {
          "internalType": "uint256",
          "name": "deadline",
          "type": "uint256"
        }
      ],
      "name": "swapExactETHForTokens",
      "outputs": [
        {
          "internalType": "uint256[]",
          "name": "amounts",
          "type": "uint256[]"
        }
      ],
      "stateMutability": "payable",
      "type": "function"
    },
    {
      "inputs": [
        {
          "internalType": "uint256",
          "name": "amountIn",
          "type": "uint256"
        },
        {
          "internalType": "uint256",
          "name": "amountOutMin",
          "type": "uint256"
        },
        {
          "internalType": "address[]",
          "name": "path",
          "type": "address[]"
        },
        {
          "internalType": "address",
          "name": "to",
          "type": "address"
        },
        {
          "internalType": "uint256",
          "name": "deadline",
          "type": "uint256"
        }
      ],
      "name": "swapExactTokensForETH",
      "outputs": [
        {
          "internalType": "uint256[]",
          "name": "amounts",
          "type": "uint256[]"
        }
      ],
      "stateMutability": "nonpayable",
      "type": "function"
    },
    {
      "inputs": [
        {
          "internalType": "uint256",
          "name": "amountIn",
          "type": "uint256"
        },
        {
          "internalType": "uint256",
          "name": "amountOutMin",
          "type": "uint256"
        },
        {
          "internalType": "address[]",
          "name": "path",
          "type": "address[]"
        },
        {
          "internalType": "address",
          "name": "to",
          "type": "address"
        },
        {
          "internalType": "uint256",
          "name": "deadline",
          "type": "uint256"
        }
      ],
      "name": "swapExactTokensForTokens",
      "outputs": [
        {
          "internalType": "uint256[]",
          "name": "amounts",
          "type": "uint256[]"
        }
      ],
      "stateMutability": "nonpayable",
      "type": "function"
    },
    {
      "stateMutability": "payable",
      "type": "receive"
    }
  ],
  "bytecode": "0x60c06040523480156200001157600080fd5b506040516200460d3803806200460d833981016040819052620000349162000069565b6001600160a01b039182166080521660a052620000a1565b80516001600160a01b03811681146200006457600080fd5b919050565b600080604083850312156200007d57600080fd5b62000088836200004c565b915062000098602084016200004c565b90509250929050565b60805160a051614467620001a660003960008181609a015281816101b2015281816102fb015281816103ec015281816104e4015281816105bc015281816107df01528181610a3c01528181610b5a01528181610beb015281816111e3015281816112a001528181611368015281816113e1015281816114580152611dd101526000818161021e015281816102cc015281816106380152818161070a0152818161091601528181610ab701528181610c0f01528181610d1001528181610f0701528181610fb90152818161104f015281816111ac015281816112710152818161133901528181611b6501528181611bb501528181611c950152611daf01526144676000f3fe60806040526004361061008a5760003560e01c8063ad5c464811610059578063ad5c4648146101a0578063baa2abde146101ec578063c45a01551461020c578063e8e3370014610240578063f305d7191461027b57600080fd5b806302751cec1461010657806318cbafe51461014057806338ed17391461016d5780637ff36ab51461018d57600080fd5b3661010157336001600160a01b037f000000000000000000000000000000000000000000000000000000000000000016146100ff5760405162461bcd60e51b815260206004820152601060248201526f0a48a868a92ac8abe9c9ea8beae8aa8960831b60448201526064015b60405180910390fd5b005b600080fd5b34801561011257600080fd5b50610126610121366004612242565b61028e565b604080519283526020830191909152015b60405180910390f35b34801561014c57600080fd5b5061016061015b3660046122e5565b61058f565b6040516101379190612358565b34801561017957600080fd5b506101606101883660046122e5565b6108ee565b61016061019b36600461239c565b610a17565b3480156101ac57600080fd5b506101d47f000000000000000000000000000000000000000000000000000000000000000081565b6040516001600160a01b039091168152602001610137565b3480156101f857600080fd5b50610126610207366004612403565b610cd2565b34801561021857600080fd5b506101d47f000000000000000000000000000000000000000000000000000000000000000081565b34801561024c57600080fd5b5061026061025b366004612475565b610ed4565b60408051938452602084019290925290820152606001610137565b610260610289366004612242565b611174565b60008082428110156102b25760405162461bcd60e51b81526004016100f6906124f1565b60405163e6a4390560e01b81526000906001600160a01b037f0000000000000000000000000000000000000000000000000000000000000000169063e6a4390590610323908d907f000000000000000000000000000000000000000000000000000000000000000090600401612512565b602060405180830381865afa158015610340573d6000803e3d6000fd5b505050506040513d601f19601f82011682018060405250810190610364919061252c565b90506103728133838c61153a565b60405163226bf2d160e21b815230600482015260009081906001600160a01b038416906389afcb449060240160408051808303816000875af11580156103bc573d6000803e3d6000fd5b505050506040513d601f19601f820116820180604052508101906103e09190612550565b9150915060006104108d7f0000000000000000000000000000000000000000000000000000000000000000611655565b509050806001600160a01b03168d6001600160a01b031614610433578183610436565b82825b90975095508a8710156104805760405162461bcd60e51b815260206004820152601260248201527124a729aaa32324a1a4a2a72a2faa27a5a2a760711b60448201526064016100f6565b898610156104c35760405162461bcd60e51b815260206004820152601060248201526f0929ca6aa8c8c9286928a9ca8be8aa8960831b60448201526064016100f6565b6104ce8d8a89611723565b604051632e1a7d4d60e01b8152600481018790527f00000000000000000000000000000000000000000000000000000000000000006001600160a01b031690632e1a7d4d90602401600060405180830381600087803b15801561053057600080fd5b505af1158015610544573d6000803e3d6000fd5b50506040516001600160a01b038c16925088156108fc02915088906000818181858888f1935050505015801561057e573d6000803e3d6000fd5b505050505050965096945050505050565b606081428110156105b25760405162461bcd60e51b81526004016100f6906124f1565b6001600160a01b037f00000000000000000000000000000000000000000000000000000000000000001686866105e960018261258a565b8181106105f8576105f86125a3565b905060200201602081019061060d91906125b9565b6001600160a01b0316146106335760405162461bcd60e51b81526004016100f6906125d6565b6106917f00000000000000000000000000000000000000000000000000000000000000008988888080602002602001604051908101604052809392919081815260200183836020028082843760009201919091525061183092505050565b91508682600184516106a3919061258a565b815181106106b3576106b36125a3565b602002602001015110156106d95760405162461bcd60e51b81526004016100f6906125fc565b61079e868660008181106106ef576106ef6125a3565b905060200201602081019061070491906125b9565b3361077e7f00000000000000000000000000000000000000000000000000000000000000008a8a600081811061073c5761073c6125a3565b905060200201602081019061075191906125b9565b8b8b6001818110610764576107646125a3565b905060200201602081019061077991906125b9565b61198b565b85600081518110610791576107916125a3565b602002602001015161153a565b6107dd82878780806020026020016040519081016040528093929190818152602001838360200280828437600092019190915250309250611a82915050565b7f00000000000000000000000000000000000000000000000000000000000000006001600160a01b0316632e1a7d4d836001855161081b919061258a565b8151811061082b5761082b6125a3565b60200260200101516040518263ffffffff1660e01b815260040161085191815260200190565b600060405180830381600087803b15801561086b57600080fd5b505af115801561087f573d6000803e3d6000fd5b50505050836001600160a01b03166108fc836001855161089f919061258a565b815181106108af576108af6125a3565b60200260200101519081150290604051600060405180830381858888f193505050501580156108e2573d6000803e3d6000fd5b50509695505050505050565b606081428110156109115760405162461bcd60e51b81526004016100f6906124f1565b61096f7f00000000000000000000000000000000000000000000000000000000000000008988888080602002602001604051908101604052809392919081815260200183836020028082843760009201919091525061183092505050565b9150868260018451610981919061258a565b81518110610991576109916125a3565b602002602001015110156109b75760405162461bcd60e51b81526004016100f6906125fc565b6109cd868660008181106106ef576106ef6125a3565b610a0c82878780806020026020016040519081016040528093929190818152602001838360200280828437600092019190915250899250611a82915050565b509695505050505050565b60608142811015610a3a5760405162461bcd60e51b81526004016100f6906124f1565b7f00000000000000000000000000000000000000000000000000000000000000006001600160a01b031686866000818110610a7757610a776125a3565b9050602002016020810190610a8c91906125b9565b6001600160a01b031614610ab25760405162461bcd60e51b81526004016100f6906125d6565b610b107f00000000000000000000000000000000000000000000000000000000000000003488888080602002602001604051908101604052809392919081815260200183836020028082843760009201919091525061183092505050565b9150868260018451610b22919061258a565b81518110610b3257610b326125a3565b60200260200101511015610b585760405162461bcd60e51b81526004016100f6906125fc565b7f00000000000000000000000000000000000000000000000000000000000000006001600160a01b031663d0e30db083600081518110610b9a57610b9a6125a3565b60200260200101516040518263ffffffff1660e01b81526004016000604051808303818588803b158015610bcd57600080fd5b505af1158015610be1573d6000803e3d6000fd5b5050505050610c897f0000000000000000000000000000000000000000000000000000000000000000610c697f000000000000000000000000000000000000000000000000000000000000000089896000818110610c4157610c416125a3565b9050602002016020810190610c5691906125b9565b8a8a6001818110610764576107646125a3565b84600081518110610c7c57610c7c6125a3565b6020026020010151611723565b610cc882878780806020026020016040519081016040528093929190818152602001838360200280828437600092019190915250899250611a82915050565b5095945050505050565b6000808242811015610cf65760405162461bcd60e51b81526004016100f6906124f1565b60405163e6a4390560e01b81526000906001600160a01b037f0000000000000000000000000000000000000000000000000000000000000000169063e6a4390590610d47908e908e90600401612512565b602060405180830381865afa158015610d64573d6000803e3d6000fd5b505050506040513d601f19601f82011682018060405250810190610d88919061252c565b9050610d968133838c61153a565b60405163226bf2d160e21b81526001600160a01b03878116600483015260009182918416906389afcb449060240160408051808303816000875af1158015610de2573d6000803e3d6000fd5b505050506040513d601f19601f82011682018060405250810190610e069190612550565b915091506000610e168e8e611655565b509050806001600160a01b03168e6001600160a01b031614610e39578183610e3c565b82825b90975095508a871015610e825760405162461bcd60e51b815260206004820152600e60248201526d494e53554646494349454e545f4160901b60448201526064016100f6565b89861015610ec35760405162461bcd60e51b815260206004820152600e60248201526d24a729aaa32324a1a4a2a72a2fa160911b60448201526064016100f6565b505050505097509795505050505050565b60008060008342811015610efa5760405162461bcd60e51b81526004016100f6906124f1565b60006001600160a01b03167f00000000000000000000000000000000000000000000000000000000000000006001600160a01b031663e6a439058e8e6040518363ffffffff1660e01b8152600401610f53929190612512565b602060405180830381865afa158015610f70573d6000803e3d6000fd5b505050506040513d601f19601f82011682018060405250810190610f94919061252c565b6001600160a01b031603611035576040516364e329cb60e11b81526001600160a01b037f0000000000000000000000000000000000000000000000000000000000000000169063c9c6539690610ff0908f908f90600401612512565b6020604051808303816000875af115801561100f573d6000803e3d6000fd5b505050506040513d601f19601f82011682018060405250810190611033919061252c565b505b6110438c8c8c8c8c8c611c8a565b809450819550505060007f00000000000000000000000000000000000000000000000000000000000000006001600160a01b031663e6a439058e8e6040518363ffffffff1660e01b815260040161109b929190612512565b602060405180830381865afa1580156110b8573d6000803e3d6000fd5b505050506040513d601f19601f820116820180604052508101906110dc919061252c565b90506110ea8d33838861153a565b6110f68c33838761153a565b6040516335313c2160e11b81526001600160a01b038881166004830152821690636a627842906024016020604051808303816000875af115801561113e573d6000803e3d6000fd5b505050506040513d601f19601f820116820180604052508101906111629190612629565b92505050985098509895505050505050565b6000806000834281101561119a5760405162461bcd60e51b81526004016100f6906124f1565b60405163e6a4390560e01b81526000907f00000000000000000000000000000000000000000000000000000000000000006001600160a01b03169063e6a439059061120b908e907f000000000000000000000000000000000000000000000000000000000000000090600401612512565b602060405180830381865afa158015611228573d6000803e3d6000fd5b505050506040513d601f19601f8201168201806040525081019061124c919061252c565b6001600160a01b03160361130d576040516364e329cb60e11b81526001600160a01b037f0000000000000000000000000000000000000000000000000000000000000000169063c9c65396906112c8908d907f000000000000000000000000000000000000000000000000000000000000000090600401612512565b6020604051808303816000875af11580156112e7573d6000803e3d6000fd5b505050506040513d601f19601f8201168201806040525081019061130b919061252c565b505b61131a8a8a348b8b611da4565b60405163e6a4390560e01b815291955093506000906001600160a01b037f0000000000000000000000000000000000000000000000000000000000000000169063e6a4390590611390908e907f000000000000000000000000000000000000000000000000000000000000000090600401612512565b602060405180830381865afa1580156113ad573d6000803e3d6000fd5b505050506040513d601f19601f820116820180604052508101906113d1919061252c565b90506113df8b33838861153a565b7f00000000000000000000000000000000000000000000000000000000000000006001600160a01b031663d0e30db0856040518263ffffffff1660e01b81526004016000604051808303818588803b15801561143a57600080fd5b505af115801561144e573d6000803e3d6000fd5b505050505061147e7f00000000000000000000000000000000000000000000000000000000000000008286611723565b6040516335313c2160e11b81526001600160a01b038881166004830152821690636a627842906024016020604051808303816000875af11580156114c6573d6000803e3d6000fd5b505050506040513d601f19601f820116820180604052508101906114ea9190612629565b92508334111561152c57336108fc611502863461258a565b6040518115909202916000818181858888f1935050505015801561152a573d6000803e3d6000fd5b505b505096509650969350505050565b604080516001600160a01b0385811660248301528481166044830152606480830185905283518084039091018152608490920183526020820180516001600160e01b03166323b872dd60e01b179052915160009283929088169161159e9190612666565b6000604051808303816000865af19150503d80600081146115db576040519150601f19603f3d011682016040523d82523d6000602084013e6115e0565b606091505b509150915081801561160a57508051158061160a57508080602001905181019061160a9190612682565b61164d5760405162461bcd60e51b81526020600482015260146024820152731514905394d1915497d19493d357d1905253115160621b60448201526064016100f6565b505050505050565b600080826001600160a01b0316846001600160a01b0316036116af5760405162461bcd60e51b81526020600482015260136024820152724944454e544943414c5f41444452455353455360681b60448201526064016100f6565b826001600160a01b0316846001600160a01b0316106116cf5782846116d2565b83835b90925090506001600160a01b03821661171c5760405162461bcd60e51b815260206004820152600c60248201526b5a45524f5f4144445245535360a01b60448201526064016100f6565b9250929050565b604080516001600160a01b038481166024830152604480830185905283518084039091018152606490920183526020820180516001600160e01b031663a9059cbb60e01b179052915160009283929087169161177f9190612666565b6000604051808303816000865af19150503d80600081146117bc576040519150601f19603f3d011682016040523d82523d6000602084013e6117c1565b606091505b50915091508180156117eb5750805115806117eb5750808060200190518101906117eb9190612682565b6118295760405162461bcd60e51b815260206004820152600f60248201526e1514905394d1915497d19052531151608a1b60448201526064016100f6565b5050505050565b60606002825110156118545760405162461bcd60e51b81526004016100f6906125d6565b815167ffffffffffffffff81111561186e5761186e6126a4565b604051908082528060200260200182016040528015611897578160200160208202803683370190505b50905082816000815181106118ae576118ae6125a3565b60200260200101818152505060005b600183516118cb919061258a565b8110156119835760008061191e878685815181106118eb576118eb6125a3565b60200260200101518786600161190191906126ba565b81518110611911576119116125a3565b6020026020010151611ee3565b91509150611946848481518110611937576119376125a3565b60200260200101518383612070565b846119528560016126ba565b81518110611962576119626125a3565b6020026020010181815250505050808061197b906126cd565b9150506118bd565b509392505050565b600080600061199a8585611655565b6040516bffffffffffffffffffffffff19606084811b8216602084015283901b1660348201529193509150600090604801604051602081830303815290604052805190602001209050600060ff60f81b8883604051806020016119fc9061221d565b6020820181038252601f19601f8201166040525080519060200120604051602001611a5e94939291906001600160f81b031994909416845260609290921b6bffffffffffffffffffffffff191660018401526015830152603582015260550190565b60408051601f19818403018152919052805160209091012098975050505050505050565b60005b60018351611a93919061258a565b811015611c8457600080848381518110611aaf57611aaf6125a3565b602002602001015185846001611ac591906126ba565b81518110611ad557611ad56125a3565b6020026020010151915091506000611aed8383611655565b509050600087611afe8660016126ba565b81518110611b0e57611b0e6125a3565b60200260200101519050600080836001600160a01b0316866001600160a01b031614611b3c57826000611b40565b6000835b91509150600060028a51611b54919061258a565b8810611b605788611bae565b611bae7f0000000000000000000000000000000000000000000000000000000000000000878c611b918c60026126ba565b81518110611ba157611ba16125a3565b602002602001015161198b565b9050611bdb7f0000000000000000000000000000000000000000000000000000000000000000888861198b565b6001600160a01b031663022c0d9f84848460006040519080825280601f01601f191660200182016040528015611c18576020820181803683370190505b506040518563ffffffff1660e01b8152600401611c3894939291906126e6565b600060405180830381600087803b158015611c5257600080fd5b505af1158015611c66573d6000803e3d6000fd5b50505050505050505050508080611c7c906126cd565b915050611a85565b50505050565b600080600080611cbb7f00000000000000000000000000000000000000000000000000000000000000008b8b611ee3565b91509150816000148015611ccd575080155b15611cdd57879350869250611d97565b6000611cea898484612164565b9050878111611d3f5785811015611d345760405162461bcd60e51b815260206004820152600e60248201526d24a729aaa32324a1a4a2a72a2fa160911b60448201526064016100f6565b889450925082611d95565b6000611d4c898486612164565b905087811015611d8f5760405162461bcd60e51b815260206004820152600e60248201526d494e53554646494349454e545f4160901b60448201526064016100f6565b94508793505b505b5050965096945050505050565b600080600080611df57f00000000000000000000000000000000000000000000000000000000000000008a7f0000000000000000000000000000000000000000000000000000000000000000611ee3565b91509150816000148015611e07575080155b15611e1757879350869250611ed7565b6000611e24898484612164565b9050878111611e7b5785811015611e705760405162461bcd60e51b815260206004820152601060248201526f0929ca6aa8c8c9286928a9ca8be8aa8960831b60448201526064016100f6565b889450925082611ed5565b6000611e88898486612164565b905087811015611ecf5760405162461bcd60e51b815260206004820152601260248201527124a729aaa32324a1a4a2a72a2faa27a5a2a760711b60448201526064016100f6565b94508793505b505b50509550959350505050565b6000806000611ef28585611655565b5090506000866001600160a01b031663e6a4390587876040518363ffffffff1660e01b8152600401611f25929190612512565b602060405180830381865afa158015611f42573d6000803e3d6000fd5b505050506040513d601f19601f82011682018060405250810190611f66919061252c565b90506001600160a01b038116611faf5760405162461bcd60e51b815260206004820152600e60248201526d1410525497d393d517d193d5539160921b60448201526064016100f6565b600080826001600160a01b0316630902f1ac6040518163ffffffff1660e01b8152600401606060405180830381865afa158015611ff0573d6000803e3d6000fd5b505050506040513d601f19601f820116820180604052508101906120149190612752565b5091509150836001600160a01b0316886001600160a01b03161461204b57806001600160701b0316826001600160701b0316612060565b816001600160701b0316816001600160701b03165b909a909950975050505050505050565b60008084116120c15760405162461bcd60e51b815260206004820152601960248201527f494e53554646494349454e545f494e5055545f414d4f554e540000000000000060448201526064016100f6565b6000831180156120d15750600082115b6121165760405162461bcd60e51b8152602060048201526016602482015275494e53554646494349454e545f4c495155494449545960501b60448201526064016100f6565b6000612124856103e56127a2565b9050600061213284836127a2565b9050600082612143876103e86127a2565b61214d91906126ba565b905061215981836127b9565b979650505050505050565b60008084116121ab5760405162461bcd60e51b8152602060048201526013602482015272125394d551919250d251539517d05353d55395606a1b60448201526064016100f6565b6000831180156121bb5750600082115b6122005760405162461bcd60e51b8152602060048201526016602482015275494e53554646494349454e545f4c495155494449545960501b60448201526064016100f6565b8261220b83866127a2565b61221591906127b9565b949350505050565b611c56806127dc83390190565b6001600160a01b038116811461223f57600080fd5b50565b60008060008060008060c0878903121561225b57600080fd5b86356122668161222a565b9550602087013594506040870135935060608701359250608087013561228b8161222a565b8092505060a087013590509295509295509295565b60008083601f8401126122b257600080fd5b50813567ffffffffffffffff8111156122ca57600080fd5b6020830191508360208260051b850101111561171c57600080fd5b60008060008060008060a087890312156122fe57600080fd5b8635955060208701359450604087013567ffffffffffffffff81111561232357600080fd5b61232f89828a016122a0565b90955093505060608701356123438161222a565b80925050608087013590509295509295509295565b6020808252825182820181905260009190848201906040850190845b8181101561239057835183529284019291840191600101612374565b50909695505050505050565b6000806000806000608086880312156123b457600080fd5b85359450602086013567ffffffffffffffff8111156123d257600080fd5b6123de888289016122a0565b90955093505060408601356123f28161222a565b949793965091946060013592915050565b600080600080600080600060e0888a03121561241e57600080fd5b87356124298161222a565b965060208801356124398161222a565b955060408801359450606088013593506080880135925060a088013561245e8161222a565b8092505060c0880135905092959891949750929550565b600080600080600080600080610100898b03121561249257600080fd5b883561249d8161222a565b975060208901356124ad8161222a565b965060408901359550606089013594506080890135935060a0890135925060c08901356124d98161222a565b8092505060e089013590509295985092959890939650565b6020808252600790820152661156141254915160ca1b604082015260600190565b6001600160a01b0392831681529116602082015260400190565b60006020828403121561253e57600080fd5b81516125498161222a565b9392505050565b6000806040838503121561256357600080fd5b505080516020909101519092909150565b634e487b7160e01b600052601160045260246000fd5b8181038181111561259d5761259d612574565b92915050565b634e487b7160e01b600052603260045260246000fd5b6000602082840312156125cb57600080fd5b81356125498161222a565b6020808252600c908201526b0929cac82989288bea082a8960a31b604082015260600190565b602080825260139082015272125394d551919250d251539517d3d555141555606a1b604082015260600190565b60006020828403121561263b57600080fd5b5051919050565b60005b8381101561265d578181015183820152602001612645565b50506000910152565b60008251612678818460208701612642565b9190910192915050565b60006020828403121561269457600080fd5b8151801515811461254957600080fd5b634e487b7160e01b600052604160045260246000fd5b8082018082111561259d5761259d612574565b6000600182016126df576126df612574565b5060010190565b84815283602082015260018060a01b0383166040820152608060608201526000825180608084015261271f8160a0850160208701612642565b601f01601f19169190910160a00195945050505050565b80516001600160701b038116811461274d57600080fd5b919050565b60008060006060848603121561276757600080fd5b61277084612736565b925061277e60208501612736565b9150604084015163ffffffff8116811461279757600080fd5b809150509250925092565b808202811582820484141761259d5761259d612574565b6000826127d657634e487b7160e01b600052601260045260246000fd5b50049056fe6080604052600160095534801561001557600080fd5b50600080546001600160a01b03191633178155604080518082018252600d81526c053696c7665726261636b2d4c5609c1b6020918201528151808301835260018152603160f81b9082015281517f8b73c3c69bb8fe3d512ecc4cf759cc79239f7b179b0ffacaa9a75d522b39400f818301527f85de88e7213dc87891b4afe9ad494c76604bd5eb364a5d052edb61182afa6b5f818401527fc89efdaa54c0f20c7adf612882df0950f5a951637e0307cdcb4c672f298b8bc660608201524660808201523060a0808301919091528351808303909101815260c09091019092528151910120600755611b4a90819061010c90396000f3fe608060405234801561001057600080fd5b506004361061014d5760003560e01c80636a627842116100c3578063bc25cf771161007c578063bc25cf7714610356578063c45a015514610369578063d21220a71461037c578063d505accf1461038f578063dd62ed3e146103a2578063fff6cae9146103cd57600080fd5b80636a627842146102a757806370a08231146102ba5780637ecebe00146102da57806389afcb44146102fa57806395d89b4114610322578063a9059cbb1461034357600080fd5b806318160ddd1161011557806318160ddd1461022b57806323b872dd1461024257806330adf81f14610255578063313ce5671461027c5780633644e5151461028b578063485cc9551461029457600080fd5b8063022c0d9f1461015257806306fdde03146101675780630902f1ac146101a2578063095ea7b3146101dd5780630dfe168114610200575b600080fd5b610165610160366004611795565b6103d5565b005b60408051808201909152600d81526c053696c7665726261636b2d4c5609c1b60208201525b604051610199919061184d565b60405180910390f35b600354604080516001600160701b038084168252600160701b8404166020820152600160e01b90920463ffffffff1690820152606001610199565b6101f06101eb366004611880565b610847565b6040519015158152602001610199565b600154610213906001600160a01b031681565b6040516001600160a01b039091168152602001610199565b61023460045481565b604051908152602001610199565b6101f06102503660046118aa565b6108b4565b6102347f6e71edae12b1b97f4d1f60370fef10105fa2faae0126114a169c64845d6126c981565b60405160128152602001610199565b61023460075481565b6101656102a23660046118e6565b610926565b6102346102b5366004611919565b61099a565b6102346102c8366004611919565b60056020526000908152604090205481565b6102346102e8366004611919565b60086020526000908152604090205481565b61030d610308366004611919565b610c28565b60408051928352602083019190915201610199565b604080518082019091526005815264053422d4c560dc1b602082015261018c565b6101f0610351366004611880565b610f6f565b610165610364366004611919565b610f85565b600054610213906001600160a01b031681565b600254610213906001600160a01b031681565b61016561039d366004611934565b611064565b6102346103b03660046118e6565b600660209081526000928352604080842090915290825290205481565b6101656112b2565b6001600954146104005760405162461bcd60e51b81526004016103f7906119a7565b60405180910390fd5b6002600955841515806104135750600084115b6104555760405162461bcd60e51b8152602060048201526013602482015272125394d551919250d251539517d3d555141555606a1b60448201526064016103f7565b6001546001600160a01b0384811691161480159061048157506002546001600160a01b03848116911614155b6104ba5760405162461bcd60e51b815260206004820152600a602482015269494e56414c49445f544f60b01b60448201526064016103f7565b6003546001600160701b0380821691600160701b90041686156104ee576001546104ee906001600160a01b031686896112e6565b851561050b5760025461050b906001600160a01b031686886112e6565b821561057857604051637062a49960e11b81526001600160a01b0386169063e0c54932906105459033908b908b908a908a906004016119c7565b600060405180830381600087803b15801561055f57600080fd5b505af1158015610573573d6000803e3d6000fd5b505050505b6001546040516370a0823160e01b81523060048201526000916001600160a01b0316906370a0823190602401602060405180830381865afa1580156105c1573d6000803e3d6000fd5b505050506040513d601f19601f820116820180604052508101906105e59190611a13565b6002546040516370a0823160e01b81523060048201529192506000916001600160a01b03909116906370a0823190602401602060405180830381865afa158015610633573d6000803e3d6000fd5b505050506040513d601f19601f820116820180604052508101906106579190611a13565b9050600061066e8a6001600160701b038716611a42565b831161067b576000610698565b61068e8a6001600160701b038716611a42565b6106989084611a42565b905060006106af8a6001600160701b038716611a42565b83116106bc5760006106d9565b6106cf8a6001600160701b038716611a42565b6106d99084611a42565b905060008211806106ea5750600081115b61072b5760405162461bcd60e51b8152602060048201526012602482015271125394d551919250d251539517d25394155560721b60448201526064016103f7565b6000610738836003611a55565b610744866103e8611a55565b61074e9190611a42565b9050600061075d836003611a55565b610769866103e8611a55565b6107739190611a42565b905061078b6001600160701b03808916908a16611a55565b61079890620f4240611a55565b6107a28284611a55565b10156107d45760405162461bcd60e51b81526020600482015260016024820152604b60f81b60448201526064016103f7565b50506107e084846113f3565b60408051838152602081018390529081018c9052606081018b90526001600160a01b038a169033907fd78ad95fa46c994b6551d0da85fc275fe613ce37657fb8d5e3d130840159d8229060800160405180910390a350506001600955505050505050505050565b3360008181526006602090815260408083206001600160a01b038716808552925280832085905551919290917f8c5be1e5ebec7d5bd14f71427d1e84f3dd0314c0f7b2291e5b200ac8c7c3b925906108a29086815260200190565b60405180910390a35060015b92915050565b6001600160a01b03831660009081526006602090815260408083203384529091528120546000198114610910576108eb8382611a42565b6001600160a01b03861660009081526006602090815260408083203384529091529020555b61091b8585856114f1565b506001949350505050565b6000546001600160a01b0316331461096c5760405162461bcd60e51b81526020600482015260096024820152682327a92124a22222a760b91b60448201526064016103f7565b600180546001600160a01b039384166001600160a01b03199182161790915560028054929093169116179055565b60006001600954146109be5760405162461bcd60e51b81526004016103f7906119a7565b60026009556003546001546040516370a0823160e01b81523060048201526001600160701b0380841693600160701b900416916000916001600160a01b03909116906370a0823190602401602060405180830381865afa158015610a26573d6000803e3d6000fd5b505050506040513d601f19601f82011682018060405250810190610a4a9190611a13565b6002546040516370a0823160e01b81523060048201529192506000916001600160a01b03909116906370a0823190602401602060405180830381865afa158015610a98573d6000803e3d6000fd5b505050506040513d601f19601f82011682018060405250810190610abc9190611a13565b90506000610ad36001600160701b03861684611a42565b90506000610aea6001600160701b03861684611a42565b9050600454600003610b29576103e8610b0b610b068385611a55565b6115e8565b610b159190611a42565b9650610b2460006103e8611658565b610b78565b610b75866001600160701b031660045484610b449190611a55565b610b4e9190611a82565b866001600160701b031660045484610b669190611a55565b610b709190611a82565b6116e2565b96505b60008711610bc85760405162461bcd60e51b815260206004820152601d60248201527f494e53554646494349454e545f4c49515549444954595f4d494e54454400000060448201526064016103f7565b610bd28888611658565b610bdc84846113f3565b604080518381526020810183905233917f4c209b5fc8ad50758f13e2e1088ba56a560dff690a1c6fef26394f4c03821c4f910160405180910390a2505060016009555092949350505050565b600080600160095414610c4d5760405162461bcd60e51b81526004016103f7906119a7565b60026009556001600160a01b038316610c975760405162461bcd60e51b815260206004820152600c60248201526b5a45524f5f4144445245535360a01b60448201526064016103f7565b6001546040516370a0823160e01b81523060048201526000916001600160a01b0316906370a0823190602401602060405180830381865afa158015610ce0573d6000803e3d6000fd5b505050506040513d601f19601f82011682018060405250810190610d049190611a13565b6002546040516370a0823160e01b81523060048201529192506000916001600160a01b03909116906370a0823190602401602060405180830381865afa158015610d52573d6000803e3d6000fd5b505050506040513d601f19601f82011682018060405250810190610d769190611a13565b3060009081526005602052604090205490915080610dcf5760405162461bcd60e51b8152602060048201526016602482015275494e53554646494349454e545f4c495155494449545960501b60448201526064016103f7565b600454610ddc8483611a55565b610de69190611a82565b600454909550610df68383611a55565b610e009190611a82565b9350610e0c30826116fa565b600154610e23906001600160a01b031687876112e6565b600254610e3a906001600160a01b031687866112e6565b6001546040516370a0823160e01b8152306004820152610f1a916001600160a01b0316906370a08231906024015b602060405180830381865afa158015610e85573d6000803e3d6000fd5b505050506040513d601f19601f82011682018060405250810190610ea99190611a13565b6002546040516370a0823160e01b81523060048201526001600160a01b03909116906370a0823190602401602060405180830381865afa158015610ef1573d6000803e3d6000fd5b505050506040513d601f19601f82011682018060405250810190610f159190611a13565b6113f3565b60408051868152602081018690526001600160a01b0388169133917fdccd412f0b1252819cb1fd330b93224ca42612892bb3f4f789976e6d81936496910160405180910390a350506001600955509092909150565b6000610f7c3384846114f1565b50600192915050565b6001546003546040516370a0823160e01b8152306004820152611016926001600160a01b03169184916001600160701b039091169083906370a08231906024015b602060405180830381865afa158015610fe3573d6000803e3d6000fd5b505050506040513d601f19601f820116820180604052508101906110079190611a13565b6110119190611a42565b6112e6565b6002546003546040516370a0823160e01b8152306004820152611061926001600160a01b0316918491600160701b9091046001600160701b03169083906370a0823190602401610fc6565b50565b4284101561109e5760405162461bcd60e51b81526020600482015260076024820152661156141254915160ca1b60448201526064016103f7565b6007546001600160a01b038816600090815260086020526040812080549192917f6e71edae12b1b97f4d1f60370fef10105fa2faae0126114a169c64845d6126c9918b918b918b9190876110f183611a96565b909155506040805160208101969096526001600160a01b0394851690860152929091166060840152608083015260a082015260c0810187905260e0016040516020818303038152906040528051906020012060405160200161116a92919061190160f01b81526002810192909252602282015260420190565b60408051601f198184030181528282528051602091820120600080855291840180845281905260ff88169284019290925260608301869052608083018590529092509060019060a0016020604051602081039080840390855afa1580156111d5573d6000803e3d6000fd5b5050604051601f1901519150506001600160a01b0381161580159061120b5750886001600160a01b0316816001600160a01b0316145b61124b5760405162461bcd60e51b8152602060048201526011602482015270494e56414c49445f5349474e415455524560781b60448201526064016103f7565b6001600160a01b038981166000818152600660209081526040808320948d16808452948252918290208b905590518a81527f8c5be1e5ebec7d5bd14f71427d1e84f3dd0314c0f7b2291e5b200ac8c7c3b925910160405180910390a3505050505050505050565b6001546040516370a0823160e01b81523060048201526112e4916001600160a01b0316906370a0823190602401610e68565b565b604080516001600160a01b038481166024830152604480830185905283518084039091018152606490920183526020820180516001600160e01b031663a9059cbb60e01b17905291516000928392908716916113429190611aaf565b6000604051808303816000865af19150503d806000811461137f576040519150601f19603f3d011682016040523d82523d6000602084013e611384565b606091505b50915091508180156113ae5750805115806113ae5750808060200190518101906113ae9190611acb565b6113ec5760405162461bcd60e51b815260206004820152600f60248201526e1514905394d1915497d19052531151608a1b60448201526064016103f7565b5050505050565b6001600160701b03821180159061141157506001600160701b038111155b6114485760405162461bcd60e51b81526020600482015260086024820152674f564552464c4f5760c01b60448201526064016103f7565b600061145964010000000042611aed565b6003805463ffffffff8316600160e01b026001600160e01b036001600160701b03878116600160701b9081026001600160e01b03199095168a83161794909417918216831794859055604080519382169282169290921783529290930490911660208201529192507f1c411e9a96e071241c2f21f7726b17ae89e3cab4c78be50e062b03a9fffbbad1910160405180910390a1505050565b6001600160a01b03821661153a5760405162461bcd60e51b815260206004820152601060248201526f5452414e534645525f544f5f5a45524f60801b60448201526064016103f7565b6001600160a01b03831660009081526005602052604081208054839290611562908490611a42565b90915550506001600160a01b0382166000908152600560205260408120805483929061158f908490611b01565b92505081905550816001600160a01b0316836001600160a01b03167fddf252ad1be2c89b69c2b068fc378daa952ba7f163c4a11628f55a4df523b3ef836040516115db91815260200190565b60405180910390a3505050565b600060038211156116495750806000611602600283611a82565b61160d906001611b01565b90505b81811015611643579050806002816116288186611a82565b6116329190611b01565b61163c9190611a82565b9050611610565b50919050565b8115611653575060015b919050565b806004600082825461166a9190611b01565b90915550506001600160a01b03821660009081526005602052604081208054839290611697908490611b01565b90915550506040518181526001600160a01b038316906000907fddf252ad1be2c89b69c2b068fc378daa952ba7f163c4a11628f55a4df523b3ef906020015b60405180910390a35050565b60008183106116f157816116f3565b825b9392505050565b6001600160a01b03821660009081526005602052604081208054839290611722908490611a42565b92505081905550806004600082825461173b9190611a42565b90915550506040518181526000906001600160a01b038416907fddf252ad1be2c89b69c2b068fc378daa952ba7f163c4a11628f55a4df523b3ef906020016116d6565b80356001600160a01b038116811461165357600080fd5b6000806000806000608086880312156117ad57600080fd5b85359450602086013593506117c46040870161177e565b9250606086013567ffffffffffffffff808211156117e157600080fd5b818801915088601f8301126117f557600080fd5b81358181111561180457600080fd5b89602082850101111561181657600080fd5b9699959850939650602001949392505050565b60005b8381101561184457818101518382015260200161182c565b50506000910152565b602081526000825180602084015261186c816040850160208701611829565b601f01601f19169190910160400192915050565b6000806040838503121561189357600080fd5b61189c8361177e565b946020939093013593505050565b6000806000606084860312156118bf57600080fd5b6118c88461177e565b92506118d66020850161177e565b9150604084013590509250925092565b600080604083850312156118f957600080fd5b6119028361177e565b91506119106020840161177e565b90509250929050565b60006020828403121561192b57600080fd5b6116f38261177e565b600080600080600080600060e0888a03121561194f57600080fd5b6119588861177e565b96506119666020890161177e565b95506040880135945060608801359350608088013560ff8116811461198a57600080fd5b9699959850939692959460a0840135945060c09093013592915050565b6020808252600690820152651313d0d2d15160d21b604082015260600190565b60018060a01b038616815284602082015283604082015260806060820152816080820152818360a0830137600081830160a090810191909152601f909201601f19160101949350505050565b600060208284031215611a2557600080fd5b5051919050565b634e487b7160e01b600052601160045260246000fd5b818103818111156108ae576108ae611a2c565b80820281158282048414176108ae576108ae611a2c565b634e487b7160e01b600052601260045260246000fd5b600082611a9157611a91611a6c565b500490565b600060018201611aa857611aa8611a2c565b5060010190565b60008251611ac1818460208701611829565b9190910192915050565b600060208284031215611add57600080fd5b815180151581146116f357600080fd5b600082611afc57611afc611a6c565b500690565b808201808211156108ae576108ae611a2c56fea2646970667358221220e2870a751bca3cfb9a60645da7474b06b0d22e2b99caa10ec514a1960f48324464736f6c63430008140033a264697066735822122017515a3a679bba2357e87a81823486051fad4aa2b3fe4b8254b638ae9b15d0aa64736f6c63430008140033",
  "linkReferences": {},
  "deployedLinkReferences": {}
}