{
  "_format": "hh-sol-artifact-1",
  "contractName": "SilverbackUnifiedRouter",
  "sourceName": "contracts/SilverbackUnifiedRouter.sol",
  "abi": [
    {
      "inputs": [
        {
          "internalType": "address",
          "name": "_feeRecipient",
          "type": "address"
        },
        {
          "internalType": "uint16",
          "name": "_feeBps",
          "type": "uint16"
        },
        {
          "internalType": "address",
          "name": "_factory",
          "type": "address"
        },
        {
          "internalType": "address",
          "name": "_WETH",
          "type": "address"
        }
      ],
      "stateMutability": "nonpayable",
      "type": "constructor"
    },
    {
      "anonymous": false,
      "inputs": [
        {
          "indexed": false,
          "internalType": "uint16",
          "name": "newFeeBps",
          "type": "uint16"
        }
      ],
      "name": "FeeUpdated",
      "type": "event"
    },
    {
      "anonymous": false,
      "inputs": [
        {
          "indexed": false,
          "internalType": "address",
          "name": "newOwner",
          "type": "address"
        }
      ],
      "name": "OwnerChanged",
      "type": "event"
    },
    {
      "anonymous": false,
      "inputs": [
        {
          "indexed": true,
          "internalType": "address",
          "name": "user",
          "type": "address"
        },
        {
          "indexed": false,
          "internalType": "address",
          "name": "inToken",
          "type": "address"
        },
        {
          "indexed": false,
          "internalType": "address",
          "name": "outToken",
          "type": "address"
        },
        {
          "indexed": false,
          "internalType": "uint256",
          "name": "amountIn",
          "type": "uint256"
        },
        {
          "indexed": false,
          "internalType": "uint256",
          "name": "feeAmount",
          "type": "uint256"
        },
        {
          "indexed": false,
          "internalType": "address",
          "name": "target",
          "type": "address"
        }
      ],
      "name": "SwapForwarded",
      "type": "event"
    },
    {
      "inputs": [],
      "name": "MAX_FEE_BPS",
      "outputs": [
        {
          "internalType": "uint16",
          "name": "",
          "type": "uint16"
        }
      ],
      "stateMutability": "view",
      "type": "function"
    },
    {
      "inputs": [],
      "name": "NATIVE",
      "outputs": [
        {
          "internalType": "address",
          "name": "",
          "type": "address"
        }
      ],
      "stateMutability": "view",
      "type": "function"
    },
    {
      "inputs": [],
      "name": "WETH",
      "outputs": [
        {
          "internalType": "address",
          "name": "",
          "type": "address"
        }
      ],
      "stateMutability": "view",
      "type": "function"
    },
    {
      "inputs": [
        {
          "internalType": "address",
          "name": "tokenA",
          "type": "address"
        },
        {
          "internalType": "address",
          "name": "tokenB",
          "type": "address"
        },
        {
          "internalType": "uint256",
          "name": "amountADesired",
          "type": "uint256"
        },
        {
          "internalType": "uint256",
          "name": "amountBDesired",
          "type": "uint256"
        },
        {
          "internalType": "uint256",
          "name": "amountAMin",
          "type": "uint256"
        },
        {
          "internalType": "uint256",
          "name": "amountBMin",
          "type": "uint256"
        },
        {
          "internalType": "address",
          "name": "to",
          "type": "address"
        },
        {
          "internalType": "uint256",
          "name": "deadline",
          "type": "uint256"
        }
      ],
      "name": "addLiquidity",
      "outputs": [
        {
          "internalType": "uint256",
          "name": "amountA",
          "type": "uint256"
        },
        {
          "internalType": "uint256",
          "name": "amountB",
          "type": "uint256"
        },
        {
          "internalType": "uint256",
          "name": "liquidity",
          "type": "uint256"
        }
      ],
      "stateMutability": "nonpayable",
      "type": "function"
    },
    {
      "inputs": [
        {
          "internalType": "address",
          "name": "token",
          "type": "address"
        },
        {
          "internalType": "uint256",
          "name": "amountTokenDesired",
          "type": "uint256"
        },
        {
          "internalType": "uint256",
          "name": "amountTokenMin",
          "type": "uint256"
        },
        {
          "internalType": "uint256",
          "name": "amountETHMin",
          "type": "uint256"
        },
        {
          "internalType": "address",
          "name": "to",
          "type": "address"
        },
        {
          "internalType": "uint256",
          "name": "deadline",
          "type": "uint256"
        }
      ],
      "name": "addLiquidityETH",
      "outputs": [
        {
          "internalType": "uint256",
          "name": "amountToken",
          "type": "uint256"
        },
        {
          "internalType": "uint256",
          "name": "amountETH",
          "type": "uint256"
        },
        {
          "internalType": "uint256",
          "name": "liquidity",
          "type": "uint256"
        }
      ],
      "stateMutability": "payable",
      "type": "function"
    },
    {
      "inputs": [],
      "name": "factory",
      "outputs": [
        {
          "internalType": "address",
          "name": "",
          "type": "address"
        }
      ],
      "stateMutability": "view",
      "type": "function"
    },
    {
      "inputs": [],
      "name": "feeBps",
      "outputs": [
        {
          "internalType": "uint16",
          "name": "",
          "type": "uint16"
        }
      ],
      "stateMutability": "view",
      "type": "function"
    },
    {
      "inputs": [],
      "name": "feeRecipient",
      "outputs": [
        {
          "internalType": "address",
          "name": "",
          "type": "address"
        }
      ],
      "stateMutability": "view",
      "type": "function"
    },
    {
      "inputs": [],
      "name": "owner",
      "outputs": [
        {
          "internalType": "address",
          "name": "",
          "type": "address"
        }
      ],
      "stateMutability": "view",
      "type": "function"
    },
    {
      "inputs": [
        {
          "internalType": "address",
          "name": "tokenA",
          "type": "address"
        },
        {
          "internalType": "address",
          "name": "tokenB",
          "type": "address"
        },
        {
          "internalType": "uint256",
          "name": "liquidity",
          "type": "uint256"
        },
        {
          "internalType": "uint256",
          "name": "amountAMin",
          "type": "uint256"
        },
        {
          "internalType": "uint256",
          "name": "amountBMin",
          "type": "uint256"
        },
        {
          "internalType": "address",
          "name": "to",
          "type": "address"
        },
        {
          "internalType": "uint256",
          "name": "deadline",
          "type": "uint256"
        }
      ],
      "name": "removeLiquidity",
      "outputs": [
        {
          "internalType": "uint256",
          "name": "amountA",
          "type": "uint256"
        },
        {
          "internalType": "uint256",
          "name": "amountB",
          "type": "uint256"
        }
      ],
      "stateMutability": "nonpayable",
      "type": "function"
    },
    {
      "inputs": [
        {
          "internalType": "address",
          "name": "token",
          "type": "address"
        },
        {
          "internalType": "uint256",
          "name": "liquidity",
          "type": "uint256"
        },
        {
          "internalType": "uint256",
          "name": "amountTokenMin",
          "type": "uint256"
        },
        {
          "internalType": "uint256",
          "name": "amountETHMin",
          "type": "uint256"
        },
        {
          "internalType": "address",
          "name": "to",
          "type": "address"
        },
        {
          "internalType": "uint256",
          "name": "deadline",
          "type": "uint256"
        }
      ],
      "name": "removeLiquidityETH",
      "outputs": [
        {
          "internalType": "uint256",
          "name": "amountToken",
          "type": "uint256"
        },
        {
          "internalType": "uint256",
          "name": "amountETH",
          "type": "uint256"
        }
      ],
      "stateMutability": "nonpayable",
      "type": "function"
    },
    {
      "inputs": [
        {
          "internalType": "uint16",
          "name": "_bps",
          "type": "uint16"
        }
      ],
      "name": "setFeeBps",
      "outputs": [],
      "stateMutability": "nonpayable",
      "type": "function"
    },
    {
      "inputs": [
        {
          "internalType": "address",
          "name": "_owner",
          "type": "address"
        }
      ],
      "name": "setOwner",
      "outputs": [],
      "stateMutability": "nonpayable",
      "type": "function"
    },
    {
      "inputs": [
        {
          "components": [
            {
              "internalType": "address",
              "name": "inToken",
              "type": "address"
            },
            {
              "internalType": "address",
              "name": "outToken",
              "type": "address"
            },
            {
              "internalType": "uint256",
              "name": "amountIn",
              "type": "uint256"
            },
            {
              "internalType": "uint256",
              "name": "minAmountOut",
              "type": "uint256"
            },
            {
              "internalType": "address",
              "name": "to",
              "type": "address"
            },
            {
              "internalType": "address",
              "name": "target",
              "type": "address"
            },
            {
              "internalType": "bytes",
              "name": "data",
              "type": "bytes"
            },
            {
              "internalType": "uint256",
              "name": "deadline",
              "type": "uint256"
            },
            {
              "internalType": "bool",
              "name": "sweep",
              "type": "bool"
            }
          ],
          "internalType": "struct SilverbackUnifiedRouter.SwapParams",
          "name": "p",
          "type": "tuple"
        }
      ],
      "name": "swapAndForward",
      "outputs": [],
      "stateMutability": "payable",
      "type": "function"
    },
    {
      "inputs": [
        {
          "components": [
            {
              "internalType": "address",
              "name": "inToken",
              "type": "address"
            },
            {
              "internalType": "address",
              "name": "outToken",
              "type": "address"
            },
            {
              "internalType": "uint256",
              "name": "amountIn",
              "type": "uint256"
            },
            {
              "internalType": "uint256",
              "name": "minAmountOut",
              "type": "uint256"
            },
            {
              "internalType": "address",
              "name": "to",
              "type": "address"
            },
            {
              "internalType": "address",
              "name": "target",
              "type": "address"
            },
            {
              "internalType": "bytes",
              "name": "data",
              "type": "bytes"
            },
            {
              "internalType": "uint256",
              "name": "deadline",
              "type": "uint256"
            },
            {
              "internalType": "bool",
              "name": "sweep",
              "type": "bool"
            }
          ],
          "internalType": "struct SilverbackUnifiedRouter.SwapParams",
          "name": "p",
          "type": "tuple"
        },
        {
          "components": [
            {
              "internalType": "address",
              "name": "token",
              "type": "address"
            },
            {
              "internalType": "uint256",
              "name": "value",
              "type": "uint256"
            },
            {
              "internalType": "uint256",
              "name": "deadline",
              "type": "uint256"
            },
            {
              "internalType": "uint8",
              "name": "v",
              "type": "uint8"
            },
            {
              "internalType": "bytes32",
              "name": "r",
              "type": "bytes32"
            },
            {
              "internalType": "bytes32",
              "name": "s",
              "type": "bytes32"
            }
          ],
          "internalType": "struct SilverbackUnifiedRouter.PermitData",
          "name": "permit",
          "type": "tuple"
        }
      ],
      "name": "swapAndForward",
      "outputs": [],
      "stateMutability": "payable",
      "type": "function"
    },
    {
      "inputs": [
        {
          "internalType": "uint256",
          "name": "amountOutMin",
          "type": "uint256"
        },
        {
          "internalType": "address[]",
          "name": "path",
          "type": "address[]"
        },
        {
          "internalType": "address",
          "name": "to",
          "type": "address"
        },
        {
          "internalType": "uint256",
          "name": "deadline",
          "type": "uint256"
        }
      ],
      "name": "swapExactETHForTokens",
      "outputs": [
        {
          "internalType": "uint256[]",
          "name": "amounts",
          "type": "uint256[]"
        }
      ],
      "stateMutability": "payable",
      "type": "function"
    },
    {
      "inputs": [
        {
          "internalType": "uint256",
          "name": "amountIn",
          "type": "uint256"
        },
        {
          "internalType": "uint256",
          "name": "amountOutMin",
          "type": "uint256"
        },
        {
          "internalType": "address[]",
          "name": "path",
          "type": "address[]"
        },
        {
          "internalType": "address",
          "name": "to",
          "type": "address"
        },
        {
          "internalType": "uint256",
          "name": "deadline",
          "type": "uint256"
        }
      ],
      "name": "swapExactTokensForETH",
      "outputs": [
        {
          "internalType": "uint256[]",
          "name": "amounts",
          "type": "uint256[]"
        }
      ],
      "stateMutability": "nonpayable",
      "type": "function"
    },
    {
      "inputs": [
        {
          "internalType": "uint256",
          "name": "amountIn",
          "type": "uint256"
        },
        {
          "internalType": "uint256",
          "name": "amountOutMin",
          "type": "uint256"
        },
        {
          "internalType": "address[]",
          "name": "path",
          "type": "address[]"
        },
        {
          "internalType": "address",
          "name": "to",
          "type": "address"
        },
        {
          "internalType": "uint256",
          "name": "deadline",
          "type": "uint256"
        }
      ],
      "name": "swapExactTokensForTokens",
      "outputs": [
        {
          "internalType": "uint256[]",
          "name": "amounts",
          "type": "uint256[]"
        }
      ],
      "stateMutability": "nonpayable",
      "type": "function"
    },
    {
      "stateMutability": "payable",
      "type": "receive"
    }
  ],
  "bytecode": "0x60e0604052600180553480156200001557600080fd5b50604051620059d2380380620059d2833981016040819052620000389162000155565b6001600160a01b038416158015906200005957506001600160a01b03821615155b80156200006e57506001600160a01b03811615155b620000af5760405162461bcd60e51b815260206004820152600c60248201526b5a45524f5f4144445245535360a01b60448201526064015b60405180910390fd5b6103e861ffff84161115620000f65760405162461bcd60e51b815260206004820152600c60248201526b08c8a8abea89e9ebe90928e960a31b6044820152606401620000a6565b6001600160a01b039384166080526000805461ffff949094166001600160b01b03199094169390931733620100000217909255821660a0521660c052620001ba565b80516001600160a01b03811681146200015057600080fd5b919050565b600080600080608085870312156200016c57600080fd5b620001778562000138565b9350602085015161ffff811681146200018f57600080fd5b92506200019f6040860162000138565b9150620001af6060860162000138565b905092959194509250565b60805160a05160c051615701620002d16000396000818161011d0152818161034901528181610592015281816106830152818161077b0152818161096101528181610bfd01528181610fa5015281816110580152818161117501528181611908015281816119c501528181611a3801528181611aae01528181611b270152611b9e01526000818161039d0152818161056301528181610a7101528181610b4201528181610df7015281816110cf01528181611199015281816113db015281816115ff015281816116b101528181611747015281816118d10152818161199601528181611a7f01528181612416015281816124660152612a7b01526000818161029c01528181611ff801526120b801526157016000f3fe60806040526004361061010d5760003560e01c80638da5cb5b11610095578063baa2abde11610064578063baa2abde1461036b578063c45a01551461038b578063d55be8c6146103bf578063e8e33700146103d5578063f305d7191461041057600080fd5b80638da5cb5b146102e9578063a0cf0aea1461030f578063a730d30614610324578063ad5c46481461033757600080fd5b806324a9d853116100dc57806324a9d8531461022957806338ed17391461025757806343e7d4a014610277578063469048401461028a5780637ff36ab5146102d657600080fd5b8063023b1fc91461018257806302751cec146101a257806313af4035146101dc57806318cbafe5146101fc57600080fd5b3661017d57336001600160a01b037f0000000000000000000000000000000000000000000000000000000000000000161461017b5760405162461bcd60e51b815260206004820152600960248201526809e9c98b2beae8aa8960bb1b60448201526064015b60405180910390fd5b005b600080fd5b34801561018e57600080fd5b5061017b61019d366004613248565b610423565b3480156101ae57600080fd5b506101c26101bd36600461328b565b6104ff565b604080519283526020830191909152015b60405180910390f35b3480156101e857600080fd5b5061017b6101f73660046132e9565b61086a565b34801561020857600080fd5b5061021c61021736600461334b565b61090e565b6040516101d391906133be565b34801561023557600080fd5b506000546102449061ffff1681565b60405161ffff90911681526020016101d3565b34801561026357600080fd5b5061021c61027236600461334b565b610d4d565b61017b61028536600461341b565b610efe565b34801561029657600080fd5b506102be7f000000000000000000000000000000000000000000000000000000000000000081565b6040516001600160a01b0390911681526020016101d3565b61021c6102e4366004613450565b610f5a565b3480156102f557600080fd5b506000546102be906201000090046001600160a01b031681565b34801561031b57600080fd5b506102be600081565b61017b6103323660046134b7565b61123a565b34801561034357600080fd5b506102be7f000000000000000000000000000000000000000000000000000000000000000081565b34801561037757600080fd5b506101c2610386366004613511565b611377565b34801561039757600080fd5b506102be7f000000000000000000000000000000000000000000000000000000000000000081565b3480156103cb57600080fd5b506102446103e881565b3480156103e157600080fd5b506103f56103f0366004613583565b6115a6565b604080519384526020840192909252908201526060016101d3565b6103f561041e36600461328b565b611873565b6000546201000090046001600160a01b0316331461046f5760405162461bcd60e51b81526020600482015260096024820152682727aa2fa7aba722a960b91b6044820152606401610172565b6103e861ffff821611156104b45760405162461bcd60e51b815260206004820152600c60248201526b08c8a8abea89e9ebe90928e960a31b6044820152606401610172565b6000805461ffff191661ffff83169081179091556040519081527fc8fcf8ee1425e7e60b8af83735e1eb516d5b9ef05bfd6eece552ebaeb7c75b48906020015b60405180910390a150565b60008060018054146105235760405162461bcd60e51b8152600401610172906135ff565b600260015582428110156105495760405162461bcd60e51b81526004016101729061361f565b60405163e6a4390560e01b81526000906001600160a01b037f0000000000000000000000000000000000000000000000000000000000000000169063e6a43905906105ba908d907f000000000000000000000000000000000000000000000000000000000000000090600401613640565b602060405180830381865afa1580156105d7573d6000803e3d6000fd5b505050506040513d601f19601f820116820180604052508101906105fb919061365a565b90506106098133838c611ce4565b60405163226bf2d160e21b815230600482015260009081906001600160a01b038416906389afcb449060240160408051808303816000875af1158015610653573d6000803e3d6000fd5b505050506040513d601f19601f820116820180604052508101906106779190613677565b9150915060006106a78d7f0000000000000000000000000000000000000000000000000000000000000000611dff565b509050806001600160a01b03168d6001600160a01b0316146106ca5781836106cd565b82825b90975095508a8710156107175760405162461bcd60e51b815260206004820152601260248201527124a729aaa32324a1a4a2a72a2faa27a5a2a760711b6044820152606401610172565b8986101561075a5760405162461bcd60e51b815260206004820152601060248201526f0929ca6aa8c8c9286928a9ca8be8aa8960831b6044820152606401610172565b6107658d8a89611ecd565b604051632e1a7d4d60e01b8152600481018790527f00000000000000000000000000000000000000000000000000000000000000006001600160a01b031690632e1a7d4d90602401600060405180830381600087803b1580156107c757600080fd5b505af11580156107db573d6000803e3d6000fd5b505050506000896001600160a01b03168760405160006040518083038185875af1925050503d806000811461082c576040519150601f19603f3d011682016040523d82523d6000602084013e610831565b606091505b50509050806108525760405162461bcd60e51b81526004016101729061369b565b50505050505060018081905550965096945050505050565b6000546201000090046001600160a01b031633146108b65760405162461bcd60e51b81526020600482015260096024820152682727aa2fa7aba722a960b91b6044820152606401610172565b6000805462010000600160b01b031916620100006001600160a01b038416908102919091179091556040519081527fa2ea9883a321a3e97b8266c2b078bfeec6d50c711ed71f874a90d500ae2eaf36906020016104f4565b606060018054146109315760405162461bcd60e51b8152600401610172906135ff565b600260015581428110156109575760405162461bcd60e51b81526004016101729061361f565b6001600160a01b037f000000000000000000000000000000000000000000000000000000000000000016868661098e6001826136de565b81811061099d5761099d6136f1565b90506020020160208101906109b291906132e9565b6001600160a01b0316146109d85760405162461bcd60e51b815260040161017290613707565b60008054612710906109ee9061ffff168b61372d565b6109f89190613744565b90506000610a06828b6136de565b9050610a3b88886000818110610a1e57610a1e6136f1565b9050602002016020810190610a3391906132e9565b33308d611ce4565b610a6c88886000818110610a5157610a516136f1565b9050602002016020810190610a6691906132e9565b83611fda565b610aca7f0000000000000000000000000000000000000000000000000000000000000000828a8a808060200260200160405190810160405280939291908181526020018383602002808284376000920191909152506120e192505050565b9350888460018651610adc91906136de565b81518110610aec57610aec6136f1565b60200260200101511015610b125760405162461bcd60e51b815260040161017290613766565b610bbc88886000818110610b2857610b286136f1565b9050602002016020810190610b3d91906132e9565b610bb67f00000000000000000000000000000000000000000000000000000000000000008b8b6000818110610b7457610b746136f1565b9050602002016020810190610b8991906132e9565b8c8c6001818110610b9c57610b9c6136f1565b9050602002016020810190610bb191906132e9565b61223c565b83611ecd565b610bfb84898980806020026020016040519081016040528093929190818152602001838360200280828437600092019190915250309250612333915050565b7f00000000000000000000000000000000000000000000000000000000000000006001600160a01b0316632e1a7d4d8560018751610c3991906136de565b81518110610c4957610c496136f1565b60200260200101516040518263ffffffff1660e01b8152600401610c6f91815260200190565b600060405180830381600087803b158015610c8957600080fd5b505af1158015610c9d573d6000803e3d6000fd5b505050506000866001600160a01b03168560018751610cbc91906136de565b81518110610ccc57610ccc6136f1565b602002602001015160405160006040518083038185875af1925050503d8060008114610d14576040519150601f19603f3d011682016040523d82523d6000602084013e610d19565b606091505b5050905080610d3a5760405162461bcd60e51b81526004016101729061369b565b5050600180555090979650505050505050565b60606001805414610d705760405162461bcd60e51b8152600401610172906135ff565b60026001558142811015610d965760405162461bcd60e51b81526004016101729061361f565b6000805461271090610dac9061ffff168b61372d565b610db69190613744565b90506000610dc4828b6136de565b9050610ddc88886000818110610a1e57610a1e6136f1565b610df288886000818110610a5157610a516136f1565b610e507f0000000000000000000000000000000000000000000000000000000000000000828a8a808060200260200160405190810160405280939291908181526020018383602002808284376000920191909152506120e192505050565b9350888460018651610e6291906136de565b81518110610e7257610e726136f1565b60200260200101511015610e985760405162461bcd60e51b815260040161017290613766565b610eae88886000818110610b2857610b286136f1565b610eed848989808060200260200160405190810160405280939291908181526020018383602002808284376000920191909152508b9250612333915050565b505060018055509695505050505050565b6001805414610f1f5760405162461bcd60e51b8152600401610172906135ff565b600260015560e081013542811015610f495760405162461bcd60e51b81526004016101729061361f565b610f528261253b565b505060018055565b60606001805414610f7d5760405162461bcd60e51b8152600401610172906135ff565b60026001558142811015610fa35760405162461bcd60e51b81526004016101729061361f565b7f00000000000000000000000000000000000000000000000000000000000000006001600160a01b031686866000818110610fe057610fe06136f1565b9050602002016020810190610ff591906132e9565b6001600160a01b03161461101b5760405162461bcd60e51b815260040161017290613707565b60008054612710906110319061ffff163461372d565b61103b9190613744565b9050600061104982346136de565b9050611056600083611fda565b7f00000000000000000000000000000000000000000000000000000000000000006001600160a01b031663d0e30db0826040518263ffffffff1660e01b81526004016000604051808303818588803b1580156110b157600080fd5b505af11580156110c5573d6000803e3d6000fd5b50505050506111287f0000000000000000000000000000000000000000000000000000000000000000828a8a808060200260200160405190810160405280939291908181526020018383602002808284376000920191909152506120e192505050565b935088846001865161113a91906136de565b8151811061114a5761114a6136f1565b602002602001015110156111705760405162461bcd60e51b815260040161017290613766565b6111eb7f00000000000000000000000000000000000000000000000000000000000000006111cb7f00000000000000000000000000000000000000000000000000000000000000008b8b6000818110610b7457610b746136f1565b866000815181106111de576111de6136f1565b6020026020010151611ecd565b61122a848989808060200260200160405190810160405280939291908181526020018383602002808284376000920191909152508b9250612333915050565b5050600180555095945050505050565b600180541461125b5760405162461bcd60e51b8152600401610172906135ff565b600260015560e0820135428110156112855760405162461bcd60e51b81526004016101729061361f565b600061129460208401846132e9565b6001600160a01b031614611365576112af60208301836132e9565b6001600160a01b031663d505accf3330602086013560408701356112d96080890160608a01613793565b6040516001600160e01b031960e088901b1681526001600160a01b0395861660048201529490931660248501526044840191909152606483015260ff166084820152608085013560a482015260a085013560c482015260e401600060405180830381600087803b15801561134c57600080fd5b505af1158015611360573d6000803e3d6000fd5b505050505b61136e8361253b565b50506001805550565b600080600180541461139b5760405162461bcd60e51b8152600401610172906135ff565b600260015582428110156113c15760405162461bcd60e51b81526004016101729061361f565b60405163e6a4390560e01b81526000906001600160a01b037f0000000000000000000000000000000000000000000000000000000000000000169063e6a4390590611412908e908e90600401613640565b602060405180830381865afa15801561142f573d6000803e3d6000fd5b505050506040513d601f19601f82011682018060405250810190611453919061365a565b90506114618133838c611ce4565b60405163226bf2d160e21b81526001600160a01b03878116600483015260009182918416906389afcb449060240160408051808303816000875af11580156114ad573d6000803e3d6000fd5b505050506040513d601f19601f820116820180604052508101906114d19190613677565b9150915060006114e18e8e611dff565b509050806001600160a01b03168e6001600160a01b031614611504578183611507565b82825b90975095508a87101561154d5760405162461bcd60e51b815260206004820152600e60248201526d494e53554646494349454e545f4160901b6044820152606401610172565b8986101561158e5760405162461bcd60e51b815260206004820152600e60248201526d24a729aaa32324a1a4a2a72a2fa160911b6044820152606401610172565b50505050506001808190555097509795505050505050565b600080600060018054146115cc5760405162461bcd60e51b8152600401610172906135ff565b600260015583428110156115f25760405162461bcd60e51b81526004016101729061361f565b60006001600160a01b03167f00000000000000000000000000000000000000000000000000000000000000006001600160a01b031663e6a439058e8e6040518363ffffffff1660e01b815260040161164b929190613640565b602060405180830381865afa158015611668573d6000803e3d6000fd5b505050506040513d601f19601f8201168201806040525081019061168c919061365a565b6001600160a01b03160361172d576040516364e329cb60e11b81526001600160a01b037f0000000000000000000000000000000000000000000000000000000000000000169063c9c65396906116e8908f908f90600401613640565b6020604051808303816000875af1158015611707573d6000803e3d6000fd5b505050506040513d601f19601f8201168201806040525081019061172b919061365a565b505b61173b8c8c8c8c8c8c612a70565b809450819550505060007f00000000000000000000000000000000000000000000000000000000000000006001600160a01b031663e6a439058e8e6040518363ffffffff1660e01b8152600401611793929190613640565b602060405180830381865afa1580156117b0573d6000803e3d6000fd5b505050506040513d601f19601f820116820180604052508101906117d4919061365a565b90506117e28d338388611ce4565b6117ee8c338387611ce4565b6040516335313c2160e11b81526001600160a01b038881166004830152821690636a627842906024016020604051808303816000875af1158015611836573d6000803e3d6000fd5b505050506040513d601f19601f8201168201806040525081019061185a91906137b6565b9250505060018081905550985098509895505050505050565b600080600060018054146118995760405162461bcd60e51b8152600401610172906135ff565b600260015583428110156118bf5760405162461bcd60e51b81526004016101729061361f565b60405163e6a4390560e01b81526000907f00000000000000000000000000000000000000000000000000000000000000006001600160a01b03169063e6a4390590611930908e907f000000000000000000000000000000000000000000000000000000000000000090600401613640565b602060405180830381865afa15801561194d573d6000803e3d6000fd5b505050506040513d601f19601f82011682018060405250810190611971919061365a565b6001600160a01b031603611a32576040516364e329cb60e11b81526001600160a01b037f0000000000000000000000000000000000000000000000000000000000000000169063c9c65396906119ed908d907f000000000000000000000000000000000000000000000000000000000000000090600401613640565b6020604051808303816000875af1158015611a0c573d6000803e3d6000fd5b505050506040513d601f19601f82011682018060405250810190611a30919061365a565b505b611a608a7f00000000000000000000000000000000000000000000000000000000000000008b348c8c612a70565b60405163e6a4390560e01b815291955093506000906001600160a01b037f0000000000000000000000000000000000000000000000000000000000000000169063e6a4390590611ad6908e907f000000000000000000000000000000000000000000000000000000000000000090600401613640565b602060405180830381865afa158015611af3573d6000803e3d6000fd5b505050506040513d601f19601f82011682018060405250810190611b17919061365a565b9050611b258b338388611ce4565b7f00000000000000000000000000000000000000000000000000000000000000006001600160a01b031663d0e30db0856040518263ffffffff1660e01b81526004016000604051808303818588803b158015611b8057600080fd5b505af1158015611b94573d6000803e3d6000fd5b5050505050611bc47f00000000000000000000000000000000000000000000000000000000000000008286611ecd565b6040516335313c2160e11b81526001600160a01b038881166004830152821690636a627842906024016020604051808303816000875af1158015611c0c573d6000803e3d6000fd5b505050506040513d601f19601f82011682018060405250810190611c3091906137b6565b925083341115611ccf57600033611c4786346136de565b604051600081818185875af1925050503d8060008114611c83576040519150601f19603f3d011682016040523d82523d6000602084013e611c88565b606091505b5050905080611ccd5760405162461bcd60e51b815260206004820152601160248201527011551217d4915195539117d19052531151607a1b6044820152606401610172565b505b50506001808190555096509650969350505050565b604080516001600160a01b0385811660248301528481166044830152606480830185905283518084039091018152608490920183526020820180516001600160e01b03166323b872dd60e01b1790529151600092839290881691611d4891906137f3565b6000604051808303816000865af19150503d8060008114611d85576040519150601f19603f3d011682016040523d82523d6000602084013e611d8a565b606091505b5091509150818015611db4575080511580611db4575080806020019051810190611db4919061381d565b611df75760405162461bcd60e51b81526020600482015260146024820152731514905394d1915497d19493d357d1905253115160621b6044820152606401610172565b505050505050565b600080826001600160a01b0316846001600160a01b031603611e595760405162461bcd60e51b81526020600482015260136024820152724944454e544943414c5f41444452455353455360681b6044820152606401610172565b826001600160a01b0316846001600160a01b031610611e79578284611e7c565b83835b90925090506001600160a01b038216611ec65760405162461bcd60e51b815260206004820152600c60248201526b5a45524f5f4144445245535360a01b6044820152606401610172565b9250929050565b604080516001600160a01b038481166024830152604480830185905283518084039091018152606490920183526020820180516001600160e01b031663a9059cbb60e01b1790529151600092839290871691611f2991906137f3565b6000604051808303816000865af19150503d8060008114611f66576040519150601f19603f3d011682016040523d82523d6000602084013e611f6b565b606091505b5091509150818015611f95575080511580611f95575080806020019051810190611f95919061381d565b611fd35760405162461bcd60e51b815260206004820152600f60248201526e1514905394d1915497d19052531151608a1b6044820152606401610172565b5050505050565b80600003611fe6575050565b6001600160a01b0382166120b25760007f00000000000000000000000000000000000000000000000000000000000000006001600160a01b03168260405160006040518083038185875af1925050503d8060008114612061576040519150601f19603f3d011682016040523d82523d6000602084013e612066565b606091505b50509050806120ad5760405162461bcd60e51b815260206004820152601360248201527211915157d514905394d1915497d19052531151606a1b6044820152606401610172565b505050565b6120dd827f000000000000000000000000000000000000000000000000000000000000000083611ecd565b5050565b60606002825110156121055760405162461bcd60e51b815260040161017290613707565b815167ffffffffffffffff81111561211f5761211f61383a565b604051908082528060200260200182016040528015612148578160200160208202803683370190505b509050828160008151811061215f5761215f6136f1565b60200260200101818152505060005b6001835161217c91906136de565b811015612234576000806121cf8786858151811061219c5761219c6136f1565b6020026020010151878660016121b29190613850565b815181106121c2576121c26136f1565b6020026020010151612b8a565b915091506121f78484815181106121e8576121e86136f1565b60200260200101518383612d17565b84612203856001613850565b81518110612213576122136136f1565b6020026020010181815250505050808061222c90613863565b91505061216e565b509392505050565b600080600061224b8585611dff565b6040516bffffffffffffffffffffffff19606084811b8216602084015283901b1660348201529193509150600090604801604051602081830303815290604052805190602001209050600060ff60f81b8883604051806020016122ad9061323b565b6020820181038252601f19601f820116604052508051906020012060405160200161230f94939291906001600160f81b031994909416845260609290921b6bffffffffffffffffffffffff191660018401526015830152603582015260550190565b60408051601f19818403018152919052805160209091012098975050505050505050565b60005b6001835161234491906136de565b81101561253557600080848381518110612360576123606136f1565b6020026020010151858460016123769190613850565b81518110612386576123866136f1565b602002602001015191509150600061239e8383611dff565b5090506000876123af866001613850565b815181106123bf576123bf6136f1565b60200260200101519050600080836001600160a01b0316866001600160a01b0316146123ed578260006123f1565b6000835b91509150600060028a5161240591906136de565b8810612411578861245f565b61245f7f0000000000000000000000000000000000000000000000000000000000000000878c6124428c6002613850565b81518110612452576124526136f1565b602002602001015161223c565b905061248c7f0000000000000000000000000000000000000000000000000000000000000000888861223c565b6001600160a01b031663022c0d9f84848460006040519080825280601f01601f1916602001820160405280156124c9576020820181803683370190505b506040518563ffffffff1660e01b81526004016124e994939291906138a8565b600060405180830381600087803b15801561250357600080fd5b505af1158015612517573d6000803e3d6000fd5b5050505050505050505050808061252d90613863565b915050612336565b50505050565b600081604001351180156125685750600061255c60c0830160a084016132e9565b6001600160a01b031614155b6125a55760405162461bcd60e51b815260206004820152600e60248201526d494e56414c49445f504152414d5360901b6044820152606401610172565b60008054612710906125bf9061ffff16604085013561372d565b6125c99190613744565b905060006125db8260408501356136de565b905060006125f76125f260408601602087016132e9565b612e0b565b9050600061260860208601866132e9565b6001600160a01b0316036127a357836040013534101561265d5760405162461bcd60e51b815260206004820152601060248201526f0929ca6aa8c8c9286928a9ca8be8aa8960831b6044820152606401610172565b612668600084611fda565b60008061267b60c0870160a088016132e9565b6001600160a01b03168461269260c08901896138df565b6040516126a0929190613926565b60006040518083038185875af1925050503d80600081146126dd576040519150601f19603f3d011682016040523d82523d6000602084013e6126e2565b606091505b5091509150816126f182612e90565b9061270f5760405162461bcd60e51b81526004016101729190613936565b50337f1dc9727a3f1d868763e46fb1217e02708ca55248762ac0d29fcdc4ff06e0c97861273f60208901896132e9565b61274f60408a0160208b016132e9565b60408a01358961276560c08d0160a08e016132e9565b604080516001600160a01b03968716815294861660208601528401929092526060830152909116608082015260a00160405180910390a25050612931565b6127bf6127b360208601866132e9565b33308760400135611ce4565b6127d56127cf60208601866132e9565b84611fda565b6127fb6127e560208601866132e9565b6127f560c0870160a088016132e9565b84612ee4565b60008061280e60c0870160a088016132e9565b6001600160a01b031661282460c08801886138df565b604051612832929190613926565b6000604051808303816000865af19150503d806000811461286f576040519150601f19603f3d011682016040523d82523d6000602084013e612874565b606091505b50915091508161288382612e90565b906128a15760405162461bcd60e51b81526004016101729190613936565b50337f1dc9727a3f1d868763e46fb1217e02708ca55248762ac0d29fcdc4ff06e0c9786128d160208901896132e9565b6128e160408a0160208b016132e9565b60408a0135896128f760c08d0160a08e016132e9565b604080516001600160a01b03968716815294861660208601528401929092526060830152909116608082015260a00160405180910390a250505b61294361012085016101008601613949565b1561253557600061295d6125f260408701602088016132e9565b9050600082821161296f576000612979565b61297983836136de565b9050856060013581101561299f5760405162461bcd60e51b815260040161017290613766565b8015611df75760006129b760408801602089016132e9565b6001600160a01b031603612a4d5760006129d760a08801608089016132e9565b6001600160a01b03168260405160006040518083038185875af1925050503d8060008114612a21576040519150601f19603f3d011682016040523d82523d6000602084013e612a26565b606091505b5050905080612a475760405162461bcd60e51b81526004016101729061369b565b50611df7565b611df7612a6060408801602089016132e9565b610bb660a0890160808a016132e9565b600080600080612aa17f00000000000000000000000000000000000000000000000000000000000000008b8b612b8a565b91509150816000148015612ab3575080155b15612ac357879350869250612b7d565b6000612ad0898484613182565b9050878111612b255785811015612b1a5760405162461bcd60e51b815260206004820152600e60248201526d24a729aaa32324a1a4a2a72a2fa160911b6044820152606401610172565b889450925082612b7b565b6000612b32898486613182565b905087811015612b755760405162461bcd60e51b815260206004820152600e60248201526d494e53554646494349454e545f4160901b6044820152606401610172565b94508793505b505b5050965096945050505050565b6000806000612b998585611dff565b5090506000866001600160a01b031663e6a4390587876040518363ffffffff1660e01b8152600401612bcc929190613640565b602060405180830381865afa158015612be9573d6000803e3d6000fd5b505050506040513d601f19601f82011682018060405250810190612c0d919061365a565b90506001600160a01b038116612c565760405162461bcd60e51b815260206004820152600e60248201526d1410525497d393d517d193d5539160921b6044820152606401610172565b600080826001600160a01b0316630902f1ac6040518163ffffffff1660e01b8152600401606060405180830381865afa158015612c97573d6000803e3d6000fd5b505050506040513d601f19601f82011682018060405250810190612cbb9190613982565b5091509150836001600160a01b0316886001600160a01b031614612cf257806001600160701b0316826001600160701b0316612d07565b816001600160701b0316816001600160701b03165b909a909950975050505050505050565b6000808411612d685760405162461bcd60e51b815260206004820152601960248201527f494e53554646494349454e545f494e5055545f414d4f554e54000000000000006044820152606401610172565b600083118015612d785750600082115b612dbd5760405162461bcd60e51b8152602060048201526016602482015275494e53554646494349454e545f4c495155494449545960501b6044820152606401610172565b6000612dcb856103e561372d565b90506000612dd9848361372d565b9050600082612dea876103e861372d565b612df49190613850565b9050612e008183613744565b979650505050505050565b60006001600160a01b038216612e22575047919050565b6040516370a0823160e01b81523060048201526001600160a01b038316906370a0823190602401602060405180830381865afa158015612e66573d6000803e3d6000fd5b505050506040513d601f19601f82011682018060405250810190612e8a91906137b6565b92915050565b6060604482511015612eca57505060408051808201909152601281527115105491d15517d0d0531317d1905253115160721b602082015290565b60048201915081806020019051810190612e8a91906139d2565b600080846001600160a01b031663dd62ed3e60e01b3086604051602401612f0c929190613640565b60408051601f198184030181529181526020820180516001600160e01b03166001600160e01b0319909416939093179092529051612f4a91906137f3565b600060405180830381855afa9150503d8060008114612f85576040519150601f19603f3d011682016040523d82523d6000602084013e612f8a565b606091505b5091509150818015612f9e57506020815110155b8015612fbd5750600081806020019051810190612fbb91906137b6565b115b156130a657604080516001600160a01b0386811660248301526000604480840182905284518085039091018152606490930184526020830180516001600160e01b031663095ea7b360e01b17905292519088169161301a916137f3565b6000604051808303816000865af19150503d8060008114613057576040519150601f19603f3d011682016040523d82523d6000602084013e61305c565b606091505b50509050806130a45760405162461bcd60e51b81526020600482015260146024820152731054141493d59157d49154d15517d1905253115160621b6044820152606401610172565b505b604080516001600160a01b038681166024830152604480830187905283518084039091018152606490920183526020820180516001600160e01b031663095ea7b360e01b17905291516000928816916130fe916137f3565b6000604051808303816000865af19150503d806000811461313b576040519150601f19603f3d011682016040523d82523d6000602084013e613140565b606091505b5050905080611df75760405162461bcd60e51b815260206004820152600e60248201526d1054141493d59157d1905253115160921b6044820152606401610172565b60008084116131c95760405162461bcd60e51b8152602060048201526013602482015272125394d551919250d251539517d05353d55395606a1b6044820152606401610172565b6000831180156131d95750600082115b61321e5760405162461bcd60e51b8152602060048201526016602482015275494e53554646494349454e545f4c495155494449545960501b6044820152606401610172565b82613229838661372d565b6132339190613744565b949350505050565b611c5780613a7583390190565b60006020828403121561325a57600080fd5b813561ffff8116811461326c57600080fd5b9392505050565b6001600160a01b038116811461328857600080fd5b50565b60008060008060008060c087890312156132a457600080fd5b86356132af81613273565b955060208701359450604087013593506060870135925060808701356132d481613273565b8092505060a087013590509295509295509295565b6000602082840312156132fb57600080fd5b813561326c81613273565b60008083601f84011261331857600080fd5b50813567ffffffffffffffff81111561333057600080fd5b6020830191508360208260051b8501011115611ec657600080fd5b60008060008060008060a0878903121561336457600080fd5b8635955060208701359450604087013567ffffffffffffffff81111561338957600080fd5b61339589828a01613306565b90955093505060608701356133a981613273565b80925050608087013590509295509295509295565b6020808252825182820181905260009190848201906040850190845b818110156133f6578351835292840192918401916001016133da565b50909695505050505050565b6000610120828403121561341557600080fd5b50919050565b60006020828403121561342d57600080fd5b813567ffffffffffffffff81111561344457600080fd5b61323384828501613402565b60008060008060006080868803121561346857600080fd5b85359450602086013567ffffffffffffffff81111561348657600080fd5b61349288828901613306565b90955093505060408601356134a681613273565b949793965091946060013592915050565b60008082840360e08112156134cb57600080fd5b833567ffffffffffffffff8111156134e257600080fd5b6134ee86828701613402565b93505060c0601f198201121561350357600080fd5b506020830190509250929050565b600080600080600080600060e0888a03121561352c57600080fd5b873561353781613273565b9650602088013561354781613273565b955060408801359450606088013593506080880135925060a088013561356c81613273565b8092505060c0880135905092959891949750929550565b600080600080600080600080610100898b0312156135a057600080fd5b88356135ab81613273565b975060208901356135bb81613273565b965060408901359550606089013594506080890135935060a0890135925060c08901356135e781613273565b8092505060e089013590509295985092959890939650565b6020808252600690820152651313d0d2d15160d21b604082015260600190565b6020808252600790820152661156141254915160ca1b604082015260600190565b6001600160a01b0392831681529116602082015260400190565b60006020828403121561366c57600080fd5b815161326c81613273565b6000806040838503121561368a57600080fd5b505080516020909101519092909150565b60208082526013908201527211551217d514905394d1915497d19052531151606a1b604082015260600190565b634e487b7160e01b600052601160045260246000fd5b81810381811115612e8a57612e8a6136c8565b634e487b7160e01b600052603260045260246000fd5b6020808252600c908201526b0929cac82989288bea082a8960a31b604082015260600190565b8082028115828204841417612e8a57612e8a6136c8565b60008261376157634e487b7160e01b600052601260045260246000fd5b500490565b602080825260139082015272125394d551919250d251539517d3d555141555606a1b604082015260600190565b6000602082840312156137a557600080fd5b813560ff8116811461326c57600080fd5b6000602082840312156137c857600080fd5b5051919050565b60005b838110156137ea5781810151838201526020016137d2565b50506000910152565b600082516138058184602087016137cf565b9190910192915050565b801515811461328857600080fd5b60006020828403121561382f57600080fd5b815161326c8161380f565b634e487b7160e01b600052604160045260246000fd5b80820180821115612e8a57612e8a6136c8565b600060018201613875576138756136c8565b5060010190565b600081518084526138948160208601602086016137cf565b601f01601f19169290920160200192915050565b84815283602082015260018060a01b03831660408201526080606082015260006138d5608083018461387c565b9695505050505050565b6000808335601e198436030181126138f657600080fd5b83018035915067ffffffffffffffff82111561391157600080fd5b602001915036819003821315611ec657600080fd5b8183823760009101908152919050565b60208152600061326c602083018461387c565b60006020828403121561395b57600080fd5b813561326c8161380f565b80516001600160701b038116811461397d57600080fd5b919050565b60008060006060848603121561399757600080fd5b6139a084613966565b92506139ae60208501613966565b9150604084015163ffffffff811681146139c757600080fd5b809150509250925092565b6000602082840312156139e457600080fd5b815167ffffffffffffffff808211156139fc57600080fd5b818401915084601f830112613a1057600080fd5b815181811115613a2257613a2261383a565b604051601f8201601f19908116603f01168101908382118183101715613a4a57613a4a61383a565b81604052828152876020848701011115613a6357600080fd5b612e008360208301602088016137cf56fe6080604052600160095534801561001557600080fd5b50600080546001600160a01b03191633178155604080518082018252600d81526c053696c7665726261636b2d4c5609c1b6020918201528151808301835260018152603160f81b9082015281517f8b73c3c69bb8fe3d512ecc4cf759cc79239f7b179b0ffacaa9a75d522b39400f818301527f85de88e7213dc87891b4afe9ad494c76604bd5eb364a5d052edb61182afa6b5f818401527fc89efdaa54c0f20c7adf612882df0950f5a951637e0307cdcb4c672f298b8bc660608201524660808201523060a0808301919091528351808303909101815260c09091019092528151910120600755611b4b90819061010c90396000f3fe608060405234801561001057600080fd5b506004361061014d5760003560e01c80636a627842116100c3578063bc25cf771161007c578063bc25cf7714610356578063c45a015514610369578063d21220a71461037c578063d505accf1461038f578063dd62ed3e146103a2578063fff6cae9146103cd57600080fd5b80636a627842146102a757806370a08231146102ba5780637ecebe00146102da57806389afcb44146102fa57806395d89b4114610322578063a9059cbb1461034357600080fd5b806318160ddd1161011557806318160ddd1461022b57806323b872dd1461024257806330adf81f14610255578063313ce5671461027c5780633644e5151461028b578063485cc9551461029457600080fd5b8063022c0d9f1461015257806306fdde03146101675780630902f1ac146101a2578063095ea7b3146101dd5780630dfe168114610200575b600080fd5b610165610160366004611796565b6103d5565b005b60408051808201909152600d81526c053696c7665726261636b2d4c5609c1b60208201525b604051610199919061184e565b60405180910390f35b600354604080516001600160701b038084168252600160701b8404166020820152600160e01b90920463ffffffff1690820152606001610199565b6101f06101eb366004611881565b610848565b6040519015158152602001610199565b600154610213906001600160a01b031681565b6040516001600160a01b039091168152602001610199565b61023460045481565b604051908152602001610199565b6101f06102503660046118ab565b6108b5565b6102347f6e71edae12b1b97f4d1f60370fef10105fa2faae0126114a169c64845d6126c981565b60405160128152602001610199565b61023460075481565b6101656102a23660046118e7565b610927565b6102346102b536600461191a565b61099b565b6102346102c836600461191a565b60056020526000908152604090205481565b6102346102e836600461191a565b60086020526000908152604090205481565b61030d61030836600461191a565b610c29565b60408051928352602083019190915201610199565b604080518082019091526005815264053422d4c560dc1b602082015261018c565b6101f0610351366004611881565b610f70565b61016561036436600461191a565b610f86565b600054610213906001600160a01b031681565b600254610213906001600160a01b031681565b61016561039d366004611935565b611065565b6102346103b03660046118e7565b600660209081526000928352604080842090915290825290205481565b6101656112b3565b6001600954146104005760405162461bcd60e51b81526004016103f7906119a8565b60405180910390fd5b6002600955841515806104135750600084115b6104555760405162461bcd60e51b8152602060048201526013602482015272125394d551919250d251539517d3d555141555606a1b60448201526064016103f7565b6001546001600160a01b0384811691161480159061048157506002546001600160a01b03848116911614155b6104ba5760405162461bcd60e51b815260206004820152600a602482015269494e56414c49445f544f60b01b60448201526064016103f7565b6003546001600160701b0380821691600160701b90041686156104ee576001546104ee906001600160a01b031686896112e7565b851561050b5760025461050b906001600160a01b031686886112e7565b821561057857604051637062a49960e11b81526001600160a01b0386169063e0c54932906105459033908b908b908a908a906004016119c8565b600060405180830381600087803b15801561055f57600080fd5b505af1158015610573573d6000803e3d6000fd5b505050505b6001546040516370a0823160e01b81523060048201526000916001600160a01b0316906370a0823190602401602060405180830381865afa1580156105c1573d6000803e3d6000fd5b505050506040513d601f19601f820116820180604052508101906105e59190611a14565b6002546040516370a0823160e01b81523060048201529192506000916001600160a01b03909116906370a0823190602401602060405180830381865afa158015610633573d6000803e3d6000fd5b505050506040513d601f19601f820116820180604052508101906106579190611a14565b9050600061066e8a6001600160701b038716611a43565b831161067b576000610698565b61068e8a6001600160701b038716611a43565b6106989084611a43565b905060006106af8a6001600160701b038716611a43565b83116106bc5760006106d9565b6106cf8a6001600160701b038716611a43565b6106d99084611a43565b905060008211806106ea5750600081115b61072b5760405162461bcd60e51b8152602060048201526012602482015271125394d551919250d251539517d25394155560721b60448201526064016103f7565b6000610738836019611a56565b61074486612710611a56565b61074e9190611a43565b9050600061075d836019611a56565b61076986612710611a56565b6107739190611a43565b905061078b6001600160701b03808916908a16611a56565b610799906305f5e100611a56565b6107a38284611a56565b10156107d55760405162461bcd60e51b81526020600482015260016024820152604b60f81b60448201526064016103f7565b50506107e184846113f4565b60408051838152602081018390529081018c9052606081018b90526001600160a01b038a169033907fd78ad95fa46c994b6551d0da85fc275fe613ce37657fb8d5e3d130840159d8229060800160405180910390a350506001600955505050505050505050565b3360008181526006602090815260408083206001600160a01b038716808552925280832085905551919290917f8c5be1e5ebec7d5bd14f71427d1e84f3dd0314c0f7b2291e5b200ac8c7c3b925906108a39086815260200190565b60405180910390a35060015b92915050565b6001600160a01b03831660009081526006602090815260408083203384529091528120546000198114610911576108ec8382611a43565b6001600160a01b03861660009081526006602090815260408083203384529091529020555b61091c8585856114f2565b506001949350505050565b6000546001600160a01b0316331461096d5760405162461bcd60e51b81526020600482015260096024820152682327a92124a22222a760b91b60448201526064016103f7565b600180546001600160a01b039384166001600160a01b03199182161790915560028054929093169116179055565b60006001600954146109bf5760405162461bcd60e51b81526004016103f7906119a8565b60026009556003546001546040516370a0823160e01b81523060048201526001600160701b0380841693600160701b900416916000916001600160a01b03909116906370a0823190602401602060405180830381865afa158015610a27573d6000803e3d6000fd5b505050506040513d601f19601f82011682018060405250810190610a4b9190611a14565b6002546040516370a0823160e01b81523060048201529192506000916001600160a01b03909116906370a0823190602401602060405180830381865afa158015610a99573d6000803e3d6000fd5b505050506040513d601f19601f82011682018060405250810190610abd9190611a14565b90506000610ad46001600160701b03861684611a43565b90506000610aeb6001600160701b03861684611a43565b9050600454600003610b2a576103e8610b0c610b078385611a56565b6115e9565b610b169190611a43565b9650610b2560006103e8611659565b610b79565b610b76866001600160701b031660045484610b459190611a56565b610b4f9190611a83565b866001600160701b031660045484610b679190611a56565b610b719190611a83565b6116e3565b96505b60008711610bc95760405162461bcd60e51b815260206004820152601d60248201527f494e53554646494349454e545f4c49515549444954595f4d494e54454400000060448201526064016103f7565b610bd38888611659565b610bdd84846113f4565b604080518381526020810183905233917f4c209b5fc8ad50758f13e2e1088ba56a560dff690a1c6fef26394f4c03821c4f910160405180910390a2505060016009555092949350505050565b600080600160095414610c4e5760405162461bcd60e51b81526004016103f7906119a8565b60026009556001600160a01b038316610c985760405162461bcd60e51b815260206004820152600c60248201526b5a45524f5f4144445245535360a01b60448201526064016103f7565b6001546040516370a0823160e01b81523060048201526000916001600160a01b0316906370a0823190602401602060405180830381865afa158015610ce1573d6000803e3d6000fd5b505050506040513d601f19601f82011682018060405250810190610d059190611a14565b6002546040516370a0823160e01b81523060048201529192506000916001600160a01b03909116906370a0823190602401602060405180830381865afa158015610d53573d6000803e3d6000fd5b505050506040513d601f19601f82011682018060405250810190610d779190611a14565b3060009081526005602052604090205490915080610dd05760405162461bcd60e51b8152602060048201526016602482015275494e53554646494349454e545f4c495155494449545960501b60448201526064016103f7565b600454610ddd8483611a56565b610de79190611a83565b600454909550610df78383611a56565b610e019190611a83565b9350610e0d30826116fb565b600154610e24906001600160a01b031687876112e7565b600254610e3b906001600160a01b031687866112e7565b6001546040516370a0823160e01b8152306004820152610f1b916001600160a01b0316906370a08231906024015b602060405180830381865afa158015610e86573d6000803e3d6000fd5b505050506040513d601f19601f82011682018060405250810190610eaa9190611a14565b6002546040516370a0823160e01b81523060048201526001600160a01b03909116906370a0823190602401602060405180830381865afa158015610ef2573d6000803e3d6000fd5b505050506040513d601f19601f82011682018060405250810190610f169190611a14565b6113f4565b60408051868152602081018690526001600160a01b0388169133917fdccd412f0b1252819cb1fd330b93224ca42612892bb3f4f789976e6d81936496910160405180910390a350506001600955509092909150565b6000610f7d3384846114f2565b50600192915050565b6001546003546040516370a0823160e01b8152306004820152611017926001600160a01b03169184916001600160701b039091169083906370a08231906024015b602060405180830381865afa158015610fe4573d6000803e3d6000fd5b505050506040513d601f19601f820116820180604052508101906110089190611a14565b6110129190611a43565b6112e7565b6002546003546040516370a0823160e01b8152306004820152611062926001600160a01b0316918491600160701b9091046001600160701b03169083906370a0823190602401610fc7565b50565b4284101561109f5760405162461bcd60e51b81526020600482015260076024820152661156141254915160ca1b60448201526064016103f7565b6007546001600160a01b038816600090815260086020526040812080549192917f6e71edae12b1b97f4d1f60370fef10105fa2faae0126114a169c64845d6126c9918b918b918b9190876110f283611a97565b909155506040805160208101969096526001600160a01b0394851690860152929091166060840152608083015260a082015260c0810187905260e0016040516020818303038152906040528051906020012060405160200161116b92919061190160f01b81526002810192909252602282015260420190565b60408051601f198184030181528282528051602091820120600080855291840180845281905260ff88169284019290925260608301869052608083018590529092509060019060a0016020604051602081039080840390855afa1580156111d6573d6000803e3d6000fd5b5050604051601f1901519150506001600160a01b0381161580159061120c5750886001600160a01b0316816001600160a01b0316145b61124c5760405162461bcd60e51b8152602060048201526011602482015270494e56414c49445f5349474e415455524560781b60448201526064016103f7565b6001600160a01b038981166000818152600660209081526040808320948d16808452948252918290208b905590518a81527f8c5be1e5ebec7d5bd14f71427d1e84f3dd0314c0f7b2291e5b200ac8c7c3b925910160405180910390a3505050505050505050565b6001546040516370a0823160e01b81523060048201526112e5916001600160a01b0316906370a0823190602401610e69565b565b604080516001600160a01b038481166024830152604480830185905283518084039091018152606490920183526020820180516001600160e01b031663a9059cbb60e01b17905291516000928392908716916113439190611ab0565b6000604051808303816000865af19150503d8060008114611380576040519150601f19603f3d011682016040523d82523d6000602084013e611385565b606091505b50915091508180156113af5750805115806113af5750808060200190518101906113af9190611acc565b6113ed5760405162461bcd60e51b815260206004820152600f60248201526e1514905394d1915497d19052531151608a1b60448201526064016103f7565b5050505050565b6001600160701b03821180159061141257506001600160701b038111155b6114495760405162461bcd60e51b81526020600482015260086024820152674f564552464c4f5760c01b60448201526064016103f7565b600061145a64010000000042611aee565b6003805463ffffffff8316600160e01b026001600160e01b036001600160701b03878116600160701b9081026001600160e01b03199095168a83161794909417918216831794859055604080519382169282169290921783529290930490911660208201529192507f1c411e9a96e071241c2f21f7726b17ae89e3cab4c78be50e062b03a9fffbbad1910160405180910390a1505050565b6001600160a01b03821661153b5760405162461bcd60e51b815260206004820152601060248201526f5452414e534645525f544f5f5a45524f60801b60448201526064016103f7565b6001600160a01b03831660009081526005602052604081208054839290611563908490611a43565b90915550506001600160a01b03821660009081526005602052604081208054839290611590908490611b02565b92505081905550816001600160a01b0316836001600160a01b03167fddf252ad1be2c89b69c2b068fc378daa952ba7f163c4a11628f55a4df523b3ef836040516115dc91815260200190565b60405180910390a3505050565b6000600382111561164a5750806000611603600283611a83565b61160e906001611b02565b90505b81811015611644579050806002816116298186611a83565b6116339190611b02565b61163d9190611a83565b9050611611565b50919050565b8115611654575060015b919050565b806004600082825461166b9190611b02565b90915550506001600160a01b03821660009081526005602052604081208054839290611698908490611b02565b90915550506040518181526001600160a01b038316906000907fddf252ad1be2c89b69c2b068fc378daa952ba7f163c4a11628f55a4df523b3ef906020015b60405180910390a35050565b60008183106116f257816116f4565b825b9392505050565b6001600160a01b03821660009081526005602052604081208054839290611723908490611a43565b92505081905550806004600082825461173c9190611a43565b90915550506040518181526000906001600160a01b038416907fddf252ad1be2c89b69c2b068fc378daa952ba7f163c4a11628f55a4df523b3ef906020016116d7565b80356001600160a01b038116811461165457600080fd5b6000806000806000608086880312156117ae57600080fd5b85359450602086013593506117c56040870161177f565b9250606086013567ffffffffffffffff808211156117e257600080fd5b818801915088601f8301126117f657600080fd5b81358181111561180557600080fd5b89602082850101111561181757600080fd5b9699959850939650602001949392505050565b60005b8381101561184557818101518382015260200161182d565b50506000910152565b602081526000825180602084015261186d81604085016020870161182a565b601f01601f19169190910160400192915050565b6000806040838503121561189457600080fd5b61189d8361177f565b946020939093013593505050565b6000806000606084860312156118c057600080fd5b6118c98461177f565b92506118d76020850161177f565b9150604084013590509250925092565b600080604083850312156118fa57600080fd5b6119038361177f565b91506119116020840161177f565b90509250929050565b60006020828403121561192c57600080fd5b6116f48261177f565b600080600080600080600060e0888a03121561195057600080fd5b6119598861177f565b96506119676020890161177f565b95506040880135945060608801359350608088013560ff8116811461198b57600080fd5b9699959850939692959460a0840135945060c09093013592915050565b6020808252600690820152651313d0d2d15160d21b604082015260600190565b60018060a01b038616815284602082015283604082015260806060820152816080820152818360a0830137600081830160a090810191909152601f909201601f19160101949350505050565b600060208284031215611a2657600080fd5b5051919050565b634e487b7160e01b600052601160045260246000fd5b818103818111156108af576108af611a2d565b80820281158282048414176108af576108af611a2d565b634e487b7160e01b600052601260045260246000fd5b600082611a9257611a92611a6d565b500490565b600060018201611aa957611aa9611a2d565b5060010190565b60008251611ac281846020870161182a565b9190910192915050565b600060208284031215611ade57600080fd5b815180151581146116f457600080fd5b600082611afd57611afd611a6d565b500690565b808201808211156108af576108af611a2d56fea26469706673582212207d63d8c1f7a9d160369a23fd37a062fdc99df4af0fbdc738f39d28969461d58e64736f6c63430008140033a26469706673582212207bfca8aad73b262ff04733b1ac40b00b87db74f6b43dd792d68956e8fc41accd64736f6c63430008140033",
  "linkReferences": {},
  "deployedLinkReferences": {}
}