{
  "_format": "hh-sol-artifact-1",
  "contractName": "SilverbackPair",
  "sourceName": "contracts/SilverbackPair.sol",
  "abi": [
    {
      "inputs": [],
      "stateMutability": "nonpayable",
      "type": "constructor"
    },
    {
      "anonymous": false,
      "inputs": [
        {
          "indexed": true,
          "internalType": "address",
          "name": "owner",
          "type": "address"
        },
        {
          "indexed": true,
          "internalType": "address",
          "name": "spender",
          "type": "address"
        },
        {
          "indexed": false,
          "internalType": "uint256",
          "name": "value",
          "type": "uint256"
        }
      ],
      "name": "Approval",
      "type": "event"
    },
    {
      "anonymous": false,
      "inputs": [
        {
          "indexed": true,
          "internalType": "address",
          "name": "sender",
          "type": "address"
        },
        {
          "indexed": false,
          "internalType": "uint256",
          "name": "amount0",
          "type": "uint256"
        },
        {
          "indexed": false,
          "internalType": "uint256",
          "name": "amount1",
          "type": "uint256"
        },
        {
          "indexed": true,
          "internalType": "address",
          "name": "to",
          "type": "address"
        }
      ],
      "name": "Burn",
      "type": "event"
    },
    {
      "anonymous": false,
      "inputs": [
        {
          "indexed": true,
          "internalType": "address",
          "name": "sender",
          "type": "address"
        },
        {
          "indexed": false,
          "internalType": "uint256",
          "name": "amount0",
          "type": "uint256"
        },
        {
          "indexed": false,
          "internalType": "uint256",
          "name": "amount1",
          "type": "uint256"
        }
      ],
      "name": "Mint",
      "type": "event"
    },
    {
      "anonymous": false,
      "inputs": [
        {
          "indexed": true,
          "internalType": "address",
          "name": "sender",
          "type": "address"
        },
        {
          "indexed": false,
          "internalType": "uint256",
          "name": "amount0In",
          "type": "uint256"
        },
        {
          "indexed": false,
          "internalType": "uint256",
          "name": "amount1In",
          "type": "uint256"
        },
        {
          "indexed": false,
          "internalType": "uint256",
          "name": "amount0Out",
          "type": "uint256"
        },
        {
          "indexed": false,
          "internalType": "uint256",
          "name": "amount1Out",
          "type": "uint256"
        },
        {
          "indexed": true,
          "internalType": "address",
          "name": "to",
          "type": "address"
        }
      ],
      "name": "Swap",
      "type": "event"
    },
    {
      "anonymous": false,
      "inputs": [
        {
          "indexed": false,
          "internalType": "uint112",
          "name": "reserve0",
          "type": "uint112"
        },
        {
          "indexed": false,
          "internalType": "uint112",
          "name": "reserve1",
          "type": "uint112"
        }
      ],
      "name": "Sync",
      "type": "event"
    },
    {
      "anonymous": false,
      "inputs": [
        {
          "indexed": true,
          "internalType": "address",
          "name": "from",
          "type": "address"
        },
        {
          "indexed": true,
          "internalType": "address",
          "name": "to",
          "type": "address"
        },
        {
          "indexed": false,
          "internalType": "uint256",
          "name": "value",
          "type": "uint256"
        }
      ],
      "name": "Transfer",
      "type": "event"
    },
    {
      "inputs": [],
      "name": "DOMAIN_SEPARATOR",
      "outputs": [
        {
          "internalType": "bytes32",
          "name": "",
          "type": "bytes32"
        }
      ],
      "stateMutability": "view",
      "type": "function"
    },
    {
      "inputs": [],
      "name": "PERMIT_TYPEHASH",
      "outputs": [
        {
          "internalType": "bytes32",
          "name": "",
          "type": "bytes32"
        }
      ],
      "stateMutability": "view",
      "type": "function"
    },
    {
      "inputs": [
        {
          "internalType": "address",
          "name": "",
          "type": "address"
        },
        {
          "internalType": "address",
          "name": "",
          "type": "address"
        }
      ],
      "name": "allowance",
      "outputs": [
        {
          "internalType": "uint256",
          "name": "",
          "type": "uint256"
        }
      ],
      "stateMutability": "view",
      "type": "function"
    },
    {
      "inputs": [
        {
          "internalType": "address",
          "name": "spender",
          "type": "address"
        },
        {
          "internalType": "uint256",
          "name": "value",
          "type": "uint256"
        }
      ],
      "name": "approve",
      "outputs": [
        {
          "internalType": "bool",
          "name": "",
          "type": "bool"
        }
      ],
      "stateMutability": "nonpayable",
      "type": "function"
    },
    {
      "inputs": [
        {
          "internalType": "address",
          "name": "",
          "type": "address"
        }
      ],
      "name": "balanceOf",
      "outputs": [
        {
          "internalType": "uint256",
          "name": "",
          "type": "uint256"
        }
      ],
      "stateMutability": "view",
      "type": "function"
    },
    {
      "inputs": [
        {
          "internalType": "address",
          "name": "to",
          "type": "address"
        }
      ],
      "name": "burn",
      "outputs": [
        {
          "internalType": "uint256",
          "name": "amount0",
          "type": "uint256"
        },
        {
          "internalType": "uint256",
          "name": "amount1",
          "type": "uint256"
        }
      ],
      "stateMutability": "nonpayable",
      "type": "function"
    },
    {
      "inputs": [],
      "name": "decimals",
      "outputs": [
        {
          "internalType": "uint8",
          "name": "",
          "type": "uint8"
        }
      ],
      "stateMutability": "pure",
      "type": "function"
    },
    {
      "inputs": [],
      "name": "factory",
      "outputs": [
        {
          "internalType": "address",
          "name": "",
          "type": "address"
        }
      ],
      "stateMutability": "view",
      "type": "function"
    },
    {
      "inputs": [],
      "name": "getReserves",
      "outputs": [
        {
          "internalType": "uint112",
          "name": "",
          "type": "uint112"
        },
        {
          "internalType": "uint112",
          "name": "",
          "type": "uint112"
        },
        {
          "internalType": "uint32",
          "name": "",
          "type": "uint32"
        }
      ],
      "stateMutability": "view",
      "type": "function"
    },
    {
      "inputs": [
        {
          "internalType": "address",
          "name": "_token0",
          "type": "address"
        },
        {
          "internalType": "address",
          "name": "_token1",
          "type": "address"
        }
      ],
      "name": "initialize",
      "outputs": [],
      "stateMutability": "nonpayable",
      "type": "function"
    },
    {
      "inputs": [
        {
          "internalType": "address",
          "name": "to",
          "type": "address"
        }
      ],
      "name": "mint",
      "outputs": [
        {
          "internalType": "uint256",
          "name": "liquidity",
          "type": "uint256"
        }
      ],
      "stateMutability": "nonpayable",
      "type": "function"
    },
    {
      "inputs": [],
      "name": "name",
      "outputs": [
        {
          "internalType": "string",
          "name": "",
          "type": "string"
        }
      ],
      "stateMutability": "pure",
      "type": "function"
    },
    {
      "inputs": [
        {
          "internalType": "address",
          "name": "",
          "type": "address"
        }
      ],
      "name": "nonces",
      "outputs": [
        {
          "internalType": "uint256",
          "name": "",
          "type": "uint256"
        }
      ],
      "stateMutability": "view",
      "type": "function"
    },
    {
      "inputs": [
        {
          "internalType": "address",
          "name": "owner",
          "type": "address"
        },
        {
          "internalType": "address",
          "name": "spender",
          "type": "address"
        },
        {
          "internalType": "uint256",
          "name": "value",
          "type": "uint256"
        },
        {
          "internalType": "uint256",
          "name": "deadline",
          "type": "uint256"
        },
        {
          "internalType": "uint8",
          "name": "v",
          "type": "uint8"
        },
        {
          "internalType": "bytes32",
          "name": "r",
          "type": "bytes32"
        },
        {
          "internalType": "bytes32",
          "name": "s",
          "type": "bytes32"
        }
      ],
      "name": "permit",
      "outputs": [],
      "stateMutability": "nonpayable",
      "type": "function"
    },
    {
      "inputs": [
        {
          "internalType": "address",
          "name": "to",
          "type": "address"
        }
      ],
      "name": "skim",
      "outputs": [],
      "stateMutability": "nonpayable",
      "type": "function"
    },
    {
      "inputs": [
        {
          "internalType": "uint256",
          "name": "amount0Out",
          "type": "uint256"
        },
        {
          "internalType": "uint256",
          "name": "amount1Out",
          "type": "uint256"
        },
        {
          "internalType": "address",
          "name": "to",
          "type": "address"
        },
        {
          "internalType": "bytes",
          "name": "data",
          "type": "bytes"
        }
      ],
      "name": "swap",
      "outputs": [],
      "stateMutability": "nonpayable",
      "type": "function"
    },
    {
      "inputs": [],
      "name": "symbol",
      "outputs": [
        {
          "internalType": "string",
          "name": "",
          "type": "string"
        }
      ],
      "stateMutability": "pure",
      "type": "function"
    },
    {
      "inputs": [],
      "name": "sync",
      "outputs": [],
      "stateMutability": "nonpayable",
      "type": "function"
    },
    {
      "inputs": [],
      "name": "token0",
      "outputs": [
        {
          "internalType": "address",
          "name": "",
          "type": "address"
        }
      ],
      "stateMutability": "view",
      "type": "function"
    },
    {
      "inputs": [],
      "name": "token1",
      "outputs": [
        {
          "internalType": "address",
          "name": "",
          "type": "address"
        }
      ],
      "stateMutability": "view",
      "type": "function"
    },
    {
      "inputs": [],
      "name": "totalSupply",
      "outputs": [
        {
          "internalType": "uint256",
          "name": "",
          "type": "uint256"
        }
      ],
      "stateMutability": "view",
      "type": "function"
    },
    {
      "inputs": [
        {
          "internalType": "address",
          "name": "to",
          "type": "address"
        },
        {
          "internalType": "uint256",
          "name": "value",
          "type": "uint256"
        }
      ],
      "name": "transfer",
      "outputs": [
        {
          "internalType": "bool",
          "name": "",
          "type": "bool"
        }
      ],
      "stateMutability": "nonpayable",
      "type": "function"
    },
    {
      "inputs": [
        {
          "internalType": "address",
          "name": "from",
          "type": "address"
        },
        {
          "internalType": "address",
          "name": "to",
          "type": "address"
        },
        {
          "internalType": "uint256",
          "name": "value",
          "type": "uint256"
        }
      ],
      "name": "transferFrom",
      "outputs": [
        {
          "internalType": "bool",
          "name": "",
          "type": "bool"
        }
      ],
      "stateMutability": "nonpayable",
      "type": "function"
    }
  ],
  "bytecode": "0x6080604052600160095534801561001557600080fd5b50600080546001600160a01b03191633178155604080518082018252600d81526c053696c7665726261636b2d4c5609c1b6020918201528151808301835260018152603160f81b9082015281517f8b73c3c69bb8fe3d512ecc4cf759cc79239f7b179b0ffacaa9a75d522b39400f818301527f85de88e7213dc87891b4afe9ad494c76604bd5eb364a5d052edb61182afa6b5f818401527fc89efdaa54c0f20c7adf612882df0950f5a951637e0307cdcb4c672f298b8bc660608201524660808201523060a0808301919091528351808303909101815260c09091019092528151910120600755611b4b90819061010c90396000f3fe608060405234801561001057600080fd5b506004361061014d5760003560e01c80636a627842116100c3578063bc25cf771161007c578063bc25cf7714610356578063c45a015514610369578063d21220a71461037c578063d505accf1461038f578063dd62ed3e146103a2578063fff6cae9146103cd57600080fd5b80636a627842146102a757806370a08231146102ba5780637ecebe00146102da57806389afcb44146102fa57806395d89b4114610322578063a9059cbb1461034357600080fd5b806318160ddd1161011557806318160ddd1461022b57806323b872dd1461024257806330adf81f14610255578063313ce5671461027c5780633644e5151461028b578063485cc9551461029457600080fd5b8063022c0d9f1461015257806306fdde03146101675780630902f1ac146101a2578063095ea7b3146101dd5780630dfe168114610200575b600080fd5b610165610160366004611796565b6103d5565b005b60408051808201909152600d81526c053696c7665726261636b2d4c5609c1b60208201525b604051610199919061184e565b60405180910390f35b600354604080516001600160701b038084168252600160701b8404166020820152600160e01b90920463ffffffff1690820152606001610199565b6101f06101eb366004611881565b610848565b6040519015158152602001610199565b600154610213906001600160a01b031681565b6040516001600160a01b039091168152602001610199565b61023460045481565b604051908152602001610199565b6101f06102503660046118ab565b6108b5565b6102347f6e71edae12b1b97f4d1f60370fef10105fa2faae0126114a169c64845d6126c981565b60405160128152602001610199565b61023460075481565b6101656102a23660046118e7565b610927565b6102346102b536600461191a565b61099b565b6102346102c836600461191a565b60056020526000908152604090205481565b6102346102e836600461191a565b60086020526000908152604090205481565b61030d61030836600461191a565b610c29565b60408051928352602083019190915201610199565b604080518082019091526005815264053422d4c560dc1b602082015261018c565b6101f0610351366004611881565b610f70565b61016561036436600461191a565b610f86565b600054610213906001600160a01b031681565b600254610213906001600160a01b031681565b61016561039d366004611935565b611065565b6102346103b03660046118e7565b600660209081526000928352604080842090915290825290205481565b6101656112b3565b6001600954146104005760405162461bcd60e51b81526004016103f7906119a8565b60405180910390fd5b6002600955841515806104135750600084115b6104555760405162461bcd60e51b8152602060048201526013602482015272125394d551919250d251539517d3d555141555606a1b60448201526064016103f7565b6001546001600160a01b0384811691161480159061048157506002546001600160a01b03848116911614155b6104ba5760405162461bcd60e51b815260206004820152600a602482015269494e56414c49445f544f60b01b60448201526064016103f7565b6003546001600160701b0380821691600160701b90041686156104ee576001546104ee906001600160a01b031686896112e7565b851561050b5760025461050b906001600160a01b031686886112e7565b821561057857604051637062a49960e11b81526001600160a01b0386169063e0c54932906105459033908b908b908a908a906004016119c8565b600060405180830381600087803b15801561055f57600080fd5b505af1158015610573573d6000803e3d6000fd5b505050505b6001546040516370a0823160e01b81523060048201526000916001600160a01b0316906370a0823190602401602060405180830381865afa1580156105c1573d6000803e3d6000fd5b505050506040513d601f19601f820116820180604052508101906105e59190611a14565b6002546040516370a0823160e01b81523060048201529192506000916001600160a01b03909116906370a0823190602401602060405180830381865afa158015610633573d6000803e3d6000fd5b505050506040513d601f19601f820116820180604052508101906106579190611a14565b9050600061066e8a6001600160701b038716611a43565b831161067b576000610698565b61068e8a6001600160701b038716611a43565b6106989084611a43565b905060006106af8a6001600160701b038716611a43565b83116106bc5760006106d9565b6106cf8a6001600160701b038716611a43565b6106d99084611a43565b905060008211806106ea5750600081115b61072b5760405162461bcd60e51b8152602060048201526012602482015271125394d551919250d251539517d25394155560721b60448201526064016103f7565b6000610738836019611a56565b61074486612710611a56565b61074e9190611a43565b9050600061075d836019611a56565b61076986612710611a56565b6107739190611a43565b905061078b6001600160701b03808916908a16611a56565b610799906305f5e100611a56565b6107a38284611a56565b10156107d55760405162461bcd60e51b81526020600482015260016024820152604b60f81b60448201526064016103f7565b50506107e184846113f4565b60408051838152602081018390529081018c9052606081018b90526001600160a01b038a169033907fd78ad95fa46c994b6551d0da85fc275fe613ce37657fb8d5e3d130840159d8229060800160405180910390a350506001600955505050505050505050565b3360008181526006602090815260408083206001600160a01b038716808552925280832085905551919290917f8c5be1e5ebec7d5bd14f71427d1e84f3dd0314c0f7b2291e5b200ac8c7c3b925906108a39086815260200190565b60405180910390a35060015b92915050565b6001600160a01b03831660009081526006602090815260408083203384529091528120546000198114610911576108ec8382611a43565b6001600160a01b03861660009081526006602090815260408083203384529091529020555b61091c8585856114f2565b506001949350505050565b6000546001600160a01b0316331461096d5760405162461bcd60e51b81526020600482015260096024820152682327a92124a22222a760b91b60448201526064016103f7565b600180546001600160a01b039384166001600160a01b03199182161790915560028054929093169116179055565b60006001600954146109bf5760405162461bcd60e51b81526004016103f7906119a8565b60026009556003546001546040516370a0823160e01b81523060048201526001600160701b0380841693600160701b900416916000916001600160a01b03909116906370a0823190602401602060405180830381865afa158015610a27573d6000803e3d6000fd5b505050506040513d601f19601f82011682018060405250810190610a4b9190611a14565b6002546040516370a0823160e01b81523060048201529192506000916001600160a01b03909116906370a0823190602401602060405180830381865afa158015610a99573d6000803e3d6000fd5b505050506040513d601f19601f82011682018060405250810190610abd9190611a14565b90506000610ad46001600160701b03861684611a43565b90506000610aeb6001600160701b03861684611a43565b9050600454600003610b2a576103e8610b0c610b078385611a56565b6115e9565b610b169190611a43565b9650610b2560006103e8611659565b610b79565b610b76866001600160701b031660045484610b459190611a56565b610b4f9190611a83565b866001600160701b031660045484610b679190611a56565b610b719190611a83565b6116e3565b96505b60008711610bc95760405162461bcd60e51b815260206004820152601d60248201527f494e53554646494349454e545f4c49515549444954595f4d494e54454400000060448201526064016103f7565b610bd38888611659565b610bdd84846113f4565b604080518381526020810183905233917f4c209b5fc8ad50758f13e2e1088ba56a560dff690a1c6fef26394f4c03821c4f910160405180910390a2505060016009555092949350505050565b600080600160095414610c4e5760405162461bcd60e51b81526004016103f7906119a8565b60026009556001600160a01b038316610c985760405162461bcd60e51b815260206004820152600c60248201526b5a45524f5f4144445245535360a01b60448201526064016103f7565b6001546040516370a0823160e01b81523060048201526000916001600160a01b0316906370a0823190602401602060405180830381865afa158015610ce1573d6000803e3d6000fd5b505050506040513d601f19601f82011682018060405250810190610d059190611a14565b6002546040516370a0823160e01b81523060048201529192506000916001600160a01b03909116906370a0823190602401602060405180830381865afa158015610d53573d6000803e3d6000fd5b505050506040513d601f19601f82011682018060405250810190610d779190611a14565b3060009081526005602052604090205490915080610dd05760405162461bcd60e51b8152602060048201526016602482015275494e53554646494349454e545f4c495155494449545960501b60448201526064016103f7565b600454610ddd8483611a56565b610de79190611a83565b600454909550610df78383611a56565b610e019190611a83565b9350610e0d30826116fb565b600154610e24906001600160a01b031687876112e7565b600254610e3b906001600160a01b031687866112e7565b6001546040516370a0823160e01b8152306004820152610f1b916001600160a01b0316906370a08231906024015b602060405180830381865afa158015610e86573d6000803e3d6000fd5b505050506040513d601f19601f82011682018060405250810190610eaa9190611a14565b6002546040516370a0823160e01b81523060048201526001600160a01b03909116906370a0823190602401602060405180830381865afa158015610ef2573d6000803e3d6000fd5b505050506040513d601f19601f82011682018060405250810190610f169190611a14565b6113f4565b60408051868152602081018690526001600160a01b0388169133917fdccd412f0b1252819cb1fd330b93224ca42612892bb3f4f789976e6d81936496910160405180910390a350506001600955509092909150565b6000610f7d3384846114f2565b50600192915050565b6001546003546040516370a0823160e01b8152306004820152611017926001600160a01b03169184916001600160701b039091169083906370a08231906024015b602060405180830381865afa158015610fe4573d6000803e3d6000fd5b505050506040513d601f19601f820116820180604052508101906110089190611a14565b6110129190611a43565b6112e7565b6002546003546040516370a0823160e01b8152306004820152611062926001600160a01b0316918491600160701b9091046001600160701b03169083906370a0823190602401610fc7565b50565b4284101561109f5760405162461bcd60e51b81526020600482015260076024820152661156141254915160ca1b60448201526064016103f7565b6007546001600160a01b038816600090815260086020526040812080549192917f6e71edae12b1b97f4d1f60370fef10105fa2faae0126114a169c64845d6126c9918b918b918b9190876110f283611a97565b909155506040805160208101969096526001600160a01b0394851690860152929091166060840152608083015260a082015260c0810187905260e0016040516020818303038152906040528051906020012060405160200161116b92919061190160f01b81526002810192909252602282015260420190565b60408051601f198184030181528282528051602091820120600080855291840180845281905260ff88169284019290925260608301869052608083018590529092509060019060a0016020604051602081039080840390855afa1580156111d6573d6000803e3d6000fd5b5050604051601f1901519150506001600160a01b0381161580159061120c5750886001600160a01b0316816001600160a01b0316145b61124c5760405162461bcd60e51b8152602060048201526011602482015270494e56414c49445f5349474e415455524560781b60448201526064016103f7565b6001600160a01b038981166000818152600660209081526040808320948d16808452948252918290208b905590518a81527f8c5be1e5ebec7d5bd14f71427d1e84f3dd0314c0f7b2291e5b200ac8c7c3b925910160405180910390a3505050505050505050565b6001546040516370a0823160e01b81523060048201526112e5916001600160a01b0316906370a0823190602401610e69565b565b604080516001600160a01b038481166024830152604480830185905283518084039091018152606490920183526020820180516001600160e01b031663a9059cbb60e01b17905291516000928392908716916113439190611ab0565b6000604051808303816000865af19150503d8060008114611380576040519150601f19603f3d011682016040523d82523d6000602084013e611385565b606091505b50915091508180156113af5750805115806113af5750808060200190518101906113af9190611acc565b6113ed5760405162461bcd60e51b815260206004820152600f60248201526e1514905394d1915497d19052531151608a1b60448201526064016103f7565b5050505050565b6001600160701b03821180159061141257506001600160701b038111155b6114495760405162461bcd60e51b81526020600482015260086024820152674f564552464c4f5760c01b60448201526064016103f7565b600061145a64010000000042611aee565b6003805463ffffffff8316600160e01b026001600160e01b036001600160701b03878116600160701b9081026001600160e01b03199095168a83161794909417918216831794859055604080519382169282169290921783529290930490911660208201529192507f1c411e9a96e071241c2f21f7726b17ae89e3cab4c78be50e062b03a9fffbbad1910160405180910390a1505050565b6001600160a01b03821661153b5760405162461bcd60e51b815260206004820152601060248201526f5452414e534645525f544f5f5a45524f60801b60448201526064016103f7565b6001600160a01b03831660009081526005602052604081208054839290611563908490611a43565b90915550506001600160a01b03821660009081526005602052604081208054839290611590908490611b02565b92505081905550816001600160a01b0316836001600160a01b03167fddf252ad1be2c89b69c2b068fc378daa952ba7f163c4a11628f55a4df523b3ef836040516115dc91815260200190565b60405180910390a3505050565b6000600382111561164a5750806000611603600283611a83565b61160e906001611b02565b90505b81811015611644579050806002816116298186611a83565b6116339190611b02565b61163d9190611a83565b9050611611565b50919050565b8115611654575060015b919050565b806004600082825461166b9190611b02565b90915550506001600160a01b03821660009081526005602052604081208054839290611698908490611b02565b90915550506040518181526001600160a01b038316906000907fddf252ad1be2c89b69c2b068fc378daa952ba7f163c4a11628f55a4df523b3ef906020015b60405180910390a35050565b60008183106116f257816116f4565b825b9392505050565b6001600160a01b03821660009081526005602052604081208054839290611723908490611a43565b92505081905550806004600082825461173c9190611a43565b90915550506040518181526000906001600160a01b038416907fddf252ad1be2c89b69c2b068fc378daa952ba7f163c4a11628f55a4df523b3ef906020016116d7565b80356001600160a01b038116811461165457600080fd5b6000806000806000608086880312156117ae57600080fd5b85359450602086013593506117c56040870161177f565b9250606086013567ffffffffffffffff808211156117e257600080fd5b818801915088601f8301126117f657600080fd5b81358181111561180557600080fd5b89602082850101111561181757600080fd5b9699959850939650602001949392505050565b60005b8381101561184557818101518382015260200161182d565b50506000910152565b602081526000825180602084015261186d81604085016020870161182a565b601f01601f19169190910160400192915050565b6000806040838503121561189457600080fd5b61189d8361177f565b946020939093013593505050565b6000806000606084860312156118c057600080fd5b6118c98461177f565b92506118d76020850161177f565b9150604084013590509250925092565b600080604083850312156118fa57600080fd5b6119038361177f565b91506119116020840161177f565b90509250929050565b60006020828403121561192c57600080fd5b6116f48261177f565b600080600080600080600060e0888a03121561195057600080fd5b6119598861177f565b96506119676020890161177f565b95506040880135945060608801359350608088013560ff8116811461198b57600080fd5b9699959850939692959460a0840135945060c09093013592915050565b6020808252600690820152651313d0d2d15160d21b604082015260600190565b60018060a01b038616815284602082015283604082015260806060820152816080820152818360a0830137600081830160a090810191909152601f909201601f19160101949350505050565b600060208284031215611a2657600080fd5b5051919050565b634e487b7160e01b600052601160045260246000fd5b818103818111156108af576108af611a2d565b80820281158282048414176108af576108af611a2d565b634e487b7160e01b600052601260045260246000fd5b600082611a9257611a92611a6d565b500490565b600060018201611aa957611aa9611a2d565b5060010190565b60008251611ac281846020870161182a565b9190910192915050565b600060208284031215611ade57600080fd5b815180151581146116f457600080fd5b600082611afd57611afd611a6d565b500690565b808201808211156108af576108af611a2d56fea26469706673582212207d63d8c1f7a9d160369a23fd37a062fdc99df4af0fbdc738f39d28969461d58e64736f6c63430008140033",
  "linkReferences": {},
  "deployedLinkReferences": {}
}