{
  "_format": "hh-sol-artifact-1",
  "contractName": "SilverbackUnifiedRouterV0",
  "sourceName": "contracts/SilverbackUnifiedRouterV0.sol",
  "abi": [
    {
      "inputs": [
        {
          "internalType": "address",
          "name": "_factory",
          "type": "address"
        },
        {
          "internalType": "address",
          "name": "_WETH",
          "type": "address"
        }
      ],
      "stateMutability": "nonpayable",
      "type": "constructor"
    },
    {
      "anonymous": false,
      "inputs": [
        {
          "indexed": true,
          "internalType": "address",
          "name": "user",
          "type": "address"
        },
        {
          "indexed": false,
          "internalType": "address",
          "name": "inToken",
          "type": "address"
        },
        {
          "indexed": false,
          "internalType": "address",
          "name": "outToken",
          "type": "address"
        },
        {
          "indexed": false,
          "internalType": "uint256",
          "name": "amountIn",
          "type": "uint256"
        },
        {
          "indexed": false,
          "internalType": "address",
          "name": "target",
          "type": "address"
        }
      ],
      "name": "SwapForwarded",
      "type": "event"
    },
    {
      "inputs": [],
      "name": "NATIVE",
      "outputs": [
        {
          "internalType": "address",
          "name": "",
          "type": "address"
        }
      ],
      "stateMutability": "view",
      "type": "function"
    },
    {
      "inputs": [],
      "name": "WETH",
      "outputs": [
        {
          "internalType": "address",
          "name": "",
          "type": "address"
        }
      ],
      "stateMutability": "view",
      "type": "function"
    },
    {
      "inputs": [
        {
          "internalType": "address",
          "name": "tokenA",
          "type": "address"
        },
        {
          "internalType": "address",
          "name": "tokenB",
          "type": "address"
        },
        {
          "internalType": "uint256",
          "name": "amountADesired",
          "type": "uint256"
        },
        {
          "internalType": "uint256",
          "name": "amountBDesired",
          "type": "uint256"
        },
        {
          "internalType": "uint256",
          "name": "amountAMin",
          "type": "uint256"
        },
        {
          "internalType": "uint256",
          "name": "amountBMin",
          "type": "uint256"
        },
        {
          "internalType": "address",
          "name": "to",
          "type": "address"
        },
        {
          "internalType": "uint256",
          "name": "deadline",
          "type": "uint256"
        }
      ],
      "name": "addLiquidity",
      "outputs": [
        {
          "internalType": "uint256",
          "name": "amountA",
          "type": "uint256"
        },
        {
          "internalType": "uint256",
          "name": "amountB",
          "type": "uint256"
        },
        {
          "internalType": "uint256",
          "name": "liquidity",
          "type": "uint256"
        }
      ],
      "stateMutability": "nonpayable",
      "type": "function"
    },
    {
      "inputs": [
        {
          "internalType": "address",
          "name": "token",
          "type": "address"
        },
        {
          "internalType": "uint256",
          "name": "amountTokenDesired",
          "type": "uint256"
        },
        {
          "internalType": "uint256",
          "name": "amountTokenMin",
          "type": "uint256"
        },
        {
          "internalType": "uint256",
          "name": "amountETHMin",
          "type": "uint256"
        },
        {
          "internalType": "address",
          "name": "to",
          "type": "address"
        },
        {
          "internalType": "uint256",
          "name": "deadline",
          "type": "uint256"
        }
      ],
      "name": "addLiquidityETH",
      "outputs": [
        {
          "internalType": "uint256",
          "name": "amountToken",
          "type": "uint256"
        },
        {
          "internalType": "uint256",
          "name": "amountETH",
          "type": "uint256"
        },
        {
          "internalType": "uint256",
          "name": "liquidity",
          "type": "uint256"
        }
      ],
      "stateMutability": "payable",
      "type": "function"
    },
    {
      "inputs": [],
      "name": "factory",
      "outputs": [
        {
          "internalType": "address",
          "name": "",
          "type": "address"
        }
      ],
      "stateMutability": "view",
      "type": "function"
    },
    {
      "inputs": [
        {
          "internalType": "address",
          "name": "tokenA",
          "type": "address"
        },
        {
          "internalType": "address",
          "name": "tokenB",
          "type": "address"
        },
        {
          "internalType": "uint256",
          "name": "liquidity",
          "type": "uint256"
        },
        {
          "internalType": "uint256",
          "name": "amountAMin",
          "type": "uint256"
        },
        {
          "internalType": "uint256",
          "name": "amountBMin",
          "type": "uint256"
        },
        {
          "internalType": "address",
          "name": "to",
          "type": "address"
        },
        {
          "internalType": "uint256",
          "name": "deadline",
          "type": "uint256"
        }
      ],
      "name": "removeLiquidity",
      "outputs": [
        {
          "internalType": "uint256",
          "name": "amountA",
          "type": "uint256"
        },
        {
          "internalType": "uint256",
          "name": "amountB",
          "type": "uint256"
        }
      ],
      "stateMutability": "nonpayable",
      "type": "function"
    },
    {
      "inputs": [
        {
          "internalType": "address",
          "name": "token",
          "type": "address"
        },
        {
          "internalType": "uint256",
          "name": "liquidity",
          "type": "uint256"
        },
        {
          "internalType": "uint256",
          "name": "amountTokenMin",
          "type": "uint256"
        },
        {
          "internalType": "uint256",
          "name": "amountETHMin",
          "type": "uint256"
        },
        {
          "internalType": "address",
          "name": "to",
          "type": "address"
        },
        {
          "internalType": "uint256",
          "name": "deadline",
          "type": "uint256"
        }
      ],
      "name": "removeLiquidityETH",
      "outputs": [
        {
          "internalType": "uint256",
          "name": "amountToken",
          "type": "uint256"
        },
        {
          "internalType": "uint256",
          "name": "amountETH",
          "type": "uint256"
        }
      ],
      "stateMutability": "nonpayable",
      "type": "function"
    },
    {
      "inputs": [
        {
          "components": [
            {
              "internalType": "address",
              "name": "inToken",
              "type": "address"
            },
            {
              "internalType": "address",
              "name": "outToken",
              "type": "address"
            },
            {
              "internalType": "uint256",
              "name": "amountIn",
              "type": "uint256"
            },
            {
              "internalType": "uint256",
              "name": "minAmountOut",
              "type": "uint256"
            },
            {
              "internalType": "address",
              "name": "to",
              "type": "address"
            },
            {
              "internalType": "address",
              "name": "target",
              "type": "address"
            },
            {
              "internalType": "bytes",
              "name": "data",
              "type": "bytes"
            },
            {
              "internalType": "uint256",
              "name": "deadline",
              "type": "uint256"
            },
            {
              "internalType": "bool",
              "name": "sweep",
              "type": "bool"
            }
          ],
          "internalType": "struct SilverbackUnifiedRouterV0.SwapParams",
          "name": "p",
          "type": "tuple"
        }
      ],
      "name": "swapAndForward",
      "outputs": [],
      "stateMutability": "payable",
      "type": "function"
    },
    {
      "inputs": [
        {
          "components": [
            {
              "internalType": "address",
              "name": "inToken",
              "type": "address"
            },
            {
              "internalType": "address",
              "name": "outToken",
              "type": "address"
            },
            {
              "internalType": "uint256",
              "name": "amountIn",
              "type": "uint256"
            },
            {
              "internalType": "uint256",
              "name": "minAmountOut",
              "type": "uint256"
            },
            {
              "internalType": "address",
              "name": "to",
              "type": "address"
            },
            {
              "internalType": "address",
              "name": "target",
              "type": "address"
            },
            {
              "internalType": "bytes",
              "name": "data",
              "type": "bytes"
            },
            {
              "internalType": "uint256",
              "name": "deadline",
              "type": "uint256"
            },
            {
              "internalType": "bool",
              "name": "sweep",
              "type": "bool"
            }
          ],
          "internalType": "struct SilverbackUnifiedRouterV0.SwapParams",
          "name": "p",
          "type": "tuple"
        },
        {
          "components": [
            {
              "internalType": "address",
              "name": "token",
              "type": "address"
            },
            {
              "internalType": "uint256",
              "name": "value",
              "type": "uint256"
            },
            {
              "internalType": "uint256",
              "name": "deadline",
              "type": "uint256"
            },
            {
              "internalType": "uint8",
              "name": "v",
              "type": "uint8"
            },
            {
              "internalType": "bytes32",
              "name": "r",
              "type": "bytes32"
            },
            {
              "internalType": "bytes32",
              "name": "s",
              "type": "bytes32"
            }
          ],
          "internalType": "struct SilverbackUnifiedRouterV0.PermitData",
          "name": "permit",
          "type": "tuple"
        }
      ],
      "name": "swapAndForward",
      "outputs": [],
      "stateMutability": "payable",
      "type": "function"
    },
    {
      "inputs": [
        {
          "internalType": "uint256",
          "name": "amountOutMin",
          "type": "uint256"
        },
        {
          "internalType": "address[]",
          "name": "path",
          "type": "address[]"
        },
        {
          "internalType": "address",
          "name": "to",
          "type": "address"
        },
        {
          "internalType": "uint256",
          "name": "deadline",
          "type": "uint256"
        }
      ],
      "name": "swapExactETHForTokens",
      "outputs": [
        {
          "internalType": "uint256[]",
          "name": "amounts",
          "type": "uint256[]"
        }
      ],
      "stateMutability": "payable",
      "type": "function"
    },
    {
      "inputs": [
        {
          "internalType": "uint256",
          "name": "amountIn",
          "type": "uint256"
        },
        {
          "internalType": "uint256",
          "name": "amountOutMin",
          "type": "uint256"
        },
        {
          "internalType": "address[]",
          "name": "path",
          "type": "address[]"
        },
        {
          "internalType": "address",
          "name": "to",
          "type": "address"
        },
        {
          "internalType": "uint256",
          "name": "deadline",
          "type": "uint256"
        }
      ],
      "name": "swapExactTokensForETH",
      "outputs": [
        {
          "internalType": "uint256[]",
          "name": "amounts",
          "type": "uint256[]"
        }
      ],
      "stateMutability": "nonpayable",
      "type": "function"
    },
    {
      "inputs": [
        {
          "internalType": "uint256",
          "name": "amountIn",
          "type": "uint256"
        },
        {
          "internalType": "uint256",
          "name": "amountOutMin",
          "type": "uint256"
        },
        {
          "internalType": "address[]",
          "name": "path",
          "type": "address[]"
        },
        {
          "internalType": "address",
          "name": "to",
          "type": "address"
        },
        {
          "internalType": "uint256",
          "name": "deadline",
          "type": "uint256"
        }
      ],
      "name": "swapExactTokensForTokens",
      "outputs": [
        {
          "internalType": "uint256[]",
          "name": "amounts",
          "type": "uint256[]"
        }
      ],
      "stateMutability": "nonpayable",
      "type": "function"
    },
    {
      "stateMutability": "payable",
      "type": "receive"
    }
  ],
  "bytecode": "0x60c060405260016000553480156200001657600080fd5b50604051620053f0380380620053f08339810160408190526200003991620000cf565b6001600160a01b038216158015906200005a57506001600160a01b03811615155b6200009a5760405162461bcd60e51b815260206004820152600c60248201526b5a45524f5f4144445245535360a01b604482015260640160405180910390fd5b6001600160a01b039182166080521660a05262000107565b80516001600160a01b0381168114620000ca57600080fd5b919050565b60008060408385031215620000e357600080fd5b620000ee83620000b2565b9150620000fe60208401620000b2565b90509250929050565b60805160a0516151eb620002056000396000818160bb0152818161021f015281816103770152818161046801528181610560015281816106a4015281816108df01528181610c4201528181610cba01528181610dd7015281816115700152818161162d015281816116a0015281816117160152818161178f015261180601526000818161027301528181610348015281816107530152818161082401528181610a9201528181610d3101528181610dfb0152818161103f0152818161126501528181611317015281816113ad01528181611539015281816115fe015281816116e701528181611f7801528181611fc8015261258a01526151eb6000f3fe6080604052600436106100ab5760003560e01c8063a730d30611610064578063a730d306146101fa578063ad5c46481461020d578063baa2abde14610241578063c45a015514610261578063e8e3370014610295578063f305d719146102d057600080fd5b806302751cec1461012057806318cbafe51461015a57806338ed17391461018757806343e7d4a0146101a75780637ff36ab5146101ba578063a0cf0aea146101cd57600080fd5b3661011b57336001600160a01b037f000000000000000000000000000000000000000000000000000000000000000016146101195760405162461bcd60e51b815260206004820152600960248201526809e9c98b2beae8aa8960bb1b60448201526064015b60405180910390fd5b005b600080fd5b34801561012c57600080fd5b5061014061013b366004612d6f565b6102e3565b604080519283526020830191909152015b60405180910390f35b34801561016657600080fd5b5061017a610175366004612e12565b610650565b6040516101519190612e85565b34801561019357600080fd5b5061017a6101a2366004612e12565b610a2d565b6101196101b5366004612ee2565b610b98565b61017a6101c8366004612f17565b610bf6565b3480156101d957600080fd5b506101e2600081565b6040516001600160a01b039091168152602001610151565b610119610208366004612f7e565b610e9b565b34801561021957600080fd5b506101e27f000000000000000000000000000000000000000000000000000000000000000081565b34801561024d57600080fd5b5061014061025c366004612fd8565b610fda565b34801561026d57600080fd5b506101e27f000000000000000000000000000000000000000000000000000000000000000081565b3480156102a157600080fd5b506102b56102b036600461304a565b61120b565b60408051938452602084019290925290820152606001610151565b6102b56102de366004612d6f565b6114da565b6000806001600054146103085760405162461bcd60e51b8152600401610110906130c6565b6002600055824281101561032e5760405162461bcd60e51b8152600401610110906130e6565b60405163e6a4390560e01b81526000906001600160a01b037f0000000000000000000000000000000000000000000000000000000000000000169063e6a439059061039f908d907f000000000000000000000000000000000000000000000000000000000000000090600401613107565b602060405180830381865afa1580156103bc573d6000803e3d6000fd5b505050506040513d601f19601f820116820180604052508101906103e09190613121565b90506103ee8133838c61194d565b60405163226bf2d160e21b815230600482015260009081906001600160a01b038416906389afcb449060240160408051808303816000875af1158015610438573d6000803e3d6000fd5b505050506040513d601f19601f8201168201806040525081019061045c9190613145565b91509150600061048c8d7f0000000000000000000000000000000000000000000000000000000000000000611a68565b509050806001600160a01b03168d6001600160a01b0316146104af5781836104b2565b82825b90975095508a8710156104fc5760405162461bcd60e51b815260206004820152601260248201527124a729aaa32324a1a4a2a72a2faa27a5a2a760711b6044820152606401610110565b8986101561053f5760405162461bcd60e51b815260206004820152601060248201526f0929ca6aa8c8c9286928a9ca8be8aa8960831b6044820152606401610110565b61054a8d8a89611b36565b604051632e1a7d4d60e01b8152600481018790527f00000000000000000000000000000000000000000000000000000000000000006001600160a01b031690632e1a7d4d90602401600060405180830381600087803b1580156105ac57600080fd5b505af11580156105c0573d6000803e3d6000fd5b505050506000896001600160a01b03168760405160006040518083038185875af1925050503d8060008114610611576040519150601f19603f3d011682016040523d82523d6000602084013e610616565b606091505b50509050806106375760405162461bcd60e51b815260040161011090613169565b5050505050506001600081905550965096945050505050565b60606001600054146106745760405162461bcd60e51b8152600401610110906130c6565b6002600055814281101561069a5760405162461bcd60e51b8152600401610110906130e6565b6001600160a01b037f00000000000000000000000000000000000000000000000000000000000000001686866106d16001826131ac565b8181106106e0576106e06131bf565b90506020020160208101906106f591906131d5565b6001600160a01b03161461071b5760405162461bcd60e51b8152600401610110906131f2565b61074e86866000818110610731576107316131bf565b905060200201602081019061074691906131d5565b33308b61194d565b6107ac7f000000000000000000000000000000000000000000000000000000000000000089888880806020026020016040519081016040528093929190818152602001838360200280828437600092019190915250611c4392505050565b91508682600184516107be91906131ac565b815181106107ce576107ce6131bf565b602002602001015110156107f45760405162461bcd60e51b815260040161011090613218565b61089e8686600081811061080a5761080a6131bf565b905060200201602081019061081f91906131d5565b6108987f000000000000000000000000000000000000000000000000000000000000000089896000818110610856576108566131bf565b905060200201602081019061086b91906131d5565b8a8a600181811061087e5761087e6131bf565b905060200201602081019061089391906131d5565b611d9e565b8a611b36565b6108dd82878780806020026020016040519081016040528093929190818152602001838360200280828437600092019190915250309250611e95915050565b7f00000000000000000000000000000000000000000000000000000000000000006001600160a01b0316632e1a7d4d836001855161091b91906131ac565b8151811061092b5761092b6131bf565b60200260200101516040518263ffffffff1660e01b815260040161095191815260200190565b600060405180830381600087803b15801561096b57600080fd5b505af115801561097f573d6000803e3d6000fd5b505050506000846001600160a01b0316836001855161099e91906131ac565b815181106109ae576109ae6131bf565b602002602001015160405160006040518083038185875af1925050503d80600081146109f6576040519150601f19603f3d011682016040523d82523d6000602084013e6109fb565b606091505b5050905080610a1c5760405162461bcd60e51b815260040161011090613169565b505060016000559695505050505050565b6060600160005414610a515760405162461bcd60e51b8152600401610110906130c6565b60026000558142811015610a775760405162461bcd60e51b8152600401610110906130e6565b610a8d86866000818110610731576107316131bf565b610aeb7f000000000000000000000000000000000000000000000000000000000000000089888880806020026020016040519081016040528093929190818152602001838360200280828437600092019190915250611c4392505050565b9150868260018451610afd91906131ac565b81518110610b0d57610b0d6131bf565b60200260200101511015610b335760405162461bcd60e51b815260040161011090613218565b610b498686600081811061080a5761080a6131bf565b610b8882878780806020026020016040519081016040528093929190818152602001838360200280828437600092019190915250899250611e95915050565b5060016000559695505050505050565b600160005414610bba5760405162461bcd60e51b8152600401610110906130c6565b600260005560e081013542811015610be45760405162461bcd60e51b8152600401610110906130e6565b610bed8261209d565b50506001600055565b6060600160005414610c1a5760405162461bcd60e51b8152600401610110906130c6565b60026000558142811015610c405760405162461bcd60e51b8152600401610110906130e6565b7f00000000000000000000000000000000000000000000000000000000000000006001600160a01b031686866000818110610c7d57610c7d6131bf565b9050602002016020810190610c9291906131d5565b6001600160a01b031614610cb85760405162461bcd60e51b8152600401610110906131f2565b7f00000000000000000000000000000000000000000000000000000000000000006001600160a01b031663d0e30db0346040518263ffffffff1660e01b81526004016000604051808303818588803b158015610d1357600080fd5b505af1158015610d27573d6000803e3d6000fd5b5050505050610d8a7f000000000000000000000000000000000000000000000000000000000000000034888880806020026020016040519081016040528093929190818152602001838360200280828437600092019190915250611c4392505050565b9150868260018451610d9c91906131ac565b81518110610dac57610dac6131bf565b60200260200101511015610dd25760405162461bcd60e51b815260040161011090613218565b610e4d7f0000000000000000000000000000000000000000000000000000000000000000610e2d7f000000000000000000000000000000000000000000000000000000000000000089896000818110610856576108566131bf565b84600081518110610e4057610e406131bf565b6020026020010151611b36565b610e8c82878780806020026020016040519081016040528093929190818152602001838360200280828437600092019190915250899250611e95915050565b50600160005595945050505050565b600160005414610ebd5760405162461bcd60e51b8152600401610110906130c6565b600260005560e082013542811015610ee75760405162461bcd60e51b8152600401610110906130e6565b6000610ef660208401846131d5565b6001600160a01b031614610fc757610f1160208301836131d5565b6001600160a01b031663d505accf333060208601356040870135610f3b6080890160608a01613245565b6040516001600160e01b031960e088901b1681526001600160a01b0395861660048201529490931660248501526044840191909152606483015260ff166084820152608085013560a482015260a085013560c482015260e401600060405180830381600087803b158015610fae57600080fd5b505af1158015610fc2573d6000803e3d6000fd5b505050505b610fd08361209d565b5050600160005550565b600080600160005414610fff5760405162461bcd60e51b8152600401610110906130c6565b600260005582428110156110255760405162461bcd60e51b8152600401610110906130e6565b60405163e6a4390560e01b81526000906001600160a01b037f0000000000000000000000000000000000000000000000000000000000000000169063e6a4390590611076908e908e90600401613107565b602060405180830381865afa158015611093573d6000803e3d6000fd5b505050506040513d601f19601f820116820180604052508101906110b79190613121565b90506110c58133838c61194d565b60405163226bf2d160e21b81526001600160a01b03878116600483015260009182918416906389afcb449060240160408051808303816000875af1158015611111573d6000803e3d6000fd5b505050506040513d601f19601f820116820180604052508101906111359190613145565b9150915060006111458e8e611a68565b509050806001600160a01b03168e6001600160a01b03161461116857818361116b565b82825b90975095508a8710156111b15760405162461bcd60e51b815260206004820152600e60248201526d494e53554646494349454e545f4160901b6044820152606401610110565b898610156111f25760405162461bcd60e51b815260206004820152600e60248201526d24a729aaa32324a1a4a2a72a2fa160911b6044820152606401610110565b5050505050600160008190555097509795505050505050565b60008060006001600054146112325760405162461bcd60e51b8152600401610110906130c6565b600260005583428110156112585760405162461bcd60e51b8152600401610110906130e6565b60006001600160a01b03167f00000000000000000000000000000000000000000000000000000000000000006001600160a01b031663e6a439058e8e6040518363ffffffff1660e01b81526004016112b1929190613107565b602060405180830381865afa1580156112ce573d6000803e3d6000fd5b505050506040513d601f19601f820116820180604052508101906112f29190613121565b6001600160a01b031603611393576040516364e329cb60e11b81526001600160a01b037f0000000000000000000000000000000000000000000000000000000000000000169063c9c653969061134e908f908f90600401613107565b6020604051808303816000875af115801561136d573d6000803e3d6000fd5b505050506040513d601f19601f820116820180604052508101906113919190613121565b505b6113a18c8c8c8c8c8c61257f565b809450819550505060007f00000000000000000000000000000000000000000000000000000000000000006001600160a01b031663e6a439058e8e6040518363ffffffff1660e01b81526004016113f9929190613107565b602060405180830381865afa158015611416573d6000803e3d6000fd5b505050506040513d601f19601f8201168201806040525081019061143a9190613121565b90506114488d33838861194d565b6114548c33838761194d565b6040516335313c2160e11b81526001600160a01b038881166004830152821690636a627842906024016020604051808303816000875af115801561149c573d6000803e3d6000fd5b505050506040513d601f19601f820116820180604052508101906114c09190613268565b925050506001600081905550985098509895505050505050565b60008060006001600054146115015760405162461bcd60e51b8152600401610110906130c6565b600260005583428110156115275760405162461bcd60e51b8152600401610110906130e6565b60405163e6a4390560e01b81526000907f00000000000000000000000000000000000000000000000000000000000000006001600160a01b03169063e6a4390590611598908e907f000000000000000000000000000000000000000000000000000000000000000090600401613107565b602060405180830381865afa1580156115b5573d6000803e3d6000fd5b505050506040513d601f19601f820116820180604052508101906115d99190613121565b6001600160a01b03160361169a576040516364e329cb60e11b81526001600160a01b037f0000000000000000000000000000000000000000000000000000000000000000169063c9c6539690611655908d907f000000000000000000000000000000000000000000000000000000000000000090600401613107565b6020604051808303816000875af1158015611674573d6000803e3d6000fd5b505050506040513d601f19601f820116820180604052508101906116989190613121565b505b6116c88a7f00000000000000000000000000000000000000000000000000000000000000008b348c8c61257f565b60405163e6a4390560e01b815291955093506000906001600160a01b037f0000000000000000000000000000000000000000000000000000000000000000169063e6a439059061173e908e907f000000000000000000000000000000000000000000000000000000000000000090600401613107565b602060405180830381865afa15801561175b573d6000803e3d6000fd5b505050506040513d601f19601f8201168201806040525081019061177f9190613121565b905061178d8b33838861194d565b7f00000000000000000000000000000000000000000000000000000000000000006001600160a01b031663d0e30db0856040518263ffffffff1660e01b81526004016000604051808303818588803b1580156117e857600080fd5b505af11580156117fc573d6000803e3d6000fd5b505050505061182c7f00000000000000000000000000000000000000000000000000000000000000008286611b36565b6040516335313c2160e11b81526001600160a01b038881166004830152821690636a627842906024016020604051808303816000875af1158015611874573d6000803e3d6000fd5b505050506040513d601f19601f820116820180604052508101906118989190613268565b925083341115611937576000336118af86346131ac565b604051600081818185875af1925050503d80600081146118eb576040519150601f19603f3d011682016040523d82523d6000602084013e6118f0565b606091505b50509050806119355760405162461bcd60e51b815260206004820152601160248201527011551217d4915195539117d19052531151607a1b6044820152606401610110565b505b5050600160008190555096509650969350505050565b604080516001600160a01b0385811660248301528481166044830152606480830185905283518084039091018152608490920183526020820180516001600160e01b03166323b872dd60e01b17905291516000928392908816916119b191906132a5565b6000604051808303816000865af19150503d80600081146119ee576040519150601f19603f3d011682016040523d82523d6000602084013e6119f3565b606091505b5091509150818015611a1d575080511580611a1d575080806020019051810190611a1d91906132cf565b611a605760405162461bcd60e51b81526020600482015260146024820152731514905394d1915497d19493d357d1905253115160621b6044820152606401610110565b505050505050565b600080826001600160a01b0316846001600160a01b031603611ac25760405162461bcd60e51b81526020600482015260136024820152724944454e544943414c5f41444452455353455360681b6044820152606401610110565b826001600160a01b0316846001600160a01b031610611ae2578284611ae5565b83835b90925090506001600160a01b038216611b2f5760405162461bcd60e51b815260206004820152600c60248201526b5a45524f5f4144445245535360a01b6044820152606401610110565b9250929050565b604080516001600160a01b038481166024830152604480830185905283518084039091018152606490920183526020820180516001600160e01b031663a9059cbb60e01b1790529151600092839290871691611b9291906132a5565b6000604051808303816000865af19150503d8060008114611bcf576040519150601f19603f3d011682016040523d82523d6000602084013e611bd4565b606091505b5091509150818015611bfe575080511580611bfe575080806020019051810190611bfe91906132cf565b611c3c5760405162461bcd60e51b815260206004820152600f60248201526e1514905394d1915497d19052531151608a1b6044820152606401610110565b5050505050565b6060600282511015611c675760405162461bcd60e51b8152600401610110906131f2565b815167ffffffffffffffff811115611c8157611c816132ec565b604051908082528060200260200182016040528015611caa578160200160208202803683370190505b5090508281600081518110611cc157611cc16131bf565b60200260200101818152505060005b60018351611cde91906131ac565b811015611d9657600080611d3187868581518110611cfe57611cfe6131bf565b602002602001015187866001611d149190613302565b81518110611d2457611d246131bf565b6020026020010151612699565b91509150611d59848481518110611d4a57611d4a6131bf565b60200260200101518383612826565b84611d65856001613302565b81518110611d7557611d756131bf565b60200260200101818152505050508080611d8e90613315565b915050611cd0565b509392505050565b6000806000611dad8585611a68565b6040516bffffffffffffffffffffffff19606084811b8216602084015283901b1660348201529193509150600090604801604051602081830303815290604052805190602001209050600060ff60f81b888360405180602001611e0f90612d4a565b6020820181038252601f19601f8201166040525080519060200120604051602001611e7194939291906001600160f81b031994909416845260609290921b6bffffffffffffffffffffffff191660018401526015830152603582015260550190565b60408051601f19818403018152919052805160209091012098975050505050505050565b60005b60018351611ea691906131ac565b81101561209757600080848381518110611ec257611ec26131bf565b602002602001015185846001611ed89190613302565b81518110611ee857611ee86131bf565b6020026020010151915091506000611f008383611a68565b509050600087611f11866001613302565b81518110611f2157611f216131bf565b60200260200101519050600080836001600160a01b0316866001600160a01b031614611f4f57826000611f53565b6000835b91509150600060028a51611f6791906131ac565b8810611f735788611fc1565b611fc17f0000000000000000000000000000000000000000000000000000000000000000878c611fa48c6002613302565b81518110611fb457611fb46131bf565b6020026020010151611d9e565b9050611fee7f00000000000000000000000000000000000000000000000000000000000000008888611d9e565b6001600160a01b031663022c0d9f84848460006040519080825280601f01601f19166020018201604052801561202b576020820181803683370190505b506040518563ffffffff1660e01b815260040161204b949392919061335a565b600060405180830381600087803b15801561206557600080fd5b505af1158015612079573d6000803e3d6000fd5b5050505050505050505050808061208f90613315565b915050611e98565b50505050565b600081604001351180156120ca575060006120be60c0830160a084016131d5565b6001600160a01b031614155b6121075760405162461bcd60e51b815260206004820152600e60248201526d494e56414c49445f504152414d5360901b6044820152606401610110565b600061212161211c60408401602085016131d5565b61291a565b9050600061213260208401846131d5565b6001600160a01b0316036122c05781604001353410156121875760405162461bcd60e51b815260206004820152601060248201526f0929ca6aa8c8c9286928a9ca8be8aa8960831b6044820152606401610110565b60008061219a60c0850160a086016131d5565b6001600160a01b031660408501356121b560c0870187613391565b6040516121c39291906133d8565b60006040518083038185875af1925050503d8060008114612200576040519150601f19603f3d011682016040523d82523d6000602084013e612205565b606091505b5091509150816122148261299f565b906122325760405162461bcd60e51b815260040161011091906133e8565b50337f907e378715bd60e02f9fa5b85ab7b6b2a651200b16b817be5f2520e72f8df32761226260208701876131d5565b61227260408801602089016131d5565b604088013561228760c08a0160a08b016131d5565b604080516001600160a01b0395861681529385166020850152830191909152909116606082015260800160405180910390a25050612436565b6122dc6122d060208401846131d5565b3330856040013561194d565b6123066122ec60208401846131d5565b6122fc60c0850160a086016131d5565b84604001356129f3565b60008061231960c0850160a086016131d5565b6001600160a01b031661232f60c0860186613391565b60405161233d9291906133d8565b6000604051808303816000865af19150503d806000811461237a576040519150601f19603f3d011682016040523d82523d6000602084013e61237f565b606091505b50915091508161238e8261299f565b906123ac5760405162461bcd60e51b815260040161011091906133e8565b50337f907e378715bd60e02f9fa5b85ab7b6b2a651200b16b817be5f2520e72f8df3276123dc60208701876131d5565b6123ec60408801602089016131d5565b604088013561240160c08a0160a08b016131d5565b604080516001600160a01b0395861681529385166020850152830191909152909116606082015260800160405180910390a250505b612448610120830161010084016133fb565b1561257b57600061246261211c60408501602086016131d5565b9050600082821161247457600061247e565b61247e83836131ac565b905083606001358110156124a45760405162461bcd60e51b815260040161011090613218565b80156120975760006124bc60408601602087016131d5565b6001600160a01b0316036125525760006124dc60a08601608087016131d5565b6001600160a01b03168260405160006040518083038185875af1925050503d8060008114612526576040519150601f19603f3d011682016040523d82523d6000602084013e61252b565b606091505b505090508061254c5760405162461bcd60e51b815260040161011090613169565b50612097565b61209761256560408601602087016131d5565b61257560a08701608088016131d5565b83611b36565b5050565b6000806000806125b07f00000000000000000000000000000000000000000000000000000000000000008b8b612699565b915091508160001480156125c2575080155b156125d25787935086925061268c565b60006125df898484612c91565b905087811161263457858110156126295760405162461bcd60e51b815260206004820152600e60248201526d24a729aaa32324a1a4a2a72a2fa160911b6044820152606401610110565b88945092508261268a565b6000612641898486612c91565b9050878110156126845760405162461bcd60e51b815260206004820152600e60248201526d494e53554646494349454e545f4160901b6044820152606401610110565b94508793505b505b5050965096945050505050565b60008060006126a88585611a68565b5090506000866001600160a01b031663e6a4390587876040518363ffffffff1660e01b81526004016126db929190613107565b602060405180830381865afa1580156126f8573d6000803e3d6000fd5b505050506040513d601f19601f8201168201806040525081019061271c9190613121565b90506001600160a01b0381166127655760405162461bcd60e51b815260206004820152600e60248201526d1410525497d393d517d193d5539160921b6044820152606401610110565b600080826001600160a01b0316630902f1ac6040518163ffffffff1660e01b8152600401606060405180830381865afa1580156127a6573d6000803e3d6000fd5b505050506040513d601f19601f820116820180604052508101906127ca9190613434565b5091509150836001600160a01b0316886001600160a01b03161461280157806001600160701b0316826001600160701b0316612816565b816001600160701b0316816001600160701b03165b909a909950975050505050505050565b60008084116128775760405162461bcd60e51b815260206004820152601960248201527f494e53554646494349454e545f494e5055545f414d4f554e54000000000000006044820152606401610110565b6000831180156128875750600082115b6128cc5760405162461bcd60e51b8152602060048201526016602482015275494e53554646494349454e545f4c495155494449545960501b6044820152606401610110565b60006128da856103e5613484565b905060006128e88483613484565b90506000826128f9876103e8613484565b6129039190613302565b905061290f818361349b565b979650505050505050565b60006001600160a01b038216612931575047919050565b6040516370a0823160e01b81523060048201526001600160a01b038316906370a0823190602401602060405180830381865afa158015612975573d6000803e3d6000fd5b505050506040513d601f19601f820116820180604052508101906129999190613268565b92915050565b60606044825110156129d957505060408051808201909152601281527115105491d15517d0d0531317d1905253115160721b602082015290565b6004820191508180602001905181019061299991906134bd565b600080846001600160a01b031663dd62ed3e60e01b3086604051602401612a1b929190613107565b60408051601f198184030181529181526020820180516001600160e01b03166001600160e01b0319909416939093179092529051612a5991906132a5565b600060405180830381855afa9150503d8060008114612a94576040519150601f19603f3d011682016040523d82523d6000602084013e612a99565b606091505b5091509150818015612aad57506020815110155b8015612acc5750600081806020019051810190612aca9190613268565b115b15612bb557604080516001600160a01b0386811660248301526000604480840182905284518085039091018152606490930184526020830180516001600160e01b031663095ea7b360e01b179052925190881691612b29916132a5565b6000604051808303816000865af19150503d8060008114612b66576040519150601f19603f3d011682016040523d82523d6000602084013e612b6b565b606091505b5050905080612bb35760405162461bcd60e51b81526020600482015260146024820152731054141493d59157d49154d15517d1905253115160621b6044820152606401610110565b505b604080516001600160a01b038681166024830152604480830187905283518084039091018152606490920183526020820180516001600160e01b031663095ea7b360e01b1790529151600092881691612c0d916132a5565b6000604051808303816000865af19150503d8060008114612c4a576040519150601f19603f3d011682016040523d82523d6000602084013e612c4f565b606091505b5050905080611a605760405162461bcd60e51b815260206004820152600e60248201526d1054141493d59157d1905253115160921b6044820152606401610110565b6000808411612cd85760405162461bcd60e51b8152602060048201526013602482015272125394d551919250d251539517d05353d55395606a1b6044820152606401610110565b600083118015612ce85750600082115b612d2d5760405162461bcd60e51b8152602060048201526016602482015275494e53554646494349454e545f4c495155494449545960501b6044820152606401610110565b82612d388386613484565b612d42919061349b565b949350505050565b611c568061356083390190565b6001600160a01b0381168114612d6c57600080fd5b50565b60008060008060008060c08789031215612d8857600080fd5b8635612d9381612d57565b95506020870135945060408701359350606087013592506080870135612db881612d57565b8092505060a087013590509295509295509295565b60008083601f840112612ddf57600080fd5b50813567ffffffffffffffff811115612df757600080fd5b6020830191508360208260051b8501011115611b2f57600080fd5b60008060008060008060a08789031215612e2b57600080fd5b8635955060208701359450604087013567ffffffffffffffff811115612e5057600080fd5b612e5c89828a01612dcd565b9095509350506060870135612e7081612d57565b80925050608087013590509295509295509295565b6020808252825182820181905260009190848201906040850190845b81811015612ebd57835183529284019291840191600101612ea1565b50909695505050505050565b60006101208284031215612edc57600080fd5b50919050565b600060208284031215612ef457600080fd5b813567ffffffffffffffff811115612f0b57600080fd5b612d4284828501612ec9565b600080600080600060808688031215612f2f57600080fd5b85359450602086013567ffffffffffffffff811115612f4d57600080fd5b612f5988828901612dcd565b9095509350506040860135612f6d81612d57565b949793965091946060013592915050565b60008082840360e0811215612f9257600080fd5b833567ffffffffffffffff811115612fa957600080fd5b612fb586828701612ec9565b93505060c0601f1982011215612fca57600080fd5b506020830190509250929050565b600080600080600080600060e0888a031215612ff357600080fd5b8735612ffe81612d57565b9650602088013561300e81612d57565b955060408801359450606088013593506080880135925060a088013561303381612d57565b8092505060c0880135905092959891949750929550565b600080600080600080600080610100898b03121561306757600080fd5b883561307281612d57565b9750602089013561308281612d57565b965060408901359550606089013594506080890135935060a0890135925060c08901356130ae81612d57565b8092505060e089013590509295985092959890939650565b6020808252600690820152651313d0d2d15160d21b604082015260600190565b6020808252600790820152661156141254915160ca1b604082015260600190565b6001600160a01b0392831681529116602082015260400190565b60006020828403121561313357600080fd5b815161313e81612d57565b9392505050565b6000806040838503121561315857600080fd5b505080516020909101519092909150565b60208082526013908201527211551217d514905394d1915497d19052531151606a1b604082015260600190565b634e487b7160e01b600052601160045260246000fd5b8181038181111561299957612999613196565b634e487b7160e01b600052603260045260246000fd5b6000602082840312156131e757600080fd5b813561313e81612d57565b6020808252600c908201526b0929cac82989288bea082a8960a31b604082015260600190565b602080825260139082015272125394d551919250d251539517d3d555141555606a1b604082015260600190565b60006020828403121561325757600080fd5b813560ff8116811461313e57600080fd5b60006020828403121561327a57600080fd5b5051919050565b60005b8381101561329c578181015183820152602001613284565b50506000910152565b600082516132b7818460208701613281565b9190910192915050565b8015158114612d6c57600080fd5b6000602082840312156132e157600080fd5b815161313e816132c1565b634e487b7160e01b600052604160045260246000fd5b8082018082111561299957612999613196565b60006001820161332757613327613196565b5060010190565b60008151808452613346816020860160208601613281565b601f01601f19169290920160200192915050565b84815283602082015260018060a01b0383166040820152608060608201526000613387608083018461332e565b9695505050505050565b6000808335601e198436030181126133a857600080fd5b83018035915067ffffffffffffffff8211156133c357600080fd5b602001915036819003821315611b2f57600080fd5b8183823760009101908152919050565b60208152600061313e602083018461332e565b60006020828403121561340d57600080fd5b813561313e816132c1565b80516001600160701b038116811461342f57600080fd5b919050565b60008060006060848603121561344957600080fd5b61345284613418565b925061346060208501613418565b9150604084015163ffffffff8116811461347957600080fd5b809150509250925092565b808202811582820484141761299957612999613196565b6000826134b857634e487b7160e01b600052601260045260246000fd5b500490565b6000602082840312156134cf57600080fd5b815167ffffffffffffffff808211156134e757600080fd5b818401915084601f8301126134fb57600080fd5b81518181111561350d5761350d6132ec565b604051601f8201601f19908116603f01168101908382118183101715613535576135356132ec565b8160405282815287602084870101111561354e57600080fd5b61290f83602083016020880161328156fe6080604052600160095534801561001557600080fd5b50600080546001600160a01b03191633178155604080518082018252600d81526c053696c7665726261636b2d4c5609c1b6020918201528151808301835260018152603160f81b9082015281517f8b73c3c69bb8fe3d512ecc4cf759cc79239f7b179b0ffacaa9a75d522b39400f818301527f85de88e7213dc87891b4afe9ad494c76604bd5eb364a5d052edb61182afa6b5f818401527fc89efdaa54c0f20c7adf612882df0950f5a951637e0307cdcb4c672f298b8bc660608201524660808201523060a0808301919091528351808303909101815260c09091019092528151910120600755611b4a90819061010c90396000f3fe608060405234801561001057600080fd5b506004361061014d5760003560e01c80636a627842116100c3578063bc25cf771161007c578063bc25cf7714610356578063c45a015514610369578063d21220a71461037c578063d505accf1461038f578063dd62ed3e146103a2578063fff6cae9146103cd57600080fd5b80636a627842146102a757806370a08231146102ba5780637ecebe00146102da57806389afcb44146102fa57806395d89b4114610322578063a9059cbb1461034357600080fd5b806318160ddd1161011557806318160ddd1461022b57806323b872dd1461024257806330adf81f14610255578063313ce5671461027c5780633644e5151461028b578063485cc9551461029457600080fd5b8063022c0d9f1461015257806306fdde03146101675780630902f1ac146101a2578063095ea7b3146101dd5780630dfe168114610200575b600080fd5b610165610160366004611795565b6103d5565b005b60408051808201909152600d81526c053696c7665726261636b2d4c5609c1b60208201525b604051610199919061184d565b60405180910390f35b600354604080516001600160701b038084168252600160701b8404166020820152600160e01b90920463ffffffff1690820152606001610199565b6101f06101eb366004611880565b610847565b6040519015158152602001610199565b600154610213906001600160a01b031681565b6040516001600160a01b039091168152602001610199565b61023460045481565b604051908152602001610199565b6101f06102503660046118aa565b6108b4565b6102347f6e71edae12b1b97f4d1f60370fef10105fa2faae0126114a169c64845d6126c981565b60405160128152602001610199565b61023460075481565b6101656102a23660046118e6565b610926565b6102346102b5366004611919565b61099a565b6102346102c8366004611919565b60056020526000908152604090205481565b6102346102e8366004611919565b60086020526000908152604090205481565b61030d610308366004611919565b610c28565b60408051928352602083019190915201610199565b604080518082019091526005815264053422d4c560dc1b602082015261018c565b6101f0610351366004611880565b610f6f565b610165610364366004611919565b610f85565b600054610213906001600160a01b031681565b600254610213906001600160a01b031681565b61016561039d366004611934565b611064565b6102346103b03660046118e6565b600660209081526000928352604080842090915290825290205481565b6101656112b2565b6001600954146104005760405162461bcd60e51b81526004016103f7906119a7565b60405180910390fd5b6002600955841515806104135750600084115b6104555760405162461bcd60e51b8152602060048201526013602482015272125394d551919250d251539517d3d555141555606a1b60448201526064016103f7565b6001546001600160a01b0384811691161480159061048157506002546001600160a01b03848116911614155b6104ba5760405162461bcd60e51b815260206004820152600a602482015269494e56414c49445f544f60b01b60448201526064016103f7565b6003546001600160701b0380821691600160701b90041686156104ee576001546104ee906001600160a01b031686896112e6565b851561050b5760025461050b906001600160a01b031686886112e6565b821561057857604051637062a49960e11b81526001600160a01b0386169063e0c54932906105459033908b908b908a908a906004016119c7565b600060405180830381600087803b15801561055f57600080fd5b505af1158015610573573d6000803e3d6000fd5b505050505b6001546040516370a0823160e01b81523060048201526000916001600160a01b0316906370a0823190602401602060405180830381865afa1580156105c1573d6000803e3d6000fd5b505050506040513d601f19601f820116820180604052508101906105e59190611a13565b6002546040516370a0823160e01b81523060048201529192506000916001600160a01b03909116906370a0823190602401602060405180830381865afa158015610633573d6000803e3d6000fd5b505050506040513d601f19601f820116820180604052508101906106579190611a13565b9050600061066e8a6001600160701b038716611a42565b831161067b576000610698565b61068e8a6001600160701b038716611a42565b6106989084611a42565b905060006106af8a6001600160701b038716611a42565b83116106bc5760006106d9565b6106cf8a6001600160701b038716611a42565b6106d99084611a42565b905060008211806106ea5750600081115b61072b5760405162461bcd60e51b8152602060048201526012602482015271125394d551919250d251539517d25394155560721b60448201526064016103f7565b6000610738836003611a55565b610744866103e8611a55565b61074e9190611a42565b9050600061075d836003611a55565b610769866103e8611a55565b6107739190611a42565b905061078b6001600160701b03808916908a16611a55565b61079890620f4240611a55565b6107a28284611a55565b10156107d45760405162461bcd60e51b81526020600482015260016024820152604b60f81b60448201526064016103f7565b50506107e084846113f3565b60408051838152602081018390529081018c9052606081018b90526001600160a01b038a169033907fd78ad95fa46c994b6551d0da85fc275fe613ce37657fb8d5e3d130840159d8229060800160405180910390a350506001600955505050505050505050565b3360008181526006602090815260408083206001600160a01b038716808552925280832085905551919290917f8c5be1e5ebec7d5bd14f71427d1e84f3dd0314c0f7b2291e5b200ac8c7c3b925906108a29086815260200190565b60405180910390a35060015b92915050565b6001600160a01b03831660009081526006602090815260408083203384529091528120546000198114610910576108eb8382611a42565b6001600160a01b03861660009081526006602090815260408083203384529091529020555b61091b8585856114f1565b506001949350505050565b6000546001600160a01b0316331461096c5760405162461bcd60e51b81526020600482015260096024820152682327a92124a22222a760b91b60448201526064016103f7565b600180546001600160a01b039384166001600160a01b03199182161790915560028054929093169116179055565b60006001600954146109be5760405162461bcd60e51b81526004016103f7906119a7565b60026009556003546001546040516370a0823160e01b81523060048201526001600160701b0380841693600160701b900416916000916001600160a01b03909116906370a0823190602401602060405180830381865afa158015610a26573d6000803e3d6000fd5b505050506040513d601f19601f82011682018060405250810190610a4a9190611a13565b6002546040516370a0823160e01b81523060048201529192506000916001600160a01b03909116906370a0823190602401602060405180830381865afa158015610a98573d6000803e3d6000fd5b505050506040513d601f19601f82011682018060405250810190610abc9190611a13565b90506000610ad36001600160701b03861684611a42565b90506000610aea6001600160701b03861684611a42565b9050600454600003610b29576103e8610b0b610b068385611a55565b6115e8565b610b159190611a42565b9650610b2460006103e8611658565b610b78565b610b75866001600160701b031660045484610b449190611a55565b610b4e9190611a82565b866001600160701b031660045484610b669190611a55565b610b709190611a82565b6116e2565b96505b60008711610bc85760405162461bcd60e51b815260206004820152601d60248201527f494e53554646494349454e545f4c49515549444954595f4d494e54454400000060448201526064016103f7565b610bd28888611658565b610bdc84846113f3565b604080518381526020810183905233917f4c209b5fc8ad50758f13e2e1088ba56a560dff690a1c6fef26394f4c03821c4f910160405180910390a2505060016009555092949350505050565b600080600160095414610c4d5760405162461bcd60e51b81526004016103f7906119a7565b60026009556001600160a01b038316610c975760405162461bcd60e51b815260206004820152600c60248201526b5a45524f5f4144445245535360a01b60448201526064016103f7565b6001546040516370a0823160e01b81523060048201526000916001600160a01b0316906370a0823190602401602060405180830381865afa158015610ce0573d6000803e3d6000fd5b505050506040513d601f19601f82011682018060405250810190610d049190611a13565b6002546040516370a0823160e01b81523060048201529192506000916001600160a01b03909116906370a0823190602401602060405180830381865afa158015610d52573d6000803e3d6000fd5b505050506040513d601f19601f82011682018060405250810190610d769190611a13565b3060009081526005602052604090205490915080610dcf5760405162461bcd60e51b8152602060048201526016602482015275494e53554646494349454e545f4c495155494449545960501b60448201526064016103f7565b600454610ddc8483611a55565b610de69190611a82565b600454909550610df68383611a55565b610e009190611a82565b9350610e0c30826116fa565b600154610e23906001600160a01b031687876112e6565b600254610e3a906001600160a01b031687866112e6565b6001546040516370a0823160e01b8152306004820152610f1a916001600160a01b0316906370a08231906024015b602060405180830381865afa158015610e85573d6000803e3d6000fd5b505050506040513d601f19601f82011682018060405250810190610ea99190611a13565b6002546040516370a0823160e01b81523060048201526001600160a01b03909116906370a0823190602401602060405180830381865afa158015610ef1573d6000803e3d6000fd5b505050506040513d601f19601f82011682018060405250810190610f159190611a13565b6113f3565b60408051868152602081018690526001600160a01b0388169133917fdccd412f0b1252819cb1fd330b93224ca42612892bb3f4f789976e6d81936496910160405180910390a350506001600955509092909150565b6000610f7c3384846114f1565b50600192915050565b6001546003546040516370a0823160e01b8152306004820152611016926001600160a01b03169184916001600160701b039091169083906370a08231906024015b602060405180830381865afa158015610fe3573d6000803e3d6000fd5b505050506040513d601f19601f820116820180604052508101906110079190611a13565b6110119190611a42565b6112e6565b6002546003546040516370a0823160e01b8152306004820152611061926001600160a01b0316918491600160701b9091046001600160701b03169083906370a0823190602401610fc6565b50565b4284101561109e5760405162461bcd60e51b81526020600482015260076024820152661156141254915160ca1b60448201526064016103f7565b6007546001600160a01b038816600090815260086020526040812080549192917f6e71edae12b1b97f4d1f60370fef10105fa2faae0126114a169c64845d6126c9918b918b918b9190876110f183611a96565b909155506040805160208101969096526001600160a01b0394851690860152929091166060840152608083015260a082015260c0810187905260e0016040516020818303038152906040528051906020012060405160200161116a92919061190160f01b81526002810192909252602282015260420190565b60408051601f198184030181528282528051602091820120600080855291840180845281905260ff88169284019290925260608301869052608083018590529092509060019060a0016020604051602081039080840390855afa1580156111d5573d6000803e3d6000fd5b5050604051601f1901519150506001600160a01b0381161580159061120b5750886001600160a01b0316816001600160a01b0316145b61124b5760405162461bcd60e51b8152602060048201526011602482015270494e56414c49445f5349474e415455524560781b60448201526064016103f7565b6001600160a01b038981166000818152600660209081526040808320948d16808452948252918290208b905590518a81527f8c5be1e5ebec7d5bd14f71427d1e84f3dd0314c0f7b2291e5b200ac8c7c3b925910160405180910390a3505050505050505050565b6001546040516370a0823160e01b81523060048201526112e4916001600160a01b0316906370a0823190602401610e68565b565b604080516001600160a01b038481166024830152604480830185905283518084039091018152606490920183526020820180516001600160e01b031663a9059cbb60e01b17905291516000928392908716916113429190611aaf565b6000604051808303816000865af19150503d806000811461137f576040519150601f19603f3d011682016040523d82523d6000602084013e611384565b606091505b50915091508180156113ae5750805115806113ae5750808060200190518101906113ae9190611acb565b6113ec5760405162461bcd60e51b815260206004820152600f60248201526e1514905394d1915497d19052531151608a1b60448201526064016103f7565b5050505050565b6001600160701b03821180159061141157506001600160701b038111155b6114485760405162461bcd60e51b81526020600482015260086024820152674f564552464c4f5760c01b60448201526064016103f7565b600061145964010000000042611aed565b6003805463ffffffff8316600160e01b026001600160e01b036001600160701b03878116600160701b9081026001600160e01b03199095168a83161794909417918216831794859055604080519382169282169290921783529290930490911660208201529192507f1c411e9a96e071241c2f21f7726b17ae89e3cab4c78be50e062b03a9fffbbad1910160405180910390a1505050565b6001600160a01b03821661153a5760405162461bcd60e51b815260206004820152601060248201526f5452414e534645525f544f5f5a45524f60801b60448201526064016103f7565b6001600160a01b03831660009081526005602052604081208054839290611562908490611a42565b90915550506001600160a01b0382166000908152600560205260408120805483929061158f908490611b01565b92505081905550816001600160a01b0316836001600160a01b03167fddf252ad1be2c89b69c2b068fc378daa952ba7f163c4a11628f55a4df523b3ef836040516115db91815260200190565b60405180910390a3505050565b600060038211156116495750806000611602600283611a82565b61160d906001611b01565b90505b81811015611643579050806002816116288186611a82565b6116329190611b01565b61163c9190611a82565b9050611610565b50919050565b8115611653575060015b919050565b806004600082825461166a9190611b01565b90915550506001600160a01b03821660009081526005602052604081208054839290611697908490611b01565b90915550506040518181526001600160a01b038316906000907fddf252ad1be2c89b69c2b068fc378daa952ba7f163c4a11628f55a4df523b3ef906020015b60405180910390a35050565b60008183106116f157816116f3565b825b9392505050565b6001600160a01b03821660009081526005602052604081208054839290611722908490611a42565b92505081905550806004600082825461173b9190611a42565b90915550506040518181526000906001600160a01b038416907fddf252ad1be2c89b69c2b068fc378daa952ba7f163c4a11628f55a4df523b3ef906020016116d6565b80356001600160a01b038116811461165357600080fd5b6000806000806000608086880312156117ad57600080fd5b85359450602086013593506117c46040870161177e565b9250606086013567ffffffffffffffff808211156117e157600080fd5b818801915088601f8301126117f557600080fd5b81358181111561180457600080fd5b89602082850101111561181657600080fd5b9699959850939650602001949392505050565b60005b8381101561184457818101518382015260200161182c565b50506000910152565b602081526000825180602084015261186c816040850160208701611829565b601f01601f19169190910160400192915050565b6000806040838503121561189357600080fd5b61189c8361177e565b946020939093013593505050565b6000806000606084860312156118bf57600080fd5b6118c88461177e565b92506118d66020850161177e565b9150604084013590509250925092565b600080604083850312156118f957600080fd5b6119028361177e565b91506119106020840161177e565b90509250929050565b60006020828403121561192b57600080fd5b6116f38261177e565b600080600080600080600060e0888a03121561194f57600080fd5b6119588861177e565b96506119666020890161177e565b95506040880135945060608801359350608088013560ff8116811461198a57600080fd5b9699959850939692959460a0840135945060c09093013592915050565b6020808252600690820152651313d0d2d15160d21b604082015260600190565b60018060a01b038616815284602082015283604082015260806060820152816080820152818360a0830137600081830160a090810191909152601f909201601f19160101949350505050565b600060208284031215611a2557600080fd5b5051919050565b634e487b7160e01b600052601160045260246000fd5b818103818111156108ae576108ae611a2c565b80820281158282048414176108ae576108ae611a2c565b634e487b7160e01b600052601260045260246000fd5b600082611a9157611a91611a6c565b500490565b600060018201611aa857611aa8611a2c565b5060010190565b60008251611ac1818460208701611829565b9190910192915050565b600060208284031215611add57600080fd5b815180151581146116f357600080fd5b600082611afc57611afc611a6c565b500690565b808201808211156108ae576108ae611a2c56fea2646970667358221220e2870a751bca3cfb9a60645da7474b06b0d22e2b99caa10ec514a1960f48324464736f6c63430008140033a2646970667358221220b0fb6b78e552b3c3c898b7a3c925a87c43f82ca48ffc1f49c931a1e521f83f0264736f6c63430008140033",
  "linkReferences": {},
  "deployedLinkReferences": {}
}